{
  "_format": "hh-sol-artifact-1",
  "contractName": "ElvateSubscription",
  "sourceName": "contracts/ElvateSubscription.sol",
  "abi": [
    {
      "anonymous": false,
      "inputs": [
        {
          "indexed": true,
          "internalType": "address",
          "name": "previousOwner",
          "type": "address"
        },
        {
          "indexed": true,
          "internalType": "address",
          "name": "newOwner",
          "type": "address"
        }
      ],
      "name": "OwnershipTransferred",
      "type": "event"
    },
    {
      "anonymous": false,
      "inputs": [
        {
          "components": [
            {
              "internalType": "uint256",
              "name": "amountIn",
              "type": "uint256"
            },
            {
              "internalType": "uint256",
              "name": "pairId",
              "type": "uint256"
            },
            {
              "internalType": "address",
              "name": "owner",
              "type": "address"
            }
          ],
          "indexed": false,
          "internalType": "struct ElvateSubscription.Subscription",
          "name": "subscription",
          "type": "tuple"
        }
      ],
      "name": "SubscriptionCreated",
      "type": "event"
    },
    {
      "anonymous": false,
      "inputs": [
        {
          "components": [
            {
              "internalType": "uint256",
              "name": "amountIn",
              "type": "uint256"
            },
            {
              "internalType": "uint256",
              "name": "pairId",
              "type": "uint256"
            },
            {
              "internalType": "address",
              "name": "owner",
              "type": "address"
            }
          ],
          "indexed": false,
          "internalType": "struct ElvateSubscription.Subscription",
          "name": "subscription",
          "type": "tuple"
        }
      ],
      "name": "SubscriptionEdited",
      "type": "event"
    },
    {
      "inputs": [
        {
          "internalType": "uint256",
          "name": "",
          "type": "uint256"
        }
      ],
      "name": "allSubscriptions",
      "outputs": [
        {
          "internalType": "uint256",
          "name": "amountIn",
          "type": "uint256"
        },
        {
          "internalType": "uint256",
          "name": "pairId",
          "type": "uint256"
        },
        {
          "internalType": "address",
          "name": "owner",
          "type": "address"
        }
      ],
      "stateMutability": "view",
      "type": "function"
    },
    {
      "inputs": [],
      "name": "elvatePairAddress",
      "outputs": [
        {
          "internalType": "address",
          "name": "",
          "type": "address"
        }
      ],
      "stateMutability": "view",
      "type": "function"
    },
    {
      "inputs": [],
      "name": "getAllSubscriptions",
      "outputs": [
        {
          "components": [
            {
              "internalType": "uint256",
              "name": "amountIn",
              "type": "uint256"
            },
            {
              "internalType": "uint256",
              "name": "pairId",
              "type": "uint256"
            },
            {
              "internalType": "address",
              "name": "owner",
              "type": "address"
            }
          ],
          "internalType": "struct ElvateSubscription.Subscription[]",
          "name": "",
          "type": "tuple[]"
        }
      ],
      "stateMutability": "view",
      "type": "function"
    },
    {
      "inputs": [],
      "name": "owner",
      "outputs": [
        {
          "internalType": "address",
          "name": "",
          "type": "address"
        }
      ],
      "stateMutability": "view",
      "type": "function"
    },
    {
      "inputs": [],
      "name": "renounceOwnership",
      "outputs": [],
      "stateMutability": "nonpayable",
      "type": "function"
    },
    {
      "inputs": [
        {
          "internalType": "address",
          "name": "_tokenIn",
          "type": "address"
        },
        {
          "internalType": "address",
          "name": "_tokenOut",
          "type": "address"
        },
        {
          "internalType": "uint256",
          "name": "_amountIn",
          "type": "uint256"
        }
      ],
      "name": "subscribe",
      "outputs": [],
      "stateMutability": "nonpayable",
      "type": "function"
    },
    {
      "inputs": [
        {
          "internalType": "address",
          "name": "",
          "type": "address"
        },
        {
          "internalType": "address",
          "name": "",
          "type": "address"
        },
        {
          "internalType": "address",
          "name": "",
          "type": "address"
        }
      ],
      "name": "subscriptionIdByOwnerTokenInTokenOut",
      "outputs": [
        {
          "internalType": "uint256",
          "name": "",
          "type": "uint256"
        }
      ],
      "stateMutability": "view",
      "type": "function"
    },
    {
      "inputs": [
        {
          "internalType": "address",
          "name": "newOwner",
          "type": "address"
        }
      ],
      "name": "transferOwnership",
      "outputs": [],
      "stateMutability": "nonpayable",
      "type": "function"
    },
    {
      "inputs": [
        {
          "internalType": "address",
          "name": "_elvatePairAddress",
          "type": "address"
        }
      ],
      "name": "updateElvatePairAddress",
      "outputs": [],
      "stateMutability": "nonpayable",
      "type": "function"
    }
  ],
  "bytecode": "0x608060405234801561001057600080fd5b5061002d61002261003260201b60201c565b61003a60201b60201c565b6100fe565b600033905090565b60008060009054906101000a900473ffffffffffffffffffffffffffffffffffffffff169050816000806101000a81548173ffffffffffffffffffffffffffffffffffffffff021916908373ffffffffffffffffffffffffffffffffffffffff1602179055508173ffffffffffffffffffffffffffffffffffffffff168173ffffffffffffffffffffffffffffffffffffffff167f8be0079c531659141344cd1fd0a4f28419497f9722a3daafe3b4186f6b6457e060405160405180910390a35050565b61133d8061010d6000396000f3fe608060405234801561001057600080fd5b50600436106100935760003560e01c806356eb00a11161006657806356eb00a114610134578063715018a6146101525780637288ffb31461015c5780638da5cb5b14610178578063f2fde38b1461019657610093565b806348992430146100985780634f95bcb6146100c8578063518bb384146100fa578063524f134414610118575b600080fd5b6100b260048036038101906100ad9190610cff565b6101b2565b6040516100bf9190611092565b60405180910390f35b6100e260048036038101906100dd9190610d9d565b6101e4565b6040516100f1939291906110ad565b60405180910390f35b61010261023e565b60405161010f9190610fb1565b60405180910390f35b610132600480360381019061012d9190610cd6565b610264565b005b61013c610324565b6040516101499190610ff5565b60405180910390f35b61015a6103ed565b005b61017660048036038101906101719190610d4e565b610475565b005b6101806109f3565b60405161018d9190610fb1565b60405180910390f35b6101b060048036038101906101ab9190610cd6565b610a1c565b005b600260205282600052604060002060205281600052604060002060205280600052604060002060009250925050505481565b600181815481106101f457600080fd5b90600052602060002090600302016000915090508060000154908060010154908060020160009054906101000a900473ffffffffffffffffffffffffffffffffffffffff16905083565b600360009054906101000a900473ffffffffffffffffffffffffffffffffffffffff1681565b61026c610b14565b73ffffffffffffffffffffffffffffffffffffffff1661028a6109f3565b73ffffffffffffffffffffffffffffffffffffffff16146102e0576040517f08c379a00000000000000000000000000000000000000000000000000000000081526004016102d790611057565b60405180910390fd5b80600360006101000a81548173ffffffffffffffffffffffffffffffffffffffff021916908373ffffffffffffffffffffffffffffffffffffffff16021790555050565b60606001805480602002602001604051908101604052809291908181526020016000905b828210156103e4578382906000526020600020906003020160405180606001604052908160008201548152602001600182015481526020016002820160009054906101000a900473ffffffffffffffffffffffffffffffffffffffff1673ffffffffffffffffffffffffffffffffffffffff1673ffffffffffffffffffffffffffffffffffffffff168152505081526020019060010190610348565b50505050905090565b6103f5610b14565b73ffffffffffffffffffffffffffffffffffffffff166104136109f3565b73ffffffffffffffffffffffffffffffffffffffff1614610469576040517f08c379a000000000000000000000000000000000000000000000000000000000815260040161046090611057565b60405180910390fd5b6104736000610b1c565b565b60006104818484610be0565b9050600081116104c6576040517f08c379a00000000000000000000000000000000000000000000000000000000081526004016104bd90611017565b60405180910390fd5b6000600260003373ffffffffffffffffffffffffffffffffffffffff1673ffffffffffffffffffffffffffffffffffffffff16815260200190815260200160002060008673ffffffffffffffffffffffffffffffffffffffff1673ffffffffffffffffffffffffffffffffffffffff16815260200190815260200160002060008573ffffffffffffffffffffffffffffffffffffffff1673ffffffffffffffffffffffffffffffffffffffff1681526020019081526020016000205411156107e35781600180600260003373ffffffffffffffffffffffffffffffffffffffff1673ffffffffffffffffffffffffffffffffffffffff16815260200190815260200160002060008873ffffffffffffffffffffffffffffffffffffffff1673ffffffffffffffffffffffffffffffffffffffff16815260200190815260200160002060008773ffffffffffffffffffffffffffffffffffffffff1673ffffffffffffffffffffffffffffffffffffffff16815260200190815260200160002054610650919061112e565b81548110610687577f4e487b7100000000000000000000000000000000000000000000000000000000600052603260045260246000fd5b9060005260206000209060030201600001819055507f7cf8aac289e43d52e5c3522826cfe66783f0505f2d6870bd0f9a7fbe635bda2e600180600260003373ffffffffffffffffffffffffffffffffffffffff1673ffffffffffffffffffffffffffffffffffffffff16815260200190815260200160002060008873ffffffffffffffffffffffffffffffffffffffff1673ffffffffffffffffffffffffffffffffffffffff16815260200190815260200160002060008773ffffffffffffffffffffffffffffffffffffffff1673ffffffffffffffffffffffffffffffffffffffff16815260200190815260200160002054610784919061112e565b815481106107bb577f4e487b7100000000000000000000000000000000000000000000000000000000600052603260045260246000fd5b90600052602060002090600302016040516107d69190611077565b60405180910390a16109ed565b600160405180606001604052808481526020018381526020013373ffffffffffffffffffffffffffffffffffffffff168152509080600181540180825580915050600190039060005260206000209060030201600090919091909150600082015181600001556020820151816001015560408201518160020160006101000a81548173ffffffffffffffffffffffffffffffffffffffff021916908373ffffffffffffffffffffffffffffffffffffffff1602179055505050600180549050600260003373ffffffffffffffffffffffffffffffffffffffff1673ffffffffffffffffffffffffffffffffffffffff16815260200190815260200160002060008673ffffffffffffffffffffffffffffffffffffffff1673ffffffffffffffffffffffffffffffffffffffff16815260200190815260200160002060008573ffffffffffffffffffffffffffffffffffffffff1673ffffffffffffffffffffffffffffffffffffffff168152602001908152602001600020819055507faa91d567e15c1e2016a3709246e28c04ee43b0b8a33e0d21c99c7f9b751793b46001808080549050610992919061112e565b815481106109c9577f4e487b7100000000000000000000000000000000000000000000000000000000600052603260045260246000fd5b90600052602060002090600302016040516109e49190611077565b60405180910390a15b50505050565b60008060009054906101000a900473ffffffffffffffffffffffffffffffffffffffff16905090565b610a24610b14565b73ffffffffffffffffffffffffffffffffffffffff16610a426109f3565b73ffffffffffffffffffffffffffffffffffffffff1614610a98576040517f08c379a0000000000000000000000000000000000000000000000000000000008152600401610a8f90611057565b60405180910390fd5b600073ffffffffffffffffffffffffffffffffffffffff168173ffffffffffffffffffffffffffffffffffffffff161415610b08576040517f08c379a0000000000000000000000000000000000000000000000000000000008152600401610aff90611037565b60405180910390fd5b610b1181610b1c565b50565b600033905090565b60008060009054906101000a900473ffffffffffffffffffffffffffffffffffffffff169050816000806101000a81548173ffffffffffffffffffffffffffffffffffffffff021916908373ffffffffffffffffffffffffffffffffffffffff1602179055508173ffffffffffffffffffffffffffffffffffffffff168173ffffffffffffffffffffffffffffffffffffffff167f8be0079c531659141344cd1fd0a4f28419497f9722a3daafe3b4186f6b6457e060405160405180910390a35050565b6000600360009054906101000a900473ffffffffffffffffffffffffffffffffffffffff1673ffffffffffffffffffffffffffffffffffffffff1663371131bc84846040518363ffffffff1660e01b8152600401610c3f929190610fcc565b60206040518083038186803b158015610c5757600080fd5b505afa158015610c6b573d6000803e3d6000fd5b505050506040513d601f19601f82011682018060405250810190610c8f9190610dc6565b905092915050565b600081359050610ca6816112d9565b92915050565b600081359050610cbb816112f0565b92915050565b600081519050610cd0816112f0565b92915050565b600060208284031215610ce857600080fd5b6000610cf684828501610c97565b91505092915050565b600080600060608486031215610d1457600080fd5b6000610d2286828701610c97565b9350506020610d3386828701610c97565b9250506040610d4486828701610c97565b9150509250925092565b600080600060608486031215610d6357600080fd5b6000610d7186828701610c97565b9350506020610d8286828701610c97565b9250506040610d9386828701610cac565b9150509250925092565b600060208284031215610daf57600080fd5b6000610dbd84828501610cac565b91505092915050565b600060208284031215610dd857600080fd5b6000610de684828501610cc1565b91505092915050565b6000610dfb8383610eec565b60608301905092915050565b610e108161118c565b82525050565b610e1f8161118c565b82525050565b6000610e30826110f4565b610e3a818561110c565b9350610e45836110e4565b8060005b83811015610e76578151610e5d8882610def565b9750610e68836110ff565b925050600181019050610e49565b5085935050505092915050565b6000610e90600c8361111d565b9150610e9b82611238565b602082019050919050565b6000610eb360268361111d565b9150610ebe82611261565b604082019050919050565b6000610ed660208361111d565b9150610ee1826112b0565b602082019050919050565b606082016000820151610f026000850182610f93565b506020820151610f156020850182610f93565b506040820151610f286040850182610e07565b50505050565b606082016000808301549050610f43816111e2565b610f506000860182610f93565b5060018301549050610f61816111e2565b610f6e6020860182610f93565b5060028301549050610f7f816111c8565b610f8c6040860182610e07565b5050505050565b610f9c816111be565b82525050565b610fab816111be565b82525050565b6000602082019050610fc66000830184610e16565b92915050565b6000604082019050610fe16000830185610e16565b610fee6020830184610e16565b9392505050565b6000602082019050818103600083015261100f8184610e25565b905092915050565b6000602082019050818103600083015261103081610e83565b9050919050565b6000602082019050818103600083015261105081610ea6565b9050919050565b6000602082019050818103600083015261107081610ec9565b9050919050565b600060608201905061108c6000830184610f2e565b92915050565b60006020820190506110a76000830184610fa2565b92915050565b60006060820190506110c26000830186610fa2565b6110cf6020830185610fa2565b6110dc6040830184610e16565b949350505050565b6000819050602082019050919050565b600081519050919050565b6000602082019050919050565b600082825260208201905092915050565b600082825260208201905092915050565b6000611139826111be565b9150611144836111be565b925082821015611157576111566111fc565b5b828203905092915050565b600073ffffffffffffffffffffffffffffffffffffffff82169050919050565b6000819050919050565b60006111978261119e565b9050919050565b600073ffffffffffffffffffffffffffffffffffffffff82169050919050565b6000819050919050565b60006111db6111d68361122b565b611162565b9050919050565b60006111f56111f08361122b565b611182565b9050919050565b7f4e487b7100000000000000000000000000000000000000000000000000000000600052601160045260246000fd5b60008160001c9050919050565b7f496e76616c696420706169720000000000000000000000000000000000000000600082015250565b7f4f776e61626c653a206e6577206f776e657220697320746865207a65726f206160008201527f6464726573730000000000000000000000000000000000000000000000000000602082015250565b7f4f776e61626c653a2063616c6c6572206973206e6f7420746865206f776e6572600082015250565b6112e28161118c565b81146112ed57600080fd5b50565b6112f9816111be565b811461130457600080fd5b5056fea264697066735822122026da03e23f632f360c5deb83111388846251fee378f22c1d13b1faa538da7f5564736f6c63430008010033",
  "linkReferences": {},
  "deployedLinkReferences": {}
}