{
  "_format": "hh-sol-artifact-1",
  "contractName": "TestElvateCore",
  "sourceName": "contracts/test/TestElvateCore.sol",
  "abi": [
    {
      "anonymous": false,
      "inputs": [
        {
          "indexed": true,
          "internalType": "address",
          "name": "previousOwner",
          "type": "address"
        },
        {
          "indexed": true,
          "internalType": "address",
          "name": "newOwner",
          "type": "address"
        }
      ],
      "name": "OwnershipTransferred",
      "type": "event"
    },
    {
      "anonymous": false,
      "inputs": [
        {
          "indexed": true,
          "internalType": "uint256",
          "name": "pairId",
          "type": "uint256"
        },
        {
          "indexed": false,
          "internalType": "uint256",
          "name": "lastPaidAt",
          "type": "uint256"
        },
        {
          "indexed": false,
          "internalType": "uint256",
          "name": "totalSubscriptions",
          "type": "uint256"
        },
        {
          "indexed": false,
          "internalType": "uint256",
          "name": "totalAmountIn",
          "type": "uint256"
        },
        {
          "indexed": false,
          "internalType": "uint256",
          "name": "totalAmountOut",
          "type": "uint256"
        },
        {
          "indexed": false,
          "internalType": "uint256",
          "name": "fees",
          "type": "uint256"
        }
      ],
      "name": "PairTriggered",
      "type": "event"
    },
    {
      "anonymous": false,
      "inputs": [
        {
          "indexed": true,
          "internalType": "address",
          "name": "_owner",
          "type": "address"
        },
        {
          "indexed": true,
          "internalType": "address",
          "name": "_token",
          "type": "address"
        },
        {
          "indexed": false,
          "internalType": "uint256",
          "name": "_amount",
          "type": "uint256"
        }
      ],
      "name": "TokenDeposited",
      "type": "event"
    },
    {
      "anonymous": false,
      "inputs": [
        {
          "indexed": true,
          "internalType": "address",
          "name": "_owner",
          "type": "address"
        },
        {
          "indexed": true,
          "internalType": "address",
          "name": "_token",
          "type": "address"
        },
        {
          "indexed": false,
          "internalType": "uint256",
          "name": "_amount",
          "type": "uint256"
        }
      ],
      "name": "TokenWithdrawal",
      "type": "event"
    },
    {
      "inputs": [
        {
          "internalType": "uint256",
          "name": "_totalAmountOut",
          "type": "uint256"
        },
        {
          "internalType": "address",
          "name": "_tokenOut",
          "type": "address"
        }
      ],
      "name": "deductFees",
      "outputs": [
        {
          "internalType": "uint256",
          "name": "",
          "type": "uint256"
        }
      ],
      "stateMutability": "nonpayable",
      "type": "function"
    },
    {
      "inputs": [],
      "name": "deposit",
      "outputs": [],
      "stateMutability": "payable",
      "type": "function"
    },
    {
      "inputs": [
        {
          "internalType": "address",
          "name": "",
          "type": "address"
        },
        {
          "internalType": "address",
          "name": "",
          "type": "address"
        }
      ],
      "name": "depositByOwnerByToken",
      "outputs": [
        {
          "internalType": "uint256",
          "name": "",
          "type": "uint256"
        }
      ],
      "stateMutability": "view",
      "type": "function"
    },
    {
      "inputs": [
        {
          "internalType": "address",
          "name": "",
          "type": "address"
        },
        {
          "internalType": "address",
          "name": "",
          "type": "address"
        }
      ],
      "name": "depositByUserByToken",
      "outputs": [
        {
          "internalType": "uint256",
          "name": "",
          "type": "uint256"
        }
      ],
      "stateMutability": "view",
      "type": "function"
    },
    {
      "inputs": [
        {
          "internalType": "address",
          "name": "_token",
          "type": "address"
        },
        {
          "internalType": "uint256",
          "name": "_amount",
          "type": "uint256"
        }
      ],
      "name": "depositToken",
      "outputs": [],
      "stateMutability": "nonpayable",
      "type": "function"
    },
    {
      "inputs": [
        {
          "internalType": "address",
          "name": "_tokenIn",
          "type": "address"
        },
        {
          "internalType": "address",
          "name": "_tokenOut",
          "type": "address"
        },
        {
          "internalType": "uint256[]",
          "name": "_eligibleSubscriptions",
          "type": "uint256[]"
        },
        {
          "internalType": "uint256",
          "name": "eligibleSubscriptionsLength",
          "type": "uint256"
        },
        {
          "internalType": "uint256",
          "name": "_totalAmountIn",
          "type": "uint256"
        },
        {
          "internalType": "uint256",
          "name": "_totalAmountOut",
          "type": "uint256"
        }
      ],
      "name": "distributeSwap",
      "outputs": [],
      "stateMutability": "nonpayable",
      "type": "function"
    },
    {
      "inputs": [],
      "name": "frequency",
      "outputs": [
        {
          "internalType": "uint256",
          "name": "",
          "type": "uint256"
        }
      ],
      "stateMutability": "view",
      "type": "function"
    },
    {
      "inputs": [
        {
          "internalType": "address",
          "name": "_owner",
          "type": "address"
        },
        {
          "internalType": "address",
          "name": "_token",
          "type": "address"
        }
      ],
      "name": "getDepositedToken",
      "outputs": [
        {
          "internalType": "uint256",
          "name": "",
          "type": "uint256"
        }
      ],
      "stateMutability": "view",
      "type": "function"
    },
    {
      "inputs": [
        {
          "internalType": "address",
          "name": "_tokenIn",
          "type": "address"
        },
        {
          "internalType": "address",
          "name": "_tokenOut",
          "type": "address"
        }
      ],
      "name": "getEligibleSubscription",
      "outputs": [
        {
          "internalType": "uint256[]",
          "name": "",
          "type": "uint256[]"
        },
        {
          "internalType": "uint256",
          "name": "",
          "type": "uint256"
        },
        {
          "internalType": "uint256",
          "name": "",
          "type": "uint256"
        }
      ],
      "stateMutability": "view",
      "type": "function"
    },
    {
      "inputs": [
        {
          "internalType": "address",
          "name": "_tokenIn",
          "type": "address"
        },
        {
          "internalType": "address",
          "name": "_tokenOut",
          "type": "address"
        }
      ],
      "name": "getPath",
      "outputs": [
        {
          "internalType": "address[]",
          "name": "",
          "type": "address[]"
        }
      ],
      "stateMutability": "view",
      "type": "function"
    },
    {
      "inputs": [],
      "name": "owner",
      "outputs": [
        {
          "internalType": "address",
          "name": "",
          "type": "address"
        }
      ],
      "stateMutability": "view",
      "type": "function"
    },
    {
      "inputs": [],
      "name": "pairContractAddress",
      "outputs": [
        {
          "internalType": "address",
          "name": "",
          "type": "address"
        }
      ],
      "stateMutability": "view",
      "type": "function"
    },
    {
      "inputs": [],
      "name": "precision",
      "outputs": [
        {
          "internalType": "uint128",
          "name": "",
          "type": "uint128"
        }
      ],
      "stateMutability": "view",
      "type": "function"
    },
    {
      "inputs": [],
      "name": "renounceOwnership",
      "outputs": [],
      "stateMutability": "nonpayable",
      "type": "function"
    },
    {
      "inputs": [],
      "name": "routerContractAddress",
      "outputs": [
        {
          "internalType": "address",
          "name": "",
          "type": "address"
        }
      ],
      "stateMutability": "view",
      "type": "function"
    },
    {
      "inputs": [],
      "name": "subscriptionContractAddress",
      "outputs": [
        {
          "internalType": "address",
          "name": "",
          "type": "address"
        }
      ],
      "stateMutability": "view",
      "type": "function"
    },
    {
      "inputs": [],
      "name": "swapFee",
      "outputs": [
        {
          "internalType": "uint16",
          "name": "",
          "type": "uint16"
        }
      ],
      "stateMutability": "view",
      "type": "function"
    },
    {
      "inputs": [
        {
          "internalType": "address",
          "name": "newOwner",
          "type": "address"
        }
      ],
      "name": "transferOwnership",
      "outputs": [],
      "stateMutability": "nonpayable",
      "type": "function"
    },
    {
      "inputs": [
        {
          "internalType": "address",
          "name": "_tokenIn",
          "type": "address"
        },
        {
          "internalType": "address",
          "name": "_tokenOut",
          "type": "address"
        }
      ],
      "name": "trigger",
      "outputs": [],
      "stateMutability": "nonpayable",
      "type": "function"
    },
    {
      "inputs": [
        {
          "internalType": "address",
          "name": "_routerContractAddress",
          "type": "address"
        },
        {
          "internalType": "address",
          "name": "_pairContractAddress",
          "type": "address"
        },
        {
          "internalType": "address",
          "name": "_subscriptionContractAddress",
          "type": "address"
        },
        {
          "internalType": "address",
          "name": "_wrappedContractAddress",
          "type": "address"
        }
      ],
      "name": "updateContractAddresses",
      "outputs": [],
      "stateMutability": "nonpayable",
      "type": "function"
    },
    {
      "inputs": [
        {
          "internalType": "address",
          "name": "_token",
          "type": "address"
        },
        {
          "internalType": "uint256",
          "name": "_amount",
          "type": "uint256"
        }
      ],
      "name": "withdrawToken",
      "outputs": [],
      "stateMutability": "nonpayable",
      "type": "function"
    },
    {
      "inputs": [],
      "name": "wrappedContractAddress",
      "outputs": [
        {
          "internalType": "address",
          "name": "",
          "type": "address"
        }
      ],
      "stateMutability": "view",
      "type": "function"
    }
  ],
  "bytecode": "0x608060405266038d7ea4c68000600660006101000a8154816fffffffffffffffffffffffffffffffff02191690836fffffffffffffffffffffffffffffffff1602179055506101686007556005600860006101000a81548161ffff021916908361ffff1602179055503480156200007557600080fd5b50620000966200008a6200009c60201b60201c565b620000a460201b60201c565b62000168565b600033905090565b60008060009054906101000a900473ffffffffffffffffffffffffffffffffffffffff169050816000806101000a81548173ffffffffffffffffffffffffffffffffffffffff021916908373ffffffffffffffffffffffffffffffffffffffff1602179055508173ffffffffffffffffffffffffffffffffffffffff168173ffffffffffffffffffffffffffffffffffffffff167f8be0079c531659141344cd1fd0a4f28419497f9722a3daafe3b4186f6b6457e060405160405180910390a35050565b613b7280620001786000396000f3fe6080604052600436106101355760003560e01c8063b92814d8116100ab578063ead50da31161006f578063ead50da3146103f3578063f03bf0b11461041e578063f2fde38b1461045d578063f73bc05314610486578063f940389e146104b1578063fe5eded8146104dc57610135565b8063b92814d81461031b578063c88f1a7a14610344578063d0e30db014610381578063d3b5dc3b1461038b578063d88e3e3b146103b657610135565b80636dfcf1b3116100fd5780636dfcf1b314610233578063715018a61461025e5780637e743685146102755780638a61809c1461029e5780638da5cb5b146102c75780639e281a98146102f257610135565b80630d9e45881461013a57806317801b301461017757806324e0bcd1146101a2578063338b5dea146101df57806354cf2aeb14610208575b600080fd5b34801561014657600080fd5b50610161600480360381019061015c9190612a72565b610519565b60405161016e91906133d5565b60405180910390f35b34801561018357600080fd5b5061018c6105a0565b60405161019991906130f9565b60405180910390f35b3480156101ae57600080fd5b506101c960048036038101906101c49190612d03565b6105c6565b6040516101d691906133d5565b60405180910390f35b3480156101eb57600080fd5b5061020660048036038101906102019190612bb2565b6105da565b005b34801561021457600080fd5b5061021d610703565b60405161022a91906133ba565b60405180910390f35b34801561023f57600080fd5b50610248610717565b60405161025591906130f9565b60405180910390f35b34801561026a57600080fd5b5061027361073d565b005b34801561028157600080fd5b5061029c60048036038101906102979190612b11565b6107c5565b005b3480156102aa57600080fd5b506102c560048036038101906102c09190612aae565b6107db565b005b3480156102d357600080fd5b506102dc610961565b6040516102e991906130f9565b60405180910390f35b3480156102fe57600080fd5b5061031960048036038101906103149190612bb2565b61098a565b005b34801561032757600080fd5b50610342600480360381019061033d9190612a72565b610ab1565b005b34801561035057600080fd5b5061036b60048036038101906103669190612a72565b610fd1565b60405161037891906133d5565b60405180910390f35b610389610ff6565b005b34801561039757600080fd5b506103a06111b7565b6040516103ad919061339f565b60405180910390f35b3480156103c257600080fd5b506103dd60048036038101906103d89190612a72565b6111d9565b6040516103ea919061319d565b60405180910390f35b3480156103ff57600080fd5b506104086111ed565b60405161041591906133d5565b60405180910390f35b34801561042a57600080fd5b5061044560048036038101906104409190612a72565b6111f3565b604051610454939291906131bf565b60405180910390f35b34801561046957600080fd5b50610484600480360381019061047f9190612a49565b611688565b005b34801561049257600080fd5b5061049b611780565b6040516104a891906130f9565b60405180910390f35b3480156104bd57600080fd5b506104c66117a6565b6040516104d391906130f9565b60405180910390f35b3480156104e857600080fd5b5061050360048036038101906104fe9190612a72565b6117cc565b60405161051091906133d5565b60405180910390f35b6000600260008473ffffffffffffffffffffffffffffffffffffffff1673ffffffffffffffffffffffffffffffffffffffff16815260200190815260200160002060008373ffffffffffffffffffffffffffffffffffffffff1673ffffffffffffffffffffffffffffffffffffffff16815260200190815260200160002054905092915050565b600460009054906101000a900473ffffffffffffffffffffffffffffffffffffffff1681565b60006105d283836117f1565b905092915050565b6106073330838573ffffffffffffffffffffffffffffffffffffffff16611902909392919063ffffffff16565b80600260003373ffffffffffffffffffffffffffffffffffffffff1673ffffffffffffffffffffffffffffffffffffffff16815260200190815260200160002060008473ffffffffffffffffffffffffffffffffffffffff1673ffffffffffffffffffffffffffffffffffffffff168152602001908152602001600020600082825461069391906135c7565b925050819055508173ffffffffffffffffffffffffffffffffffffffff163373ffffffffffffffffffffffffffffffffffffffff167ff1444b5cad7ce70cb018d1b8edc8618fe303f3c7f034d8d572a6e27facbf2bef836040516106f791906133d5565b60405180910390a35050565b600860009054906101000a900461ffff1681565b600560009054906101000a900473ffffffffffffffffffffffffffffffffffffffff1681565b61074561198b565b73ffffffffffffffffffffffffffffffffffffffff16610763610961565b73ffffffffffffffffffffffffffffffffffffffff16146107b9576040517f08c379a00000000000000000000000000000000000000000000000000000000081526004016107b0906132ff565b60405180910390fd5b6107c36000611993565b565b6107d3868686868686611a57565b505050505050565b6107e361198b565b73ffffffffffffffffffffffffffffffffffffffff16610801610961565b73ffffffffffffffffffffffffffffffffffffffff1614610857576040517f08c379a000000000000000000000000000000000000000000000000000000000815260040161084e906132ff565b60405180910390fd5b83600360006101000a81548173ffffffffffffffffffffffffffffffffffffffff021916908373ffffffffffffffffffffffffffffffffffffffff16021790555082600460006101000a81548173ffffffffffffffffffffffffffffffffffffffff021916908373ffffffffffffffffffffffffffffffffffffffff16021790555081600560006101000a81548173ffffffffffffffffffffffffffffffffffffffff021916908373ffffffffffffffffffffffffffffffffffffffff16021790555080600160006101000a81548173ffffffffffffffffffffffffffffffffffffffff021916908373ffffffffffffffffffffffffffffffffffffffff16021790555050505050565b60008060009054906101000a900473ffffffffffffffffffffffffffffffffffffffff16905090565b6109b533828473ffffffffffffffffffffffffffffffffffffffff16611f979092919063ffffffff16565b80600260003373ffffffffffffffffffffffffffffffffffffffff1673ffffffffffffffffffffffffffffffffffffffff16815260200190815260200160002060008473ffffffffffffffffffffffffffffffffffffffff1673ffffffffffffffffffffffffffffffffffffffff1681526020019081526020016000206000828254610a4191906136a8565b925050819055508173ffffffffffffffffffffffffffffffffffffffff163373ffffffffffffffffffffffffffffffffffffffff167f42856d0378dde02337bb59ae41747abc77ded8ebdbbc5cbdd1e53693b755493883604051610aa591906133d5565b60405180910390a35050565b60606000806000610ac2868661201d565b90506060600460009054906101000a900473ffffffffffffffffffffffffffffffffffffffff1673ffffffffffffffffffffffffffffffffffffffff1663b92814d888886040518363ffffffff1660e01b8152600401610b23929190613114565b600060405180830381600087803b158015610b3d57600080fd5b505af1158015610b51573d6000803e3d6000fd5b50505050610b5f87876111f3565b80955081965082975050505060008311610bae576040517f08c379a0000000000000000000000000000000000000000000000000000000008152600401610ba59061337f565b60405180910390fd5b8673ffffffffffffffffffffffffffffffffffffffff1663095ea7b3600360009054906101000a900473ffffffffffffffffffffffffffffffffffffffff16866040518363ffffffff1660e01b8152600401610c0b929190613174565b602060405180830381600087803b158015610c2557600080fd5b505af1158015610c39573d6000803e3d6000fd5b505050506040513d601f19601f82011682018060405250810190610c5d9190612cb1565b610c9c576040517f08c379a0000000000000000000000000000000000000000000000000000000008152600401610c939061329f565b60405180910390fd5b60008773ffffffffffffffffffffffffffffffffffffffff1663dd62ed3e30600360009054906101000a900473ffffffffffffffffffffffffffffffffffffffff166040518363ffffffff1660e01b8152600401610cfb929190613114565b60206040518083038186803b158015610d1357600080fd5b505afa158015610d27573d6000803e3d6000fd5b505050506040513d601f19601f82011682018060405250810190610d4b9190612cda565b905084811015610d90576040517f08c379a0000000000000000000000000000000000000000000000000000000008152600401610d879061323f565b60405180910390fd5b6000600360009054906101000a900473ffffffffffffffffffffffffffffffffffffffff1673ffffffffffffffffffffffffffffffffffffffff1663d06ca61f87866040518363ffffffff1660e01b8152600401610def9291906133f0565b60006040518083038186803b158015610e0757600080fd5b505afa158015610e1b573d6000803e3d6000fd5b505050506040513d6000823e3d601f19601f82011682018060405250810190610e449190612c70565b9050600360009054906101000a900473ffffffffffffffffffffffffffffffffffffffff1673ffffffffffffffffffffffffffffffffffffffff166338ed1739878360018551610e9491906136a8565b81518110610ecb577f4e487b7100000000000000000000000000000000000000000000000000000000600052603260045260246000fd5b6020026020010151873061271042610ee391906135c7565b6040518663ffffffff1660e01b8152600401610f03959493929190613420565b600060405180830381600087803b158015610f1d57600080fd5b505af1158015610f31573d6000803e3d6000fd5b505050506040513d6000823e3d601f19601f82011682018060405250810190610f5a9190612c70565b92506000610fb58460018651610f7091906136a8565b81518110610fa7577f4e487b7100000000000000000000000000000000000000000000000000000000600052603260045260246000fd5b60200260200101518a6117f1565b9050610fc58a8a8a898b86611a57565b50505050505050505050565b6009602052816000526040600020602052806000526040600020600091509150505481565b600160009054906101000a900473ffffffffffffffffffffffffffffffffffffffff1673ffffffffffffffffffffffffffffffffffffffff1663d0e30db0346040518263ffffffff1660e01b81526004016000604051808303818588803b15801561106057600080fd5b505af1158015611074573d6000803e3d6000fd5b505050505034600260003373ffffffffffffffffffffffffffffffffffffffff1673ffffffffffffffffffffffffffffffffffffffff1681526020019081526020016000206000600160009054906101000a900473ffffffffffffffffffffffffffffffffffffffff1673ffffffffffffffffffffffffffffffffffffffff1673ffffffffffffffffffffffffffffffffffffffff168152602001908152602001600020600082825461112791906135c7565b92505081905550600160009054906101000a900473ffffffffffffffffffffffffffffffffffffffff1673ffffffffffffffffffffffffffffffffffffffff163373ffffffffffffffffffffffffffffffffffffffff167ff1444b5cad7ce70cb018d1b8edc8618fe303f3c7f034d8d572a6e27facbf2bef346040516111ad91906133d5565b60405180910390a3565b600660009054906101000a90046fffffffffffffffffffffffffffffffff1681565b60606111e5838361201d565b905092915050565b60075481565b60606000806000806000600460009054906101000a900473ffffffffffffffffffffffffffffffffffffffff1673ffffffffffffffffffffffffffffffffffffffff1663371131bc89896040518363ffffffff1660e01b815260040161125a929190613114565b60206040518083038186803b15801561127257600080fd5b505afa158015611286573d6000803e3d6000fd5b505050506040513d601f19601f820116820180604052508101906112aa9190612cda565b90506000600460009054906101000a900473ffffffffffffffffffffffffffffffffffffffff1673ffffffffffffffffffffffffffffffffffffffff1663f800ece96040518163ffffffff1660e01b815260040160006040518083038186803b15801561131657600080fd5b505afa15801561132a573d6000803e3d6000fd5b505050506040513d6000823e3d601f19601f820116820180604052508101906113539190612bee565b90506000600560009054906101000a900473ffffffffffffffffffffffffffffffffffffffff1673ffffffffffffffffffffffffffffffffffffffff166356eb00a16040518163ffffffff1660e01b815260040160006040518083038186803b1580156113bf57600080fd5b505afa1580156113d3573d6000803e3d6000fd5b505050506040513d6000823e3d601f19601f820116820180604052508101906113fc9190612c2f565b90506000815167ffffffffffffffff811115611441577f4e487b7100000000000000000000000000000000000000000000000000000000600052604160045260246000fd5b60405190808252806020026020018201604052801561146f5781602001602082028036833780820191505090505b50905060005b825181101561167157848382815181106114b8577f4e487b7100000000000000000000000000000000000000000000000000000000600052603260045260246000fd5b6020026020010151602001511480156115b25750828181518110611505577f4e487b7100000000000000000000000000000000000000000000000000000000600052603260045260246000fd5b6020026020010151600001516115af84838151811061154d577f4e487b7100000000000000000000000000000000000000000000000000000000600052603260045260246000fd5b6020026020010151604001518660018961156791906136a8565b8151811061159e577f4e487b7100000000000000000000000000000000000000000000000000000000600052603260045260246000fd5b602002602001015160400151610519565b10155b1561165e57808288815181106115f1577f4e487b7100000000000000000000000000000000000000000000000000000000600052603260045260246000fd5b602002602001018181525050828181518110611636577f4e487b7100000000000000000000000000000000000000000000000000000000600052603260045260246000fd5b6020026020010151600001518661164d91906135c7565b9550868061165a906137b2565b9750505b8080611669906137b2565b915050611475565b508085879850985098505050505050509250925092565b61169061198b565b73ffffffffffffffffffffffffffffffffffffffff166116ae610961565b73ffffffffffffffffffffffffffffffffffffffff1614611704576040517f08c379a00000000000000000000000000000000000000000000000000000000081526004016116fb906132ff565b60405180910390fd5b600073ffffffffffffffffffffffffffffffffffffffff168173ffffffffffffffffffffffffffffffffffffffff161415611774576040517f08c379a000000000000000000000000000000000000000000000000000000000815260040161176b9061321f565b60405180910390fd5b61177d81611993565b50565b600360009054906101000a900473ffffffffffffffffffffffffffffffffffffffff1681565b600160009054906101000a900473ffffffffffffffffffffffffffffffffffffffff1681565b6002602052816000526040600020602052806000526040600020600091509150505481565b600080612710600860009054906101000a900461ffff1661ffff1685611817919061364e565b611821919061361d565b905080600260003073ffffffffffffffffffffffffffffffffffffffff1673ffffffffffffffffffffffffffffffffffffffff16815260200190815260200160002060008573ffffffffffffffffffffffffffffffffffffffff1673ffffffffffffffffffffffffffffffffffffffff16815260200190815260200160002060008282546118af91906135c7565b925050819055506118e133828573ffffffffffffffffffffffffffffffffffffffff16611f979092919063ffffffff16565b6002816118ee919061364e565b846118f991906136a8565b91505092915050565b611985846323b872dd60e01b8585856040516024016119239392919061313d565b604051602081830303815290604052907bffffffffffffffffffffffffffffffffffffffffffffffffffffffff19166020820180517bffffffffffffffffffffffffffffffffffffffffffffffffffffffff8381831617835250505050612437565b50505050565b600033905090565b60008060009054906101000a900473ffffffffffffffffffffffffffffffffffffffff169050816000806101000a81548173ffffffffffffffffffffffffffffffffffffffff021916908373ffffffffffffffffffffffffffffffffffffffff1602179055508173ffffffffffffffffffffffffffffffffffffffff168173ffffffffffffffffffffffffffffffffffffffff167f8be0079c531659141344cd1fd0a4f28419497f9722a3daafe3b4186f6b6457e060405160405180910390a35050565b6000805b84811015611eac57600080600560009054906101000a900473ffffffffffffffffffffffffffffffffffffffff1673ffffffffffffffffffffffffffffffffffffffff16634f95bcb6898581518110611add577f4e487b7100000000000000000000000000000000000000000000000000000000600052603260045260246000fd5b60200260200101516040518263ffffffff1660e01b8152600401611b0191906133d5565b60606040518083038186803b158015611b1957600080fd5b505afa158015611b2d573d6000803e3d6000fd5b505050506040513d601f19601f82011682018060405250810190611b519190612d3f565b925050915081600260008373ffffffffffffffffffffffffffffffffffffffff1673ffffffffffffffffffffffffffffffffffffffff16815260200190815260200160002060008c73ffffffffffffffffffffffffffffffffffffffff1673ffffffffffffffffffffffffffffffffffffffff168152602001908152602001600020541015611c15576040517f08c379a0000000000000000000000000000000000000000000000000000000008152600401611c0c906132df565b60405180910390fd5b81600260008373ffffffffffffffffffffffffffffffffffffffff1673ffffffffffffffffffffffffffffffffffffffff16815260200190815260200160002060008c73ffffffffffffffffffffffffffffffffffffffff1673ffffffffffffffffffffffffffffffffffffffff1681526020019081526020016000206000828254611ca191906136a8565b9250508190555060008611611ceb576040517f08c379a0000000000000000000000000000000000000000000000000000000008152600401611ce29061331f565b60405180910390fd5b600086600660009054906101000a90046fffffffffffffffffffffffffffffffff166fffffffffffffffffffffffffffffffff1684611d2a919061364e565b611d34919061361d565b90506000600660009054906101000a90046fffffffffffffffffffffffffffffffff166fffffffffffffffffffffffffffffffff1611611da9576040517f08c379a0000000000000000000000000000000000000000000000000000000008152600401611da09061325f565b60405180910390fd5b6000600660009054906101000a90046fffffffffffffffffffffffffffffffff166fffffffffffffffffffffffffffffffff168288611de8919061364e565b611df2919061361d565b905080600260008573ffffffffffffffffffffffffffffffffffffffff1673ffffffffffffffffffffffffffffffffffffffff16815260200190815260200160002060008d73ffffffffffffffffffffffffffffffffffffffff1673ffffffffffffffffffffffffffffffffffffffff1681526020019081526020016000206000828254611e8091906135c7565b925050819055508086611e9391906135c7565b9550505050508080611ea4906137b2565b915050611a5b565b5080821015611ef0576040517f08c379a0000000000000000000000000000000000000000000000000000000008152600401611ee7906132bf565b60405180910390fd5b8082611efc91906136a8565b600260003073ffffffffffffffffffffffffffffffffffffffff1673ffffffffffffffffffffffffffffffffffffffff16815260200190815260200160002060008873ffffffffffffffffffffffffffffffffffffffff1673ffffffffffffffffffffffffffffffffffffffff1681526020019081526020016000206000828254611f8791906135c7565b9250508190555050505050505050565b6120188363a9059cbb60e01b8484604051602401611fb6929190613174565b604051602081830303815290604052907bffffffffffffffffffffffffffffffffffffffffffffffffffffffff19166020820180517bffffffffffffffffffffffffffffffffffffffffffffffffffffffff8381831617835250505050612437565b505050565b6060600160009054906101000a900473ffffffffffffffffffffffffffffffffffffffff1673ffffffffffffffffffffffffffffffffffffffff168373ffffffffffffffffffffffffffffffffffffffff16141580156120cb5750600160009054906101000a900473ffffffffffffffffffffffffffffffffffffffff1673ffffffffffffffffffffffffffffffffffffffff168273ffffffffffffffffffffffffffffffffffffffff1614155b156122ce576000600367ffffffffffffffff811115612113577f4e487b7100000000000000000000000000000000000000000000000000000000600052604160045260246000fd5b6040519080825280602002602001820160405280156121415781602001602082028036833780820191505090505b509050838160008151811061217f577f4e487b7100000000000000000000000000000000000000000000000000000000600052603260045260246000fd5b602002602001019073ffffffffffffffffffffffffffffffffffffffff16908173ffffffffffffffffffffffffffffffffffffffff1681525050600160009054906101000a900473ffffffffffffffffffffffffffffffffffffffff1681600181518110612216577f4e487b7100000000000000000000000000000000000000000000000000000000600052603260045260246000fd5b602002602001019073ffffffffffffffffffffffffffffffffffffffff16908173ffffffffffffffffffffffffffffffffffffffff1681525050828160028151811061228b577f4e487b7100000000000000000000000000000000000000000000000000000000600052603260045260246000fd5b602002602001019073ffffffffffffffffffffffffffffffffffffffff16908173ffffffffffffffffffffffffffffffffffffffff168152505080915050612431565b6000600267ffffffffffffffff811115612311577f4e487b7100000000000000000000000000000000000000000000000000000000600052604160045260246000fd5b60405190808252806020026020018201604052801561233f5781602001602082028036833780820191505090505b509050838160008151811061237d577f4e487b7100000000000000000000000000000000000000000000000000000000600052603260045260246000fd5b602002602001019073ffffffffffffffffffffffffffffffffffffffff16908173ffffffffffffffffffffffffffffffffffffffff168152505082816001815181106123f2577f4e487b7100000000000000000000000000000000000000000000000000000000600052603260045260246000fd5b602002602001019073ffffffffffffffffffffffffffffffffffffffff16908173ffffffffffffffffffffffffffffffffffffffff1681525050809150505b92915050565b6000612499826040518060400160405280602081526020017f5361666545524332303a206c6f772d6c6576656c2063616c6c206661696c65648152508573ffffffffffffffffffffffffffffffffffffffff166124fe9092919063ffffffff16565b90506000815111156124f957808060200190518101906124b99190612cb1565b6124f8576040517f08c379a00000000000000000000000000000000000000000000000000000000081526004016124ef9061335f565b60405180910390fd5b5b505050565b606061250d8484600085612516565b90509392505050565b60608247101561255b576040517f08c379a00000000000000000000000000000000000000000000000000000000081526004016125529061327f565b60405180910390fd5b6125648561262a565b6125a3576040517f08c379a000000000000000000000000000000000000000000000000000000000815260040161259a9061333f565b60405180910390fd5b6000808673ffffffffffffffffffffffffffffffffffffffff1685876040516125cc91906130e2565b60006040518083038185875af1925050503d8060008114612609576040519150601f19603f3d011682016040523d82523d6000602084013e61260e565b606091505b509150915061261e82828661264d565b92505050949350505050565b6000808273ffffffffffffffffffffffffffffffffffffffff163b119050919050565b6060831561265d578290506126ad565b6000835111156126705782518084602001fd5b816040517f08c379a00000000000000000000000000000000000000000000000000000000081526004016126a491906131fd565b60405180910390fd5b9392505050565b60006126c76126c28461349f565b61347a565b905080838252602082019050828560808602820111156126e657600080fd5b60005b8581101561271657816126fc888261294b565b8452602084019350608083019250506001810190506126e9565b5050509392505050565b600061273361272e846134cb565b61347a565b9050808382526020820190508285606086028201111561275257600080fd5b60005b85811015612782578161276888826129bf565b845260208401935060608301925050600181019050612755565b5050509392505050565b600061279f61279a846134f7565b61347a565b905080838252602082019050828560208602820111156127be57600080fd5b60005b858110156127ee57816127d48882612a1f565b8452602084019350602083019250506001810190506127c1565b5050509392505050565b600061280b612806846134f7565b61347a565b9050808382526020820190508285602086028201111561282a57600080fd5b60005b8581101561285a57816128408882612a34565b84526020840193506020830192505060018101905061282d565b5050509392505050565b60008135905061287381613af7565b92915050565b60008151905061288881613af7565b92915050565b600082601f83011261289f57600080fd5b81516128af8482602086016126b4565b91505092915050565b600082601f8301126128c957600080fd5b81516128d9848260208601612720565b91505092915050565b600082601f8301126128f357600080fd5b813561290384826020860161278c565b91505092915050565b600082601f83011261291d57600080fd5b815161292d8482602086016127f8565b91505092915050565b60008151905061294581613b0e565b92915050565b60006080828403121561295d57600080fd5b612967608061347a565b9050600061297784828501612a34565b600083015250602061298b84828501612a34565b602083015250604061299f84828501612879565b60408301525060606129b384828501612879565b60608301525092915050565b6000606082840312156129d157600080fd5b6129db606061347a565b905060006129eb84828501612a34565b60008301525060206129ff84828501612a34565b6020830152506040612a1384828501612879565b60408301525092915050565b600081359050612a2e81613b25565b92915050565b600081519050612a4381613b25565b92915050565b600060208284031215612a5b57600080fd5b6000612a6984828501612864565b91505092915050565b60008060408385031215612a8557600080fd5b6000612a9385828601612864565b9250506020612aa485828601612864565b9150509250929050565b60008060008060808587031215612ac457600080fd5b6000612ad287828801612864565b9450506020612ae387828801612864565b9350506040612af487828801612864565b9250506060612b0587828801612864565b91505092959194509250565b60008060008060008060c08789031215612b2a57600080fd5b6000612b3889828a01612864565b9650506020612b4989828a01612864565b955050604087013567ffffffffffffffff811115612b6657600080fd5b612b7289828a016128e2565b9450506060612b8389828a01612a1f565b9350506080612b9489828a01612a1f565b92505060a0612ba589828a01612a1f565b9150509295509295509295565b60008060408385031215612bc557600080fd5b6000612bd385828601612864565b9250506020612be485828601612a1f565b9150509250929050565b600060208284031215612c0057600080fd5b600082015167ffffffffffffffff811115612c1a57600080fd5b612c268482850161288e565b91505092915050565b600060208284031215612c4157600080fd5b600082015167ffffffffffffffff811115612c5b57600080fd5b612c67848285016128b8565b91505092915050565b600060208284031215612c8257600080fd5b600082015167ffffffffffffffff811115612c9c57600080fd5b612ca88482850161290c565b91505092915050565b600060208284031215612cc357600080fd5b6000612cd184828501612936565b91505092915050565b600060208284031215612cec57600080fd5b6000612cfa84828501612a34565b91505092915050565b60008060408385031215612d1657600080fd5b6000612d2485828601612a1f565b9250506020612d3585828601612864565b9150509250929050565b600080600060608486031215612d5457600080fd5b6000612d6286828701612a34565b9350506020612d7386828701612a34565b9250506040612d8486828701612879565b9150509250925092565b6000612d9a8383612dbe565b60208301905092915050565b6000612db283836130c4565b60208301905092915050565b612dc7816136dc565b82525050565b612dd6816136dc565b82525050565b6000612de782613543565b612df18185613589565b9350612dfc83613523565b8060005b83811015612e2d578151612e148882612d8e565b9750612e1f8361356f565b925050600181019050612e00565b5085935050505092915050565b6000612e458261354e565b612e4f818561359a565b9350612e5a83613533565b8060005b83811015612e8b578151612e728882612da6565b9750612e7d8361357c565b925050600181019050612e5e565b5085935050505092915050565b6000612ea382613559565b612ead81856135ab565b9350612ebd81856020860161374e565b80840191505092915050565b6000612ed482613564565b612ede81856135b6565b9350612eee81856020860161374e565b612ef781613888565b840191505092915050565b6000612f0f6026836135b6565b9150612f1a82613899565b604082019050919050565b6000612f32601e836135b6565b9150612f3d826138e8565b602082019050919050565b6000612f556006836135b6565b9150612f6082613911565b602082019050919050565b6000612f786026836135b6565b9150612f838261393a565b604082019050919050565b6000612f9b600e836135b6565b9150612fa682613989565b602082019050919050565b6000612fbe6006836135b6565b9150612fc9826139b2565b602082019050919050565b6000612fe16006836135b6565b9150612fec826139db565b602082019050919050565b60006130046020836135b6565b915061300f82613a04565b602082019050919050565b60006130276006836135b6565b915061303282613a2d565b602082019050919050565b600061304a601d836135b6565b915061305582613a56565b602082019050919050565b600061306d602a836135b6565b915061307882613a7f565b604082019050919050565b60006130906019836135b6565b915061309b82613ace565b602082019050919050565b6130af816136fa565b82525050565b6130be81613716565b82525050565b6130cd81613744565b82525050565b6130dc81613744565b82525050565b60006130ee8284612e98565b915081905092915050565b600060208201905061310e6000830184612dcd565b92915050565b60006040820190506131296000830185612dcd565b6131366020830184612dcd565b9392505050565b60006060820190506131526000830186612dcd565b61315f6020830185612dcd565b61316c60408301846130d3565b949350505050565b60006040820190506131896000830185612dcd565b61319660208301846130d3565b9392505050565b600060208201905081810360008301526131b78184612ddc565b905092915050565b600060608201905081810360008301526131d98186612e3a565b90506131e860208301856130d3565b6131f560408301846130d3565b949350505050565b600060208201905081810360008301526132178184612ec9565b905092915050565b6000602082019050818103600083015261323881612f02565b9050919050565b6000602082019050818103600083015261325881612f25565b9050919050565b6000602082019050818103600083015261327881612f48565b9050919050565b6000602082019050818103600083015261329881612f6b565b9050919050565b600060208201905081810360008301526132b881612f8e565b9050919050565b600060208201905081810360008301526132d881612fb1565b9050919050565b600060208201905081810360008301526132f881612fd4565b9050919050565b6000602082019050818103600083015261331881612ff7565b9050919050565b600060208201905081810360008301526133388161301a565b9050919050565b600060208201905081810360008301526133588161303d565b9050919050565b6000602082019050818103600083015261337881613060565b9050919050565b6000602082019050818103600083015261339881613083565b9050919050565b60006020820190506133b460008301846130a6565b92915050565b60006020820190506133cf60008301846130b5565b92915050565b60006020820190506133ea60008301846130d3565b92915050565b600060408201905061340560008301856130d3565b81810360208301526134178184612ddc565b90509392505050565b600060a08201905061343560008301886130d3565b61344260208301876130d3565b81810360408301526134548186612ddc565b90506134636060830185612dcd565b61347060808301846130d3565b9695505050505050565b6000613484613495565b90506134908282613781565b919050565b6000604051905090565b600067ffffffffffffffff8211156134ba576134b9613859565b5b602082029050602081019050919050565b600067ffffffffffffffff8211156134e6576134e5613859565b5b602082029050602081019050919050565b600067ffffffffffffffff82111561351257613511613859565b5b602082029050602081019050919050565b6000819050602082019050919050565b6000819050602082019050919050565b600081519050919050565b600081519050919050565b600081519050919050565b600081519050919050565b6000602082019050919050565b6000602082019050919050565b600082825260208201905092915050565b600082825260208201905092915050565b600081905092915050565b600082825260208201905092915050565b60006135d282613744565b91506135dd83613744565b9250827fffffffffffffffffffffffffffffffffffffffffffffffffffffffffffffffff03821115613612576136116137fb565b5b828201905092915050565b600061362882613744565b915061363383613744565b9250826136435761364261382a565b5b828204905092915050565b600061365982613744565b915061366483613744565b9250817fffffffffffffffffffffffffffffffffffffffffffffffffffffffffffffffff048311821515161561369d5761369c6137fb565b5b828202905092915050565b60006136b382613744565b91506136be83613744565b9250828210156136d1576136d06137fb565b5b828203905092915050565b60006136e782613724565b9050919050565b60008115159050919050565b60006fffffffffffffffffffffffffffffffff82169050919050565b600061ffff82169050919050565b600073ffffffffffffffffffffffffffffffffffffffff82169050919050565b6000819050919050565b60005b8381101561376c578082015181840152602081019050613751565b8381111561377b576000848401525b50505050565b61378a82613888565b810181811067ffffffffffffffff821117156137a9576137a8613859565b5b80604052505050565b60006137bd82613744565b91507fffffffffffffffffffffffffffffffffffffffffffffffffffffffffffffffff8214156137f0576137ef6137fb565b5b600182019050919050565b7f4e487b7100000000000000000000000000000000000000000000000000000000600052601160045260246000fd5b7f4e487b7100000000000000000000000000000000000000000000000000000000600052601260045260246000fd5b7f4e487b7100000000000000000000000000000000000000000000000000000000600052604160045260246000fd5b6000601f19601f8301169050919050565b7f4f776e61626c653a206e6577206f776e657220697320746865207a65726f206160008201527f6464726573730000000000000000000000000000000000000000000000000000602082015250565b7f546f6b656e20616c6c6f77616e6365206e6f742073756666696369656e740000600082015250565b7f4572726f72330000000000000000000000000000000000000000000000000000600082015250565b7f416464726573733a20696e73756666696369656e742062616c616e636520666f60008201527f722063616c6c0000000000000000000000000000000000000000000000000000602082015250565b7f617070726f7665206661696c6564000000000000000000000000000000000000600082015250565b7f4572726f72340000000000000000000000000000000000000000000000000000600082015250565b7f4572726f72310000000000000000000000000000000000000000000000000000600082015250565b7f4f776e61626c653a2063616c6c6572206973206e6f7420746865206f776e6572600082015250565b7f4572726f72320000000000000000000000000000000000000000000000000000600082015250565b7f416464726573733a2063616c6c20746f206e6f6e2d636f6e7472616374000000600082015250565b7f5361666545524332303a204552433230206f7065726174696f6e20646964206e60008201527f6f74207375636365656400000000000000000000000000000000000000000000602082015250565b7f4e6f20656c696769626c6520737562736372697074696f6e7300000000000000600082015250565b613b00816136dc565b8114613b0b57600080fd5b50565b613b17816136ee565b8114613b2257600080fd5b50565b613b2e81613744565b8114613b3957600080fd5b5056fea264697066735822122023e686eb0c51e3e3151bc60e60ca8ac03032b04eb0e451897ba864d8126d2d5c64736f6c63430008010033",
  "linkReferences": {},
  "deployedLinkReferences": {}
}