{
  "_format": "hh-sol-artifact-1",
  "contractName": "ElvatePair",
  "sourceName": "contracts/ElvatePair.sol",
  "abi": [
    {
      "anonymous": false,
      "inputs": [
        {
          "indexed": true,
          "internalType": "address",
          "name": "previousOwner",
          "type": "address"
        },
        {
          "indexed": true,
          "internalType": "address",
          "name": "newOwner",
          "type": "address"
        }
      ],
      "name": "OwnershipTransferred",
      "type": "event"
    },
    {
      "anonymous": false,
      "inputs": [
        {
          "indexed": false,
          "internalType": "uint256",
          "name": "_id",
          "type": "uint256"
        },
        {
          "indexed": false,
          "internalType": "address",
          "name": "_tokenIn",
          "type": "address"
        },
        {
          "indexed": false,
          "internalType": "address",
          "name": "_tokenOut",
          "type": "address"
        }
      ],
      "name": "PairCreated",
      "type": "event"
    },
    {
      "anonymous": false,
      "inputs": [
        {
          "indexed": true,
          "internalType": "uint256",
          "name": "pairId",
          "type": "uint256"
        },
        {
          "indexed": false,
          "internalType": "uint256",
          "name": "lastPaidAt",
          "type": "uint256"
        }
      ],
      "name": "PairTriggered",
      "type": "event"
    },
    {
      "inputs": [
        {
          "internalType": "uint256",
          "name": "",
          "type": "uint256"
        }
      ],
      "name": "allPairs",
      "outputs": [
        {
          "internalType": "uint256",
          "name": "id",
          "type": "uint256"
        },
        {
          "internalType": "uint256",
          "name": "lastPaidAt",
          "type": "uint256"
        },
        {
          "internalType": "address",
          "name": "tokenIn",
          "type": "address"
        },
        {
          "internalType": "address",
          "name": "tokenOut",
          "type": "address"
        }
      ],
      "stateMutability": "view",
      "type": "function"
    },
    {
      "inputs": [
        {
          "internalType": "address",
          "name": "_tokenIn",
          "type": "address"
        },
        {
          "internalType": "address",
          "name": "_tokenOut",
          "type": "address"
        }
      ],
      "name": "createPair",
      "outputs": [
        {
          "internalType": "uint256",
          "name": "",
          "type": "uint256"
        }
      ],
      "stateMutability": "payable",
      "type": "function"
    },
    {
      "inputs": [],
      "name": "fees",
      "outputs": [
        {
          "internalType": "uint128",
          "name": "",
          "type": "uint128"
        }
      ],
      "stateMutability": "view",
      "type": "function"
    },
    {
      "inputs": [],
      "name": "frequency",
      "outputs": [
        {
          "internalType": "uint16",
          "name": "",
          "type": "uint16"
        }
      ],
      "stateMutability": "view",
      "type": "function"
    },
    {
      "inputs": [],
      "name": "getAllPairs",
      "outputs": [
        {
          "components": [
            {
              "internalType": "uint256",
              "name": "id",
              "type": "uint256"
            },
            {
              "internalType": "uint256",
              "name": "lastPaidAt",
              "type": "uint256"
            },
            {
              "internalType": "address",
              "name": "tokenIn",
              "type": "address"
            },
            {
              "internalType": "address",
              "name": "tokenOut",
              "type": "address"
            }
          ],
          "internalType": "struct ElvatePair.Pair[]",
          "name": "",
          "type": "tuple[]"
        }
      ],
      "stateMutability": "view",
      "type": "function"
    },
    {
      "inputs": [],
      "name": "managerAddress",
      "outputs": [
        {
          "internalType": "address",
          "name": "",
          "type": "address"
        }
      ],
      "stateMutability": "view",
      "type": "function"
    },
    {
      "inputs": [],
      "name": "owner",
      "outputs": [
        {
          "internalType": "address",
          "name": "",
          "type": "address"
        }
      ],
      "stateMutability": "view",
      "type": "function"
    },
    {
      "inputs": [
        {
          "internalType": "address",
          "name": "",
          "type": "address"
        },
        {
          "internalType": "address",
          "name": "",
          "type": "address"
        }
      ],
      "name": "pairIdByTokenInOut",
      "outputs": [
        {
          "internalType": "uint256",
          "name": "",
          "type": "uint256"
        }
      ],
      "stateMutability": "view",
      "type": "function"
    },
    {
      "inputs": [],
      "name": "renounceOwnership",
      "outputs": [],
      "stateMutability": "nonpayable",
      "type": "function"
    },
    {
      "inputs": [
        {
          "internalType": "address",
          "name": "newOwner",
          "type": "address"
        }
      ],
      "name": "transferOwnership",
      "outputs": [],
      "stateMutability": "nonpayable",
      "type": "function"
    },
    {
      "inputs": [
        {
          "internalType": "address",
          "name": "_tokenIn",
          "type": "address"
        },
        {
          "internalType": "address",
          "name": "_tokenOut",
          "type": "address"
        }
      ],
      "name": "trigger",
      "outputs": [],
      "stateMutability": "nonpayable",
      "type": "function"
    },
    {
      "inputs": [
        {
          "internalType": "uint128",
          "name": "_fees",
          "type": "uint128"
        }
      ],
      "name": "updateFees",
      "outputs": [],
      "stateMutability": "nonpayable",
      "type": "function"
    },
    {
      "inputs": [
        {
          "internalType": "address",
          "name": "_managerAddress",
          "type": "address"
        }
      ],
      "name": "updateManagerAddress",
      "outputs": [],
      "stateMutability": "nonpayable",
      "type": "function"
    }
  ],
  "bytecode": "0x608060405267016345785d8a0000600260006101000a8154816fffffffffffffffffffffffffffffffff02191690836fffffffffffffffffffffffffffffffff160217905550610168600260106101000a81548161ffff021916908361ffff16021790555034801561007057600080fd5b5061008d61008261009260201b60201c565b61009a60201b60201c565b61015e565b600033905090565b60008060009054906101000a900473ffffffffffffffffffffffffffffffffffffffff169050816000806101000a81548173ffffffffffffffffffffffffffffffffffffffff021916908373ffffffffffffffffffffffffffffffffffffffff1602179055508173ffffffffffffffffffffffffffffffffffffffff168173ffffffffffffffffffffffffffffffffffffffff167f8be0079c531659141344cd1fd0a4f28419497f9722a3daafe3b4186f6b6457e060405160405180910390a35050565b611a678061016d6000396000f3fe6080604052600436106100c25760003560e01c80639af1d35a1161007f578063cf73a1bc11610059578063cf73a1bc1461025c578063ead50da314610287578063f2fde38b146102b2578063f800ece9146102db576100c2565b80639af1d35a146101d8578063b92814d814610203578063c9c653961461022c576100c2565b806301322e71146100c757806306ba5395146100f05780631e3dd18b14610119578063371131bc14610159578063715018a6146101965780638da5cb5b146101ad575b600080fd5b3480156100d357600080fd5b506100ee60048036038101906100e99190611217565b610306565b005b3480156100fc57600080fd5b506101176004803603810190610112919061127c565b6103c6565b005b34801561012557600080fd5b50610140600480360381019061013b91906112a5565b61047e565b60405161015094939291906116d0565b60405180910390f35b34801561016557600080fd5b50610180600480360381019061017b9190611240565b6104fe565b60405161018d919061167e565b60405180910390f35b3480156101a257600080fd5b506101ab610523565b005b3480156101b957600080fd5b506101c26105ab565b6040516101cf919061150b565b60405180910390f35b3480156101e457600080fd5b506101ed6105d4565b6040516101fa9190611648565b60405180910390f35b34801561020f57600080fd5b5061022a60048036038101906102259190611240565b6105f6565b005b61024660048036038101906102419190611240565b610add565b604051610253919061167e565b60405180910390f35b34801561026857600080fd5b50610271610ebb565b60405161027e919061150b565b60405180910390f35b34801561029357600080fd5b5061029c610ee1565b6040516102a99190611663565b60405180910390f35b3480156102be57600080fd5b506102d960048036038101906102d49190611217565b610ef5565b005b3480156102e757600080fd5b506102f0610fed565b6040516102fd9190611526565b60405180910390f35b61030e61110c565b73ffffffffffffffffffffffffffffffffffffffff1661032c6105ab565b73ffffffffffffffffffffffffffffffffffffffff1614610382576040517f08c379a0000000000000000000000000000000000000000000000000000000008152600401610379906115a8565b60405180910390fd5b80600360006101000a81548173ffffffffffffffffffffffffffffffffffffffff021916908373ffffffffffffffffffffffffffffffffffffffff16021790555050565b6103ce61110c565b73ffffffffffffffffffffffffffffffffffffffff166103ec6105ab565b73ffffffffffffffffffffffffffffffffffffffff1614610442576040517f08c379a0000000000000000000000000000000000000000000000000000000008152600401610439906115a8565b60405180910390fd5b80600260006101000a8154816fffffffffffffffffffffffffffffffff02191690836fffffffffffffffffffffffffffffffff16021790555050565b6001818154811061048e57600080fd5b90600052602060002090600402016000915090508060000154908060010154908060020160009054906101000a900473ffffffffffffffffffffffffffffffffffffffff16908060030160009054906101000a900473ffffffffffffffffffffffffffffffffffffffff16905084565b6004602052816000526040600020602052806000526040600020600091509150505481565b61052b61110c565b73ffffffffffffffffffffffffffffffffffffffff166105496105ab565b73ffffffffffffffffffffffffffffffffffffffff161461059f576040517f08c379a0000000000000000000000000000000000000000000000000000000008152600401610596906115a8565b60405180910390fd5b6105a96000611114565b565b60008060009054906101000a900473ffffffffffffffffffffffffffffffffffffffff16905090565b600260009054906101000a90046fffffffffffffffffffffffffffffffff1681565b81816000600460008473ffffffffffffffffffffffffffffffffffffffff1673ffffffffffffffffffffffffffffffffffffffff16815260200190815260200160002060008373ffffffffffffffffffffffffffffffffffffffff1673ffffffffffffffffffffffffffffffffffffffff16815260200190815260200160002054116106b7576040517f08c379a00000000000000000000000000000000000000000000000000000000081526004016106ae90611608565b60405180910390fd5b42600260109054906101000a900461ffff1661ffff16600180600460008973ffffffffffffffffffffffffffffffffffffffff1673ffffffffffffffffffffffffffffffffffffffff16815260200190815260200160002060008873ffffffffffffffffffffffffffffffffffffffff1673ffffffffffffffffffffffffffffffffffffffff1681526020019081526020016000205461075791906117b5565b8154811061078e577f4e487b7100000000000000000000000000000000000000000000000000000000600052603260045260246000fd5b9060005260206000209060040201600101546107aa919061175f565b106107ea576040517f08c379a00000000000000000000000000000000000000000000000000000000081526004016107e1906115c8565b60405180910390fd5b600360009054906101000a900473ffffffffffffffffffffffffffffffffffffffff1673ffffffffffffffffffffffffffffffffffffffff163373ffffffffffffffffffffffffffffffffffffffff161461087a576040517f08c379a000000000000000000000000000000000000000000000000000000000815260040161087190611628565b60405180910390fd5b42600180600460008873ffffffffffffffffffffffffffffffffffffffff1673ffffffffffffffffffffffffffffffffffffffff16815260200190815260200160002060008773ffffffffffffffffffffffffffffffffffffffff1673ffffffffffffffffffffffffffffffffffffffff1681526020019081526020016000205461090591906117b5565b8154811061093c577f4e487b7100000000000000000000000000000000000000000000000000000000600052603260045260246000fd5b906000526020600020906004020160010181905550600460008573ffffffffffffffffffffffffffffffffffffffff1673ffffffffffffffffffffffffffffffffffffffff16815260200190815260200160002060008473ffffffffffffffffffffffffffffffffffffffff1673ffffffffffffffffffffffffffffffffffffffff168152602001908152602001600020547f1a1b6a83a897e62462f7d90f5400cf1e6d8c1bf044ef1752aeb56c3ee22e0f6c600180600460008973ffffffffffffffffffffffffffffffffffffffff1673ffffffffffffffffffffffffffffffffffffffff16815260200190815260200160002060008873ffffffffffffffffffffffffffffffffffffffff1673ffffffffffffffffffffffffffffffffffffffff16815260200190815260200160002054610a7991906117b5565b81548110610ab0577f4e487b7100000000000000000000000000000000000000000000000000000000600052603260045260246000fd5b906000526020600020906004020160010154604051610acf919061167e565b60405180910390a250505050565b600082826000600460008473ffffffffffffffffffffffffffffffffffffffff1673ffffffffffffffffffffffffffffffffffffffff16815260200190815260200160002060008373ffffffffffffffffffffffffffffffffffffffff1673ffffffffffffffffffffffffffffffffffffffff1681526020019081526020016000205414610ba0576040517f08c379a0000000000000000000000000000000000000000000000000000000008152600401610b9790611548565b60405180910390fd5b84848073ffffffffffffffffffffffffffffffffffffffff168273ffffffffffffffffffffffffffffffffffffffff161415610c11576040517f08c379a0000000000000000000000000000000000000000000000000000000008152600401610c0890611588565b60405180910390fd5b610c196105ab565b73ffffffffffffffffffffffffffffffffffffffff163373ffffffffffffffffffffffffffffffffffffffff1614610cbf57600260009054906101000a90046fffffffffffffffffffffffffffffffff166fffffffffffffffffffffffffffffffff16341015610cbe576040517f08c379a0000000000000000000000000000000000000000000000000000000008152600401610cb5906115e8565b60405180910390fd5b5b600060018080549050610cd2919061175f565b905060016040518060800160405280838152602001600181526020018a73ffffffffffffffffffffffffffffffffffffffff1681526020018973ffffffffffffffffffffffffffffffffffffffff168152509080600181540180825580915050600190039060005260206000209060040201600090919091909150600082015181600001556020820151816001015560408201518160020160006101000a81548173ffffffffffffffffffffffffffffffffffffffff021916908373ffffffffffffffffffffffffffffffffffffffff16021790555060608201518160030160006101000a81548173ffffffffffffffffffffffffffffffffffffffff021916908373ffffffffffffffffffffffffffffffffffffffff160217905550505080600460008a73ffffffffffffffffffffffffffffffffffffffff1673ffffffffffffffffffffffffffffffffffffffff16815260200190815260200160002060008973ffffffffffffffffffffffffffffffffffffffff1673ffffffffffffffffffffffffffffffffffffffff168152602001908152602001600020819055507f02a47afa70a0c9a6546a7935738f3a99c674b215a93b1552adf49442a51e9e7e818989604051610ea593929190611699565b60405180910390a1809550505050505092915050565b600360009054906101000a900473ffffffffffffffffffffffffffffffffffffffff1681565b600260109054906101000a900461ffff1681565b610efd61110c565b73ffffffffffffffffffffffffffffffffffffffff16610f1b6105ab565b73ffffffffffffffffffffffffffffffffffffffff1614610f71576040517f08c379a0000000000000000000000000000000000000000000000000000000008152600401610f68906115a8565b60405180910390fd5b600073ffffffffffffffffffffffffffffffffffffffff168173ffffffffffffffffffffffffffffffffffffffff161415610fe1576040517f08c379a0000000000000000000000000000000000000000000000000000000008152600401610fd890611568565b60405180910390fd5b610fea81611114565b50565b60606001805480602002602001604051908101604052809291908181526020016000905b82821015611103578382906000526020600020906004020160405180608001604052908160008201548152602001600182015481526020016002820160009054906101000a900473ffffffffffffffffffffffffffffffffffffffff1673ffffffffffffffffffffffffffffffffffffffff1673ffffffffffffffffffffffffffffffffffffffff1681526020016003820160009054906101000a900473ffffffffffffffffffffffffffffffffffffffff1673ffffffffffffffffffffffffffffffffffffffff1673ffffffffffffffffffffffffffffffffffffffff168152505081526020019060010190611011565b50505050905090565b600033905090565b60008060009054906101000a900473ffffffffffffffffffffffffffffffffffffffff169050816000806101000a81548173ffffffffffffffffffffffffffffffffffffffff021916908373ffffffffffffffffffffffffffffffffffffffff1602179055508173ffffffffffffffffffffffffffffffffffffffff168173ffffffffffffffffffffffffffffffffffffffff167f8be0079c531659141344cd1fd0a4f28419497f9722a3daafe3b4186f6b6457e060405160405180910390a35050565b6000813590506111e7816119ec565b92915050565b6000813590506111fc81611a03565b92915050565b60008135905061121181611a1a565b92915050565b60006020828403121561122957600080fd5b6000611237848285016111d8565b91505092915050565b6000806040838503121561125357600080fd5b6000611261858286016111d8565b9250506020611272858286016111d8565b9150509250929050565b60006020828403121561128e57600080fd5b600061129c848285016111ed565b91505092915050565b6000602082840312156112b757600080fd5b60006112c584828501611202565b91505092915050565b60006112da838361147a565b60808301905092915050565b6112ef816117e9565b82525050565b6112fe816117e9565b82525050565b600061130f82611725565b611319818561173d565b935061132483611715565b8060005b8381101561135557815161133c88826112ce565b975061134783611730565b925050600181019050611328565b5085935050505092915050565b600061136f60128361174e565b915061137a8261187e565b602082019050919050565b600061139260268361174e565b915061139d826118a7565b604082019050919050565b60006113b5601a8361174e565b91506113c0826118f6565b602082019050919050565b60006113d860208361174e565b91506113e38261191f565b602082019050919050565b60006113fb601b8361174e565b915061140682611948565b602082019050919050565b600061141e60118361174e565b915061142982611971565b602082019050919050565b6000611441600d8361174e565b915061144c8261199a565b602082019050919050565b600061146460198361174e565b915061146f826119c3565b602082019050919050565b60808201600082015161149060008501826114ed565b5060208201516114a360208501826114ed565b5060408201516114b660408501826112e6565b5060608201516114c960608501826112e6565b50505050565b6114d8816117fb565b82525050565b6114e781611817565b82525050565b6114f681611845565b82525050565b61150581611845565b82525050565b600060208201905061152060008301846112f5565b92915050565b600060208201905081810360008301526115408184611304565b905092915050565b6000602082019050818103600083015261156181611362565b9050919050565b6000602082019050818103600083015261158181611385565b9050919050565b600060208201905081810360008301526115a1816113a8565b9050919050565b600060208201905081810360008301526115c1816113cb565b9050919050565b600060208201905081810360008301526115e1816113ee565b9050919050565b6000602082019050818103600083015261160181611411565b9050919050565b6000602082019050818103600083015261162181611434565b9050919050565b6000602082019050818103600083015261164181611457565b9050919050565b600060208201905061165d60008301846114cf565b92915050565b600060208201905061167860008301846114de565b92915050565b600060208201905061169360008301846114fc565b92915050565b60006060820190506116ae60008301866114fc565b6116bb60208301856112f5565b6116c860408301846112f5565b949350505050565b60006080820190506116e560008301876114fc565b6116f260208301866114fc565b6116ff60408301856112f5565b61170c60608301846112f5565b95945050505050565b6000819050602082019050919050565b600081519050919050565b6000602082019050919050565b600082825260208201905092915050565b600082825260208201905092915050565b600061176a82611845565b915061177583611845565b9250827fffffffffffffffffffffffffffffffffffffffffffffffffffffffffffffffff038211156117aa576117a961184f565b5b828201905092915050565b60006117c082611845565b91506117cb83611845565b9250828210156117de576117dd61184f565b5b828203905092915050565b60006117f482611825565b9050919050565b60006fffffffffffffffffffffffffffffffff82169050919050565b600061ffff82169050919050565b600073ffffffffffffffffffffffffffffffffffffffff82169050919050565b6000819050919050565b7f4e487b7100000000000000000000000000000000000000000000000000000000600052601160045260246000fd5b7f5061697220616c72656164792065786973740000000000000000000000000000600082015250565b7f4f776e61626c653a206e6577206f776e657220697320746865207a65726f206160008201527f6464726573730000000000000000000000000000000000000000000000000000602082015250565b7f546f6b656e732063616e6e6f74206265206964656e746963616c000000000000600082015250565b7f4f776e61626c653a2063616c6c6572206973206e6f7420746865206f776e6572600082015250565b7f556e61626c6520746f2074726967676572207269676874206e6f770000000000600082015250565b7f496e73756666696369656e742066656573000000000000000000000000000000600082015250565b7f4e6f207061697220666f756e6400000000000000000000000000000000000000600082015250565b7f43616c6c6572206973206e6f7420746865206d616e6167657200000000000000600082015250565b6119f5816117e9565b8114611a0057600080fd5b50565b611a0c816117fb565b8114611a1757600080fd5b50565b611a2381611845565b8114611a2e57600080fd5b5056fea2646970667358221220b9f68d157dc66e5961fba3b26df17824ad3c9970563bf1c5f69f996e4bc85cd764736f6c63430008010033",
  "linkReferences": {},
  "deployedLinkReferences": {}
}