{
  "contractName": "ElvateCore",
  "abi": [
    {
      "inputs": [
        {
          "internalType": "address",
          "name": "_WBNBAddress",
          "type": "address"
        },
        {
          "internalType": "address",
          "name": "_routerContractAddress",
          "type": "address"
        }
      ],
      "stateMutability": "nonpayable",
      "type": "constructor"
    },
    {
      "anonymous": false,
      "inputs": [
        {
          "indexed": true,
          "internalType": "address",
          "name": "previousOwner",
          "type": "address"
        },
        {
          "indexed": true,
          "internalType": "address",
          "name": "newOwner",
          "type": "address"
        }
      ],
      "name": "OwnershipTransferred",
      "type": "event"
    },
    {
      "anonymous": false,
      "inputs": [
        {
          "indexed": false,
          "internalType": "uint256",
          "name": "_id",
          "type": "uint256"
        },
        {
          "indexed": false,
          "internalType": "address",
          "name": "_tokenIn",
          "type": "address"
        },
        {
          "indexed": false,
          "internalType": "address",
          "name": "_tokenOut",
          "type": "address"
        }
      ],
      "name": "PairCreated",
      "type": "event"
    },
    {
      "anonymous": false,
      "inputs": [
        {
          "indexed": true,
          "internalType": "uint256",
          "name": "pairId",
          "type": "uint256"
        },
        {
          "indexed": false,
          "internalType": "uint256",
          "name": "lastPaidAt",
          "type": "uint256"
        },
        {
          "indexed": false,
          "internalType": "uint256",
          "name": "totalSubscriptions",
          "type": "uint256"
        },
        {
          "indexed": false,
          "internalType": "uint256",
          "name": "totalAmountIn",
          "type": "uint256"
        },
        {
          "indexed": false,
          "internalType": "uint256",
          "name": "totalAmountOut",
          "type": "uint256"
        },
        {
          "indexed": false,
          "internalType": "uint256",
          "name": "fees",
          "type": "uint256"
        }
      ],
      "name": "PairTriggered",
      "type": "event"
    },
    {
      "anonymous": false,
      "inputs": [
        {
          "components": [
            {
              "internalType": "uint256",
              "name": "amountIn",
              "type": "uint256"
            },
            {
              "internalType": "uint256",
              "name": "pairId",
              "type": "uint256"
            },
            {
              "internalType": "address",
              "name": "owner",
              "type": "address"
            }
          ],
          "indexed": false,
          "internalType": "struct ElvateSubscription.Subscription",
          "name": "subscription",
          "type": "tuple"
        }
      ],
      "name": "SubscriptionCreated",
      "type": "event"
    },
    {
      "anonymous": false,
      "inputs": [
        {
          "components": [
            {
              "internalType": "uint256",
              "name": "amountIn",
              "type": "uint256"
            },
            {
              "internalType": "uint256",
              "name": "pairId",
              "type": "uint256"
            },
            {
              "internalType": "address",
              "name": "owner",
              "type": "address"
            }
          ],
          "indexed": false,
          "internalType": "struct ElvateSubscription.Subscription",
          "name": "subscription",
          "type": "tuple"
        }
      ],
      "name": "SubscriptionEdited",
      "type": "event"
    },
    {
      "anonymous": false,
      "inputs": [
        {
          "indexed": true,
          "internalType": "address",
          "name": "_owner",
          "type": "address"
        },
        {
          "indexed": false,
          "internalType": "uint256",
          "name": "_amount",
          "type": "uint256"
        }
      ],
      "name": "TokenDeposited",
      "type": "event"
    },
    {
      "anonymous": false,
      "inputs": [
        {
          "indexed": true,
          "internalType": "address",
          "name": "_owner",
          "type": "address"
        },
        {
          "indexed": false,
          "internalType": "uint256",
          "name": "_amount",
          "type": "uint256"
        }
      ],
      "name": "TokenWithdrew",
      "type": "event"
    },
    {
      "inputs": [],
      "name": "WBNBAddress",
      "outputs": [
        {
          "internalType": "address",
          "name": "",
          "type": "address"
        }
      ],
      "stateMutability": "view",
      "type": "function",
      "constant": true
    },
    {
      "inputs": [
        {
          "internalType": "uint256",
          "name": "",
          "type": "uint256"
        }
      ],
      "name": "allPairs",
      "outputs": [
        {
          "internalType": "uint256",
          "name": "id",
          "type": "uint256"
        },
        {
          "internalType": "uint256",
          "name": "lastPaidAt",
          "type": "uint256"
        },
        {
          "internalType": "address",
          "name": "tokenIn",
          "type": "address"
        },
        {
          "internalType": "address",
          "name": "tokenOut",
          "type": "address"
        }
      ],
      "stateMutability": "view",
      "type": "function",
      "constant": true
    },
    {
      "inputs": [
        {
          "internalType": "uint256",
          "name": "",
          "type": "uint256"
        }
      ],
      "name": "allSubscriptions",
      "outputs": [
        {
          "internalType": "uint256",
          "name": "amountIn",
          "type": "uint256"
        },
        {
          "internalType": "uint256",
          "name": "pairId",
          "type": "uint256"
        },
        {
          "internalType": "address",
          "name": "owner",
          "type": "address"
        }
      ],
      "stateMutability": "view",
      "type": "function",
      "constant": true
    },
    {
      "inputs": [
        {
          "internalType": "address",
          "name": "_tokenIn",
          "type": "address"
        },
        {
          "internalType": "address",
          "name": "_tokenOut",
          "type": "address"
        }
      ],
      "name": "createPair",
      "outputs": [
        {
          "internalType": "uint256",
          "name": "",
          "type": "uint256"
        }
      ],
      "stateMutability": "payable",
      "type": "function",
      "payable": true
    },
    {
      "inputs": [],
      "name": "deposit",
      "outputs": [],
      "stateMutability": "payable",
      "type": "function",
      "payable": true
    },
    {
      "inputs": [
        {
          "internalType": "address",
          "name": "_token",
          "type": "address"
        },
        {
          "internalType": "uint256",
          "name": "_amount",
          "type": "uint256"
        }
      ],
      "name": "depositToken",
      "outputs": [],
      "stateMutability": "nonpayable",
      "type": "function"
    },
    {
      "inputs": [
        {
          "internalType": "address",
          "name": "_tokenIn",
          "type": "address"
        },
        {
          "internalType": "address",
          "name": "_tokenOut",
          "type": "address"
        },
        {
          "internalType": "uint256",
          "name": "_amountIn",
          "type": "uint256"
        }
      ],
      "name": "editSubscriptionByTokenInOut",
      "outputs": [],
      "stateMutability": "nonpayable",
      "type": "function"
    },
    {
      "inputs": [],
      "name": "frequency",
      "outputs": [
        {
          "internalType": "uint256",
          "name": "",
          "type": "uint256"
        }
      ],
      "stateMutability": "view",
      "type": "function",
      "constant": true
    },
    {
      "inputs": [],
      "name": "getAllPairs",
      "outputs": [
        {
          "components": [
            {
              "internalType": "uint256",
              "name": "id",
              "type": "uint256"
            },
            {
              "internalType": "uint256",
              "name": "lastPaidAt",
              "type": "uint256"
            },
            {
              "internalType": "address",
              "name": "tokenIn",
              "type": "address"
            },
            {
              "internalType": "address",
              "name": "tokenOut",
              "type": "address"
            }
          ],
          "internalType": "struct ElvatePair.Pair[]",
          "name": "",
          "type": "tuple[]"
        }
      ],
      "stateMutability": "view",
      "type": "function",
      "constant": true
    },
    {
      "inputs": [],
      "name": "getAllSubscriptions",
      "outputs": [
        {
          "components": [
            {
              "internalType": "uint256",
              "name": "amountIn",
              "type": "uint256"
            },
            {
              "internalType": "uint256",
              "name": "pairId",
              "type": "uint256"
            },
            {
              "internalType": "address",
              "name": "owner",
              "type": "address"
            }
          ],
          "internalType": "struct ElvateSubscription.Subscription[]",
          "name": "",
          "type": "tuple[]"
        }
      ],
      "stateMutability": "view",
      "type": "function",
      "constant": true
    },
    {
      "inputs": [
        {
          "internalType": "address",
          "name": "_owner",
          "type": "address"
        },
        {
          "internalType": "address",
          "name": "_token",
          "type": "address"
        }
      ],
      "name": "getDepositedToken",
      "outputs": [
        {
          "internalType": "uint256",
          "name": "",
          "type": "uint256"
        }
      ],
      "stateMutability": "view",
      "type": "function",
      "constant": true
    },
    {
      "inputs": [],
      "name": "last",
      "outputs": [
        {
          "internalType": "address",
          "name": "",
          "type": "address"
        }
      ],
      "stateMutability": "view",
      "type": "function",
      "constant": true
    },
    {
      "inputs": [],
      "name": "owner",
      "outputs": [
        {
          "internalType": "address",
          "name": "",
          "type": "address"
        }
      ],
      "stateMutability": "view",
      "type": "function",
      "constant": true
    },
    {
      "inputs": [
        {
          "internalType": "address",
          "name": "",
          "type": "address"
        },
        {
          "internalType": "address",
          "name": "",
          "type": "address"
        }
      ],
      "name": "pairByTokenInOut",
      "outputs": [
        {
          "internalType": "uint256",
          "name": "id",
          "type": "uint256"
        },
        {
          "internalType": "uint256",
          "name": "lastPaidAt",
          "type": "uint256"
        },
        {
          "internalType": "address",
          "name": "tokenIn",
          "type": "address"
        },
        {
          "internalType": "address",
          "name": "tokenOut",
          "type": "address"
        }
      ],
      "stateMutability": "view",
      "type": "function",
      "constant": true
    },
    {
      "inputs": [],
      "name": "pairCreationFee",
      "outputs": [
        {
          "internalType": "uint256",
          "name": "",
          "type": "uint256"
        }
      ],
      "stateMutability": "view",
      "type": "function",
      "constant": true
    },
    {
      "inputs": [],
      "name": "precision",
      "outputs": [
        {
          "internalType": "uint256",
          "name": "",
          "type": "uint256"
        }
      ],
      "stateMutability": "view",
      "type": "function",
      "constant": true
    },
    {
      "inputs": [],
      "name": "renounceOwnership",
      "outputs": [],
      "stateMutability": "nonpayable",
      "type": "function"
    },
    {
      "inputs": [],
      "name": "routerContractAddress",
      "outputs": [
        {
          "internalType": "address",
          "name": "",
          "type": "address"
        }
      ],
      "stateMutability": "view",
      "type": "function",
      "constant": true
    },
    {
      "inputs": [],
      "name": "s",
      "outputs": [
        {
          "internalType": "string",
          "name": "",
          "type": "string"
        }
      ],
      "stateMutability": "view",
      "type": "function",
      "constant": true
    },
    {
      "inputs": [
        {
          "internalType": "address",
          "name": "_tokenIn",
          "type": "address"
        },
        {
          "internalType": "address",
          "name": "_tokenOut",
          "type": "address"
        },
        {
          "internalType": "uint256",
          "name": "_amountIn",
          "type": "uint256"
        }
      ],
      "name": "subscribeToPairByTokenInOut",
      "outputs": [],
      "stateMutability": "nonpayable",
      "type": "function"
    },
    {
      "inputs": [
        {
          "internalType": "address",
          "name": "",
          "type": "address"
        },
        {
          "internalType": "uint256",
          "name": "",
          "type": "uint256"
        }
      ],
      "name": "subscriptionByUserPairId",
      "outputs": [
        {
          "internalType": "uint256",
          "name": "",
          "type": "uint256"
        }
      ],
      "stateMutability": "view",
      "type": "function",
      "constant": true
    },
    {
      "inputs": [],
      "name": "swapFee",
      "outputs": [
        {
          "internalType": "uint256",
          "name": "",
          "type": "uint256"
        }
      ],
      "stateMutability": "view",
      "type": "function",
      "constant": true
    },
    {
      "inputs": [
        {
          "internalType": "address",
          "name": "",
          "type": "address"
        },
        {
          "internalType": "address",
          "name": "",
          "type": "address"
        }
      ],
      "name": "tokens",
      "outputs": [
        {
          "internalType": "uint256",
          "name": "",
          "type": "uint256"
        }
      ],
      "stateMutability": "view",
      "type": "function",
      "constant": true
    },
    {
      "inputs": [
        {
          "internalType": "address",
          "name": "newOwner",
          "type": "address"
        }
      ],
      "name": "transferOwnership",
      "outputs": [],
      "stateMutability": "nonpayable",
      "type": "function"
    },
    {
      "inputs": [
        {
          "internalType": "uint256",
          "name": "_fee",
          "type": "uint256"
        }
      ],
      "name": "updatePairCreationFee",
      "outputs": [],
      "stateMutability": "nonpayable",
      "type": "function"
    },
    {
      "inputs": [
        {
          "internalType": "uint256",
          "name": "_fee",
          "type": "uint256"
        }
      ],
      "name": "updateSwapFee",
      "outputs": [],
      "stateMutability": "nonpayable",
      "type": "function"
    },
    {
      "inputs": [],
      "name": "withdrawFees",
      "outputs": [],
      "stateMutability": "nonpayable",
      "type": "function"
    },
    {
      "inputs": [
        {
          "internalType": "address",
          "name": "_token",
          "type": "address"
        },
        {
          "internalType": "uint256",
          "name": "_amount",
          "type": "uint256"
        }
      ],
      "name": "withdrawToken",
      "outputs": [],
      "stateMutability": "nonpayable",
      "type": "function"
    },
    {
      "inputs": [
        {
          "internalType": "address",
          "name": "_tokenOut",
          "type": "address"
        }
      ],
      "name": "withdrawTokenFees",
      "outputs": [],
      "stateMutability": "nonpayable",
      "type": "function"
    },
    {
      "inputs": [
        {
          "internalType": "string",
          "name": "_test",
          "type": "string"
        }
      ],
      "name": "test",
      "outputs": [],
      "stateMutability": "nonpayable",
      "type": "function"
    },
    {
      "inputs": [
        {
          "internalType": "address",
          "name": "_tokenIn",
          "type": "address"
        },
        {
          "internalType": "address",
          "name": "_tokenOut",
          "type": "address"
        }
      ],
      "name": "triggerSubscriptions",
      "outputs": [],
      "stateMutability": "nonpayable",
      "type": "function"
    },
    {
      "inputs": [
        {
          "internalType": "address",
          "name": "_tokenIn",
          "type": "address"
        },
        {
          "internalType": "address",
          "name": "_tokenOut",
          "type": "address"
        }
      ],
      "name": "_getPath",
      "outputs": [
        {
          "internalType": "address[]",
          "name": "",
          "type": "address[]"
        }
      ],
      "stateMutability": "view",
      "type": "function",
      "constant": true
    },
    {
      "inputs": [
        {
          "internalType": "address",
          "name": "_tokenIn",
          "type": "address"
        },
        {
          "internalType": "address",
          "name": "_tokenOut",
          "type": "address"
        }
      ],
      "name": "getEligibleSubscriptions",
      "outputs": [
        {
          "components": [
            {
              "internalType": "uint256",
              "name": "amountIn",
              "type": "uint256"
            },
            {
              "internalType": "uint256",
              "name": "pairId",
              "type": "uint256"
            },
            {
              "internalType": "address",
              "name": "owner",
              "type": "address"
            }
          ],
          "internalType": "struct ElvateSubscription.Subscription[]",
          "name": "",
          "type": "tuple[]"
        }
      ],
      "stateMutability": "view",
      "type": "function",
      "constant": true
    }
  ],
  "bytecode": "0x6080604052662386f26fc10000600355600560045566038d7ea4c68000600a55610168600b5560405180602001604052806000815250600c90805190602001906200004c929190620001fe565b503480156200005a57600080fd5b5060405162005d9d38038062005d9d8339818101604052810190620000809190620002c5565b81808080620000a4620000986200013260201b60201c565b6200013a60201b60201c565b80600160006101000a81548173ffffffffffffffffffffffffffffffffffffffff021916908373ffffffffffffffffffffffffffffffffffffffff1602179055505050505080600960006101000a81548173ffffffffffffffffffffffffffffffffffffffff021916908373ffffffffffffffffffffffffffffffffffffffff1602179055505050620003b9565b600033905090565b60008060009054906101000a900473ffffffffffffffffffffffffffffffffffffffff169050816000806101000a81548173ffffffffffffffffffffffffffffffffffffffff021916908373ffffffffffffffffffffffffffffffffffffffff1602179055508173ffffffffffffffffffffffffffffffffffffffff168173ffffffffffffffffffffffffffffffffffffffff167f8be0079c531659141344cd1fd0a4f28419497f9722a3daafe3b4186f6b6457e060405160405180910390a35050565b8280546200020c906200033a565b90600052602060002090601f0160209004810192826200023057600085556200027c565b82601f106200024b57805160ff19168380011785556200027c565b828001600101855582156200027c579182015b828111156200027b5782518255916020019190600101906200025e565b5b5090506200028b91906200028f565b5090565b5b80821115620002aa57600081600090555060010162000290565b5090565b600081519050620002bf816200039f565b92915050565b60008060408385031215620002d957600080fd5b6000620002e985828601620002ae565b9250506020620002fc85828601620002ae565b9150509250929050565b600062000313826200031a565b9050919050565b600073ffffffffffffffffffffffffffffffffffffffff82169050919050565b600060028204905060018216806200035357607f821691505b602082108114156200036a576200036962000370565b5b50919050565b7f4e487b7100000000000000000000000000000000000000000000000000000000600052602260045260246000fd5b620003aa8162000306565b8114620003b657600080fd5b50565b6159d480620003c96000396000f3fe6080604052600436106101ee5760003560e01c80638da5cb5b1161010d578063d3b5dc3b116100a0578063f62722a01161006f578063f62722a0146106d9578063f73bc05314610702578063f800ece91461072d578063f9fbd55414610758578063fdd02f9414610781576101ee565b8063d3b5dc3b1461061a578063e532a5b214610645578063ead50da314610685578063f2fde38b146106b0576101ee565b8063a209f3a4116100dc578063a209f3a41461058e578063bf16f65a146105b7578063c9c65396146105e0578063d0e30db014610610576101ee565b80638da5cb5b146104d45780639070ee10146104ff5780639e281a98146105285780639f96ed2c14610551576101ee565b80634f95bcb61161018557806370081fb91161015457806370081fb91461043e578063715018a61461046957806374f10ca11461048057806386b714e2146104a9576101ee565b80634f95bcb61461036c578063508493bc146103ab57806354cf2aeb146103e857806356eb00a114610413576101ee565b806325d36178116101c157806325d36178146102d8578063338b5dea14610301578063476343ee1461032a57806347799da814610341576101ee565b80630d9e4588146101f357806311b243fd146102305780631e3dd18b1461026d5780632144e648146102ad575b600080fd5b3480156101ff57600080fd5b5061021a60048036038101906102159190614428565b6107be565b6040516102279190614f70565b60405180910390f35b34801561023c57600080fd5b50610257600480360381019061025291906144b3565b610845565b6040516102649190614f70565b60405180910390f35b34801561027957600080fd5b50610294600480360381019061028f919061459a565b61086a565b6040516102a49493929190615053565b60405180910390f35b3480156102b957600080fd5b506102c26108ea565b6040516102cf9190614f70565b60405180910390f35b3480156102e457600080fd5b506102ff60048036038101906102fa9190614464565b6108f0565b005b34801561030d57600080fd5b50610328600480360381019061032391906144b3565b610d79565b005b34801561033657600080fd5b5061033f610efe565b005b34801561034d57600080fd5b50610356610fc3565b6040516103639190614bce565b60405180910390f35b34801561037857600080fd5b50610393600480360381019061038e919061459a565b610fe9565b6040516103a29392919061501c565b60405180910390f35b3480156103b757600080fd5b506103d260048036038101906103cd9190614428565b611043565b6040516103df9190614f70565b60405180910390f35b3480156103f457600080fd5b506103fd611068565b60405161040a9190614f70565b60405180910390f35b34801561041f57600080fd5b5061042861106e565b6040516104359190614cb6565b60405180910390f35b34801561044a57600080fd5b50610453611137565b6040516104609190614bce565b60405180910390f35b34801561047557600080fd5b5061047e61115d565b005b34801561048c57600080fd5b506104a760048036038101906104a2919061459a565b6111e5565b005b3480156104b557600080fd5b506104be61126b565b6040516104cb9190614cd8565b60405180910390f35b3480156104e057600080fd5b506104e96112f9565b6040516104f69190614bce565b60405180910390f35b34801561050b57600080fd5b5061052660048036038101906105219190614428565b611322565b005b34801561053457600080fd5b5061054f600480360381019061054a91906144b3565b611aca565b005b34801561055d57600080fd5b5061057860048036038101906105739190614428565b611c4d565b6040516105859190614cb6565b60405180910390f35b34801561059a57600080fd5b506105b560048036038101906105b09190614464565b612118565b005b3480156105c357600080fd5b506105de60048036038101906105d9919061459a565b6125e1565b005b6105fa60048036038101906105f59190614428565b6126ad565b6040516106079190614f70565b60405180910390f35b610618612b7c565b005b34801561062657600080fd5b5061062f612d99565b60405161063c9190614f70565b60405180910390f35b34801561065157600080fd5b5061066c60048036038101906106679190614428565b612d9f565b60405161067c9493929190615053565b60405180910390f35b34801561069157600080fd5b5061069a612e1c565b6040516106a79190614f70565b60405180910390f35b3480156106bc57600080fd5b506106d760048036038101906106d291906143ff565b612e22565b005b3480156106e557600080fd5b5061070060048036038101906106fb91906143ff565b612f1a565b005b34801561070e57600080fd5b506107176130c2565b6040516107249190614bce565b60405180910390f35b34801561073957600080fd5b506107426130e8565b60405161074f9190614c94565b60405180910390f35b34801561076457600080fd5b5061077f600480360381019061077a9190614559565b613207565b005b34801561078d57600080fd5b506107a860048036038101906107a39190614428565b613262565b6040516107b59190614c72565b60405180910390f35b6000600260008373ffffffffffffffffffffffffffffffffffffffff1673ffffffffffffffffffffffffffffffffffffffff16815260200190815260200160002060008473ffffffffffffffffffffffffffffffffffffffff1673ffffffffffffffffffffffffffffffffffffffff16815260200190815260200160002054905092915050565b6008602052816000526040600020602052806000526040600020600091509150505481565b6005818154811061087a57600080fd5b90600052602060002090600402016000915090508060000154908060010154908060020160009054906101000a900473ffffffffffffffffffffffffffffffffffffffff16908060030160009054906101000a900473ffffffffffffffffffffffffffffffffffffffff16905084565b60035481565b82826000600660008473ffffffffffffffffffffffffffffffffffffffff1673ffffffffffffffffffffffffffffffffffffffff16815260200190815260200160002060008373ffffffffffffffffffffffffffffffffffffffff1673ffffffffffffffffffffffffffffffffffffffff1681526020019081526020016000206000015490506000600860003373ffffffffffffffffffffffffffffffffffffffff1673ffffffffffffffffffffffffffffffffffffffff16815260200190815260200160002060008381526020019081526020016000205490503373ffffffffffffffffffffffffffffffffffffffff1660078281548110610a1c577f4e487b7100000000000000000000000000000000000000000000000000000000600052603260045260246000fd5b906000526020600020906003020160020160009054906101000a900473ffffffffffffffffffffffffffffffffffffffff1673ffffffffffffffffffffffffffffffffffffffff16148015610abb57508160078281548110610aa7577f4e487b7100000000000000000000000000000000000000000000000000000000600052603260045260246000fd5b906000526020600020906003020160010154145b610afa576040517f08c379a0000000000000000000000000000000000000000000000000000000008152600401610af190614f1a565b60405180910390fd5b86866000600660008473ffffffffffffffffffffffffffffffffffffffff1673ffffffffffffffffffffffffffffffffffffffff16815260200190815260200160002060008373ffffffffffffffffffffffffffffffffffffffff1673ffffffffffffffffffffffffffffffffffffffff168152602001908152602001600020600101541415610bbf576040517f08c379a0000000000000000000000000000000000000000000000000000000008152600401610bb690614e3a565b60405180910390fd5b6000600660008b73ffffffffffffffffffffffffffffffffffffffff1673ffffffffffffffffffffffffffffffffffffffff16815260200190815260200160002060008a73ffffffffffffffffffffffffffffffffffffffff1673ffffffffffffffffffffffffffffffffffffffff1681526020019081526020016000206000015490506000600860003373ffffffffffffffffffffffffffffffffffffffff1673ffffffffffffffffffffffffffffffffffffffff1681526020019081526020016000206000838152602001908152602001600020549050600060078281548110610cd4577f4e487b7100000000000000000000000000000000000000000000000000000000600052603260045260246000fd5b906000526020600020906003020190508981600001819055507f7cf8aac289e43d52e5c3522826cfe66783f0505f2d6870bd0f9a7fbe635bda2e60078381548110610d48577f4e487b7100000000000000000000000000000000000000000000000000000000600052603260045260246000fd5b9060005260206000209060030201604051610d639190614f55565b60405180910390a1505050505050505050505050565b610da63330838573ffffffffffffffffffffffffffffffffffffffff1661367c909392919063ffffffff16565b610e2c600260008473ffffffffffffffffffffffffffffffffffffffff1673ffffffffffffffffffffffffffffffffffffffff16815260200190815260200160002060003373ffffffffffffffffffffffffffffffffffffffff1673ffffffffffffffffffffffffffffffffffffffff1681526020019081526020016000205482613705565b600260008473ffffffffffffffffffffffffffffffffffffffff1673ffffffffffffffffffffffffffffffffffffffff16815260200190815260200160002060003373ffffffffffffffffffffffffffffffffffffffff1673ffffffffffffffffffffffffffffffffffffffff168152602001908152602001600020819055503373ffffffffffffffffffffffffffffffffffffffff167fbc7c8a4d8049a3f99a02f2a20640c206a2e4d3f2fa54fd20da9f01fda3620cda82604051610ef29190614f70565b60405180910390a25050565b610f0661371b565b73ffffffffffffffffffffffffffffffffffffffff16610f246112f9565b73ffffffffffffffffffffffffffffffffffffffff1614610f7a576040517f08c379a0000000000000000000000000000000000000000000000000000000008152600401610f7190614e7a565b60405180910390fd5b3373ffffffffffffffffffffffffffffffffffffffff166108fc479081150290604051600060405180830381858888f19350505050158015610fc0573d6000803e3d6000fd5b50565b600d60009054906101000a900473ffffffffffffffffffffffffffffffffffffffff1681565b60078181548110610ff957600080fd5b90600052602060002090600302016000915090508060000154908060010154908060020160009054906101000a900473ffffffffffffffffffffffffffffffffffffffff16905083565b6002602052816000526040600020602052806000526040600020600091509150505481565b60045481565b60606007805480602002602001604051908101604052809291908181526020016000905b8282101561112e578382906000526020600020906003020160405180606001604052908160008201548152602001600182015481526020016002820160009054906101000a900473ffffffffffffffffffffffffffffffffffffffff1673ffffffffffffffffffffffffffffffffffffffff1673ffffffffffffffffffffffffffffffffffffffff168152505081526020019060010190611092565b50505050905090565b600160009054906101000a900473ffffffffffffffffffffffffffffffffffffffff1681565b61116561371b565b73ffffffffffffffffffffffffffffffffffffffff166111836112f9565b73ffffffffffffffffffffffffffffffffffffffff16146111d9576040517f08c379a00000000000000000000000000000000000000000000000000000000081526004016111d090614e7a565b60405180910390fd5b6111e36000613723565b565b6111ed61371b565b73ffffffffffffffffffffffffffffffffffffffff1661120b6112f9565b73ffffffffffffffffffffffffffffffffffffffff1614611261576040517f08c379a000000000000000000000000000000000000000000000000000000000815260040161125890614e7a565b60405180910390fd5b8060038190555050565b600c805461127890615425565b80601f01602080910402602001604051908101604052809291908181526020018280546112a490615425565b80156112f15780601f106112c6576101008083540402835291602001916112f1565b820191906000526020600020905b8154815290600101906020018083116112d457829003601f168201915b505050505081565b60008060009054906101000a900473ffffffffffffffffffffffffffffffffffffffff16905090565b81816000600660008473ffffffffffffffffffffffffffffffffffffffff1673ffffffffffffffffffffffffffffffffffffffff16815260200190815260200160002060008373ffffffffffffffffffffffffffffffffffffffff1673ffffffffffffffffffffffffffffffffffffffff1681526020019081526020016000206001015414156113e7576040517f08c379a00000000000000000000000000000000000000000000000000000000081526004016113de90614e3a565b60405180910390fd5b6000600660008673ffffffffffffffffffffffffffffffffffffffff1673ffffffffffffffffffffffffffffffffffffffff16815260200190815260200160002060008573ffffffffffffffffffffffffffffffffffffffff1673ffffffffffffffffffffffffffffffffffffffff168152602001908152602001600020600001549050606060006114798787613262565b905060006114878888611c4d565b90506000611494826137e7565b9050426114ee600587815481106114d4577f4e487b7100000000000000000000000000000000000000000000000000000000600052603260045260246000fd5b906000526020600020906004020160010154600b54613705565b1061152e576040517f08c379a000000000000000000000000000000000000000000000000000000000815260040161152590614dba565b60405180910390fd5b6000825111611572576040517f08c379a000000000000000000000000000000000000000000000000000000000815260040161156990614d1a565b60405180910390fd5b600081116115b5576040517f08c379a00000000000000000000000000000000000000000000000000000000081526004016115ac90614d9a565b60405180910390fd5b808973ffffffffffffffffffffffffffffffffffffffff166370a08231306040518263ffffffff1660e01b81526004016115ef9190614bce565b60206040518083038186803b15801561160757600080fd5b505afa15801561161b573d6000803e3d6000fd5b505050506040513d601f19601f8201168201806040525081019061163f91906145c3565b1015611680576040517f08c379a000000000000000000000000000000000000000000000000000000000815260040161167790614d5a565b60405180910390fd5b8873ffffffffffffffffffffffffffffffffffffffff1663095ea7b3600960009054906101000a900473ffffffffffffffffffffffffffffffffffffffff16836040518363ffffffff1660e01b81526004016116dd929190614c49565b602060405180830381600087803b1580156116f757600080fd5b505af115801561170b573d6000803e3d6000fd5b505050506040513d601f19601f8201168201806040525081019061172f9190614530565b61176e576040517f08c379a000000000000000000000000000000000000000000000000000000000815260040161176590614dda565b60405180910390fd5b60008973ffffffffffffffffffffffffffffffffffffffff1663dd62ed3e30600960009054906101000a900473ffffffffffffffffffffffffffffffffffffffff166040518363ffffffff1660e01b81526004016117cd929190614be9565b60206040518083038186803b1580156117e557600080fd5b505afa1580156117f9573d6000803e3d6000fd5b505050506040513d601f19601f8201168201806040525081019061181d91906145c3565b905081811015611862576040517f08c379a000000000000000000000000000000000000000000000000000000000815260040161185990614e5a565b60405180910390fd5b600960009054906101000a900473ffffffffffffffffffffffffffffffffffffffff1673ffffffffffffffffffffffffffffffffffffffff166338ed17398360008730612710426118b3919061524a565b6040518663ffffffff1660e01b81526004016118d3959493929190614fc2565b600060405180830381600087803b1580156118ed57600080fd5b505af1158015611901573d6000803e3d6000fd5b505050506040513d6000823e3d601f19601f8201168201806040525081019061192a91906144ef565b94504260058781548110611967577f4e487b7100000000000000000000000000000000000000000000000000000000600052603260045260246000fd5b90600052602060002090600402016001018190555060006119d58660018851611990919061532b565b815181106119c7577f4e487b7100000000000000000000000000000000000000000000000000000000600052603260045260246000fd5b60200260200101518b613867565b90506119e48b8b8686856139d1565b867f8af97e576376ddfccb83227d1d4467a9951d82c571e9e469bb78ebeb30f79c2c60058981548110611a40577f4e487b7100000000000000000000000000000000000000000000000000000000600052603260045260246000fd5b9060005260206000209060040201600101548651868a60018c51611a64919061532b565b81518110611a9b577f4e487b7100000000000000000000000000000000000000000000000000000000600052603260045260246000fd5b602002602001015186604051611ab5959493929190615098565b60405180910390a25050505050505050505050565b611b50600260008473ffffffffffffffffffffffffffffffffffffffff1673ffffffffffffffffffffffffffffffffffffffff16815260200190815260200160002060003373ffffffffffffffffffffffffffffffffffffffff1673ffffffffffffffffffffffffffffffffffffffff1681526020019081526020016000205482613e06565b600260008473ffffffffffffffffffffffffffffffffffffffff1673ffffffffffffffffffffffffffffffffffffffff16815260200190815260200160002060003373ffffffffffffffffffffffffffffffffffffffff1673ffffffffffffffffffffffffffffffffffffffff16815260200190815260200160002081905550611bfb33828473ffffffffffffffffffffffffffffffffffffffff16613e1c9092919063ffffffff16565b3373ffffffffffffffffffffffffffffffffffffffff167fcd6f1c60d74b50255e52371fd4b3d5678cd8cc9314a11389b82c41bf08ee28bb82604051611c419190614f70565b60405180910390a25050565b606060008060078054905067ffffffffffffffff811115611c97577f4e487b7100000000000000000000000000000000000000000000000000000000600052604160045260246000fd5b604051908082528060200260200182016040528015611cd057816020015b611cbd6141d3565b815260200190600190039081611cb55790505b5090506000600660008773ffffffffffffffffffffffffffffffffffffffff1673ffffffffffffffffffffffffffffffffffffffff16815260200190815260200160002060008673ffffffffffffffffffffffffffffffffffffffff1673ffffffffffffffffffffffffffffffffffffffff16815260200190815260200160002060000154905060005b600780549050811015611fe857600060078281548110611da3577f4e487b7100000000000000000000000000000000000000000000000000000000600052603260045260246000fd5b906000526020600020906003020160405180606001604052908160008201548152602001600182015481526020016002820160009054906101000a900473ffffffffffffffffffffffffffffffffffffffff1673ffffffffffffffffffffffffffffffffffffffff1673ffffffffffffffffffffffffffffffffffffffff16815250509050828160200151148015611ebf57508060000151600260008a73ffffffffffffffffffffffffffffffffffffffff1673ffffffffffffffffffffffffffffffffffffffff1681526020019081526020016000206000836040015173ffffffffffffffffffffffffffffffffffffffff1673ffffffffffffffffffffffffffffffffffffffff1681526020019081526020016000205410155b15611fd45760078281548110611efe577f4e487b7100000000000000000000000000000000000000000000000000000000600052603260045260246000fd5b906000526020600020906003020160405180606001604052908160008201548152602001600182015481526020016002820160009054906101000a900473ffffffffffffffffffffffffffffffffffffffff1673ffffffffffffffffffffffffffffffffffffffff1673ffffffffffffffffffffffffffffffffffffffff1681525050848681518110611fba577f4e487b7100000000000000000000000000000000000000000000000000000000600052603260045260246000fd5b60200260200101819052508480611fd0906154bc565b9550505b508080611fe0906154bc565b915050611d5a565b5060008367ffffffffffffffff81111561202b577f4e487b7100000000000000000000000000000000000000000000000000000000600052604160045260246000fd5b60405190808252806020026020018201604052801561206457816020015b6120516141d3565b8152602001906001900390816120495790505b50905060005b8481101561210a578381815181106120ab577f4e487b7100000000000000000000000000000000000000000000000000000000600052603260045260246000fd5b60200260200101518282815181106120ec577f4e487b7100000000000000000000000000000000000000000000000000000000600052603260045260246000fd5b60200260200101819052508080612102906154bc565b91505061206a565b508094505050505092915050565b828260006007805490501115612334576000600660008473ffffffffffffffffffffffffffffffffffffffff1673ffffffffffffffffffffffffffffffffffffffff16815260200190815260200160002060008373ffffffffffffffffffffffffffffffffffffffff1673ffffffffffffffffffffffffffffffffffffffff1681526020019081526020016000206000015490506000600860003373ffffffffffffffffffffffffffffffffffffffff1673ffffffffffffffffffffffffffffffffffffffff16815260200190815260200160002060008381526020019081526020016000205490503373ffffffffffffffffffffffffffffffffffffffff1660078281548110612252577f4e487b7100000000000000000000000000000000000000000000000000000000600052603260045260246000fd5b906000526020600020906003020160020160009054906101000a900473ffffffffffffffffffffffffffffffffffffffff1673ffffffffffffffffffffffffffffffffffffffff161415806122f2575081600782815481106122dd577f4e487b7100000000000000000000000000000000000000000000000000000000600052603260045260246000fd5b90600052602060002090600302016001015414155b612331576040517f08c379a000000000000000000000000000000000000000000000000000000000815260040161232890614dfa565b60405180910390fd5b50505b84846000600660008473ffffffffffffffffffffffffffffffffffffffff1673ffffffffffffffffffffffffffffffffffffffff16815260200190815260200160002060008373ffffffffffffffffffffffffffffffffffffffff1673ffffffffffffffffffffffffffffffffffffffff1681526020019081526020016000206001015414156123f9576040517f08c379a00000000000000000000000000000000000000000000000000000000081526004016123f090614e3a565b60405180910390fd5b6000600660008973ffffffffffffffffffffffffffffffffffffffff1673ffffffffffffffffffffffffffffffffffffffff16815260200190815260200160002060008873ffffffffffffffffffffffffffffffffffffffff1673ffffffffffffffffffffffffffffffffffffffff168152602001908152602001600020600001549050600060405180606001604052808881526020018381526020013373ffffffffffffffffffffffffffffffffffffffff1681525090506007819080600181540180825580915050600190039060005260206000209060030201600090919091909150600082015181600001556020820151816001015560408201518160020160006101000a81548173ffffffffffffffffffffffffffffffffffffffff021916908373ffffffffffffffffffffffffffffffffffffffff160217905550505061254b6007805490506001613e06565b600860003373ffffffffffffffffffffffffffffffffffffffff1673ffffffffffffffffffffffffffffffffffffffff1681526020019081526020016000206000848152602001908152602001600020819055507faa91d567e15c1e2016a3709246e28c04ee43b0b8a33e0d21c99c7f9b751793b4816040516125ce9190614f3a565b60405180910390a1505050505050505050565b6125e961371b565b73ffffffffffffffffffffffffffffffffffffffff166126076112f9565b73ffffffffffffffffffffffffffffffffffffffff161461265d576040517f08c379a000000000000000000000000000000000000000000000000000000000815260040161265490614e7a565b60405180910390fd5b600560045411156126a3576040517f08c379a000000000000000000000000000000000000000000000000000000000815260040161269a90614efa565b60405180910390fd5b8060048190555050565b600082826000600660008473ffffffffffffffffffffffffffffffffffffffff1673ffffffffffffffffffffffffffffffffffffffff16815260200190815260200160002060008373ffffffffffffffffffffffffffffffffffffffff1673ffffffffffffffffffffffffffffffffffffffff1681526020019081526020016000206001015414612773576040517f08c379a000000000000000000000000000000000000000000000000000000000815260040161276a90614e1a565b60405180910390fd5b84848073ffffffffffffffffffffffffffffffffffffffff168273ffffffffffffffffffffffffffffffffffffffff1614156127e4576040517f08c379a00000000000000000000000000000000000000000000000000000000081526004016127db90614cfa565b60405180910390fd5b6127ec6112f9565b73ffffffffffffffffffffffffffffffffffffffff163373ffffffffffffffffffffffffffffffffffffffff1614612863576003543411612862576040517f08c379a000000000000000000000000000000000000000000000000000000000815260040161285990614e9a565b60405180910390fd5b5b6000600580549050905060056040518060800160405280838152602001600181526020018a73ffffffffffffffffffffffffffffffffffffffff1681526020018973ffffffffffffffffffffffffffffffffffffffff168152509080600181540180825580915050600190039060005260206000209060040201600090919091909150600082015181600001556020820151816001015560408201518160020160006101000a81548173ffffffffffffffffffffffffffffffffffffffff021916908373ffffffffffffffffffffffffffffffffffffffff16021790555060608201518160030160006101000a81548173ffffffffffffffffffffffffffffffffffffffff021916908373ffffffffffffffffffffffffffffffffffffffff1602179055505050600581815481106129c4577f4e487b7100000000000000000000000000000000000000000000000000000000600052603260045260246000fd5b9060005260206000209060040201600660008a73ffffffffffffffffffffffffffffffffffffffff1673ffffffffffffffffffffffffffffffffffffffff16815260200190815260200160002060008973ffffffffffffffffffffffffffffffffffffffff1673ffffffffffffffffffffffffffffffffffffffff16815260200190815260200160002060008201548160000155600182015481600101556002820160009054906101000a900473ffffffffffffffffffffffffffffffffffffffff168160020160006101000a81548173ffffffffffffffffffffffffffffffffffffffff021916908373ffffffffffffffffffffffffffffffffffffffff1602179055506003820160009054906101000a900473ffffffffffffffffffffffffffffffffffffffff168160030160006101000a81548173ffffffffffffffffffffffffffffffffffffffff021916908373ffffffffffffffffffffffffffffffffffffffff1602179055509050507f02a47afa70a0c9a6546a7935738f3a99c674b215a93b1552adf49442a51e9e7e818989604051612b6693929190614f8b565b60405180910390a1809550505050505092915050565b600160009054906101000a900473ffffffffffffffffffffffffffffffffffffffff1673ffffffffffffffffffffffffffffffffffffffff1663d0e30db0346040518263ffffffff1660e01b81526004016000604051808303818588803b158015612be657600080fd5b505af1158015612bfa573d6000803e3d6000fd5b5050505050612ca760026000600160009054906101000a900473ffffffffffffffffffffffffffffffffffffffff1673ffffffffffffffffffffffffffffffffffffffff1673ffffffffffffffffffffffffffffffffffffffff16815260200190815260200160002060003373ffffffffffffffffffffffffffffffffffffffff1673ffffffffffffffffffffffffffffffffffffffff1681526020019081526020016000205434613705565b60026000600160009054906101000a900473ffffffffffffffffffffffffffffffffffffffff1673ffffffffffffffffffffffffffffffffffffffff1673ffffffffffffffffffffffffffffffffffffffff16815260200190815260200160002060003373ffffffffffffffffffffffffffffffffffffffff1673ffffffffffffffffffffffffffffffffffffffff168152602001908152602001600020819055503373ffffffffffffffffffffffffffffffffffffffff167fbc7c8a4d8049a3f99a02f2a20640c206a2e4d3f2fa54fd20da9f01fda3620cda34604051612d8f9190614f70565b60405180910390a2565b600a5481565b6006602052816000526040600020602052806000526040600020600091509150508060000154908060010154908060020160009054906101000a900473ffffffffffffffffffffffffffffffffffffffff16908060030160009054906101000a900473ffffffffffffffffffffffffffffffffffffffff16905084565b600b5481565b612e2a61371b565b73ffffffffffffffffffffffffffffffffffffffff16612e486112f9565b73ffffffffffffffffffffffffffffffffffffffff1614612e9e576040517f08c379a0000000000000000000000000000000000000000000000000000000008152600401612e9590614e7a565b60405180910390fd5b600073ffffffffffffffffffffffffffffffffffffffff168173ffffffffffffffffffffffffffffffffffffffff161415612f0e576040517f08c379a0000000000000000000000000000000000000000000000000000000008152600401612f0590614d3a565b60405180910390fd5b612f1781613723565b50565b612f2261371b565b73ffffffffffffffffffffffffffffffffffffffff16612f406112f9565b73ffffffffffffffffffffffffffffffffffffffff1614612f96576040517f08c379a0000000000000000000000000000000000000000000000000000000008152600401612f8d90614e7a565b60405180910390fd5b61303d33600260008473ffffffffffffffffffffffffffffffffffffffff1673ffffffffffffffffffffffffffffffffffffffff16815260200190815260200160002060003073ffffffffffffffffffffffffffffffffffffffff1673ffffffffffffffffffffffffffffffffffffffff168152602001908152602001600020548373ffffffffffffffffffffffffffffffffffffffff16613e1c9092919063ffffffff16565b6000600260008373ffffffffffffffffffffffffffffffffffffffff1673ffffffffffffffffffffffffffffffffffffffff16815260200190815260200160002060003073ffffffffffffffffffffffffffffffffffffffff1673ffffffffffffffffffffffffffffffffffffffff1681526020019081526020016000208190555050565b600960009054906101000a900473ffffffffffffffffffffffffffffffffffffffff1681565b60606005805480602002602001604051908101604052809291908181526020016000905b828210156131fe578382906000526020600020906004020160405180608001604052908160008201548152602001600182015481526020016002820160009054906101000a900473ffffffffffffffffffffffffffffffffffffffff1673ffffffffffffffffffffffffffffffffffffffff1673ffffffffffffffffffffffffffffffffffffffff1681526020016003820160009054906101000a900473ffffffffffffffffffffffffffffffffffffffff1673ffffffffffffffffffffffffffffffffffffffff1673ffffffffffffffffffffffffffffffffffffffff16815250508152602001906001019061310c565b50505050905090565b80600c908051906020019061321d92919061420a565b5033600d60006101000a81548173ffffffffffffffffffffffffffffffffffffffff021916908373ffffffffffffffffffffffffffffffffffffffff16021790555050565b6060600160009054906101000a900473ffffffffffffffffffffffffffffffffffffffff1673ffffffffffffffffffffffffffffffffffffffff168373ffffffffffffffffffffffffffffffffffffffff16141580156133105750600160009054906101000a900473ffffffffffffffffffffffffffffffffffffffff1673ffffffffffffffffffffffffffffffffffffffff168273ffffffffffffffffffffffffffffffffffffffff1614155b15613513576000600367ffffffffffffffff811115613358577f4e487b7100000000000000000000000000000000000000000000000000000000600052604160045260246000fd5b6040519080825280602002602001820160405280156133865781602001602082028036833780820191505090505b50905083816000815181106133c4577f4e487b7100000000000000000000000000000000000000000000000000000000600052603260045260246000fd5b602002602001019073ffffffffffffffffffffffffffffffffffffffff16908173ffffffffffffffffffffffffffffffffffffffff1681525050600160009054906101000a900473ffffffffffffffffffffffffffffffffffffffff168160018151811061345b577f4e487b7100000000000000000000000000000000000000000000000000000000600052603260045260246000fd5b602002602001019073ffffffffffffffffffffffffffffffffffffffff16908173ffffffffffffffffffffffffffffffffffffffff168152505082816002815181106134d0577f4e487b7100000000000000000000000000000000000000000000000000000000600052603260045260246000fd5b602002602001019073ffffffffffffffffffffffffffffffffffffffff16908173ffffffffffffffffffffffffffffffffffffffff168152505080915050613676565b6000600267ffffffffffffffff811115613556577f4e487b7100000000000000000000000000000000000000000000000000000000600052604160045260246000fd5b6040519080825280602002602001820160405280156135845781602001602082028036833780820191505090505b50905083816000815181106135c2577f4e487b7100000000000000000000000000000000000000000000000000000000600052603260045260246000fd5b602002602001019073ffffffffffffffffffffffffffffffffffffffff16908173ffffffffffffffffffffffffffffffffffffffff16815250508281600181518110613637577f4e487b7100000000000000000000000000000000000000000000000000000000600052603260045260246000fd5b602002602001019073ffffffffffffffffffffffffffffffffffffffff16908173ffffffffffffffffffffffffffffffffffffffff1681525050809150505b92915050565b6136ff846323b872dd60e01b85858560405160240161369d93929190614c12565b604051602081830303815290604052907bffffffffffffffffffffffffffffffffffffffffffffffffffffffff19166020820180517bffffffffffffffffffffffffffffffffffffffffffffffffffffffff8381831617835250505050613ea2565b50505050565b60008183613713919061524a565b905092915050565b600033905090565b60008060009054906101000a900473ffffffffffffffffffffffffffffffffffffffff169050816000806101000a81548173ffffffffffffffffffffffffffffffffffffffff021916908373ffffffffffffffffffffffffffffffffffffffff1602179055508173ffffffffffffffffffffffffffffffffffffffff168173ffffffffffffffffffffffffffffffffffffffff167f8be0079c531659141344cd1fd0a4f28419497f9722a3daafe3b4186f6b6457e060405160405180910390a35050565b6000806000905060005b835181101561385d57613848848281518110613836577f4e487b7100000000000000000000000000000000000000000000000000000000600052603260045260246000fd5b60200260200101516000015183613705565b91508080613855906154bc565b9150506137f1565b5080915050919050565b60008061388161387985600454613f69565b612710613f7f565b9050613909600260008573ffffffffffffffffffffffffffffffffffffffff1673ffffffffffffffffffffffffffffffffffffffff16815260200190815260200160002060003073ffffffffffffffffffffffffffffffffffffffff1673ffffffffffffffffffffffffffffffffffffffff1681526020019081526020016000205482613705565b600260008573ffffffffffffffffffffffffffffffffffffffff1673ffffffffffffffffffffffffffffffffffffffff16815260200190815260200160002060003073ffffffffffffffffffffffffffffffffffffffff1673ffffffffffffffffffffffffffffffffffffffff168152602001908152602001600020819055506139b433828573ffffffffffffffffffffffffffffffffffffffff16613e1c9092919063ffffffff16565b6139c8846139c3836002613f69565b613e06565b91505092915050565b60005b8351811015613dfe57613aeb600260008873ffffffffffffffffffffffffffffffffffffffff1673ffffffffffffffffffffffffffffffffffffffff1681526020019081526020016000206000868481518110613a5a577f4e487b7100000000000000000000000000000000000000000000000000000000600052603260045260246000fd5b60200260200101516040015173ffffffffffffffffffffffffffffffffffffffff1673ffffffffffffffffffffffffffffffffffffffff16815260200190815260200160002054858381518110613ada577f4e487b7100000000000000000000000000000000000000000000000000000000600052603260045260246000fd5b602002602001015160000151613e06565b600260008873ffffffffffffffffffffffffffffffffffffffff1673ffffffffffffffffffffffffffffffffffffffff1681526020019081526020016000206000868481518110613b65577f4e487b7100000000000000000000000000000000000000000000000000000000600052603260045260246000fd5b60200260200101516040015173ffffffffffffffffffffffffffffffffffffffff1673ffffffffffffffffffffffffffffffffffffffff168152602001908152602001600020819055506000613c40613c04868481518110613bf0577f4e487b7100000000000000000000000000000000000000000000000000000000600052603260045260246000fd5b602002602001015160000151600a54613f69565b856040518060400160405280600981526020017f6572726f72206469760000000000000000000000000000000000000000000000815250613f95565b90506000613c59613c518584613f69565b600a54613f7f565b9050613d25600260008973ffffffffffffffffffffffffffffffffffffffff1673ffffffffffffffffffffffffffffffffffffffff1681526020019081526020016000206000888681518110613cd8577f4e487b7100000000000000000000000000000000000000000000000000000000600052603260045260246000fd5b60200260200101516040015173ffffffffffffffffffffffffffffffffffffffff1673ffffffffffffffffffffffffffffffffffffffff1681526020019081526020016000205482613705565b600260008973ffffffffffffffffffffffffffffffffffffffff1673ffffffffffffffffffffffffffffffffffffffff1681526020019081526020016000206000888681518110613d9f577f4e487b7100000000000000000000000000000000000000000000000000000000600052603260045260246000fd5b60200260200101516040015173ffffffffffffffffffffffffffffffffffffffff1673ffffffffffffffffffffffffffffffffffffffff1681526020019081526020016000208190555050508080613df6906154bc565b9150506139d4565b505050505050565b60008183613e14919061532b565b905092915050565b613e9d8363a9059cbb60e01b8484604051602401613e3b929190614c49565b604051602081830303815290604052907bffffffffffffffffffffffffffffffffffffffffffffffffffffffff19166020820180517bffffffffffffffffffffffffffffffffffffffffffffffffffffffff8381831617835250505050613ea2565b505050565b6000613f04826040518060400160405280602081526020017f5361666545524332303a206c6f772d6c6576656c2063616c6c206661696c65648152508573ffffffffffffffffffffffffffffffffffffffff1661401d9092919063ffffffff16565b9050600081511115613f645780806020019051810190613f249190614530565b613f63576040517f08c379a0000000000000000000000000000000000000000000000000000000008152600401613f5a90614eda565b60405180910390fd5b5b505050565b60008183613f7791906152d1565b905092915050565b60008183613f8d91906152a0565b905092915050565b60008083118290613fdc576040517f08c379a0000000000000000000000000000000000000000000000000000000008152600401613fd39190614cd8565b60405180910390fd5b50828481614013577f4e487b7100000000000000000000000000000000000000000000000000000000600052601260045260246000fd5b0490509392505050565b606061402c8484600085614035565b90509392505050565b60608247101561407a576040517f08c379a000000000000000000000000000000000000000000000000000000000815260040161407190614d7a565b60405180910390fd5b61408385614149565b6140c2576040517f08c379a00000000000000000000000000000000000000000000000000000000081526004016140b990614eba565b60405180910390fd5b6000808673ffffffffffffffffffffffffffffffffffffffff1685876040516140eb9190614bb7565b60006040518083038185875af1925050503d8060008114614128576040519150601f19603f3d011682016040523d82523d6000602084013e61412d565b606091505b509150915061413d82828661416c565b92505050949350505050565b6000808273ffffffffffffffffffffffffffffffffffffffff163b119050919050565b6060831561417c578290506141cc565b60008351111561418f5782518084602001fd5b816040517f08c379a00000000000000000000000000000000000000000000000000000000081526004016141c39190614cd8565b60405180910390fd5b9392505050565b60405180606001604052806000815260200160008152602001600073ffffffffffffffffffffffffffffffffffffffff1681525090565b82805461421690615425565b90600052602060002090601f016020900481019282614238576000855561427f565b82601f1061425157805160ff191683800117855561427f565b8280016001018555821561427f579182015b8281111561427e578251825591602001919060010190614263565b5b50905061428c9190614290565b5090565b5b808211156142a9576000816000905550600101614291565b5090565b60006142c06142bb84615110565b6150eb565b905080838252602082019050828560208602820111156142df57600080fd5b60005b8581101561430f57816142f588826143ea565b8452602084019350602083019250506001810190506142e2565b5050509392505050565b600061432c6143278461513c565b6150eb565b90508281526020810184848401111561434457600080fd5b61434f8482856153e3565b509392505050565b60008135905061436681615959565b92915050565b600082601f83011261437d57600080fd5b815161438d8482602086016142ad565b91505092915050565b6000815190506143a581615970565b92915050565b600082601f8301126143bc57600080fd5b81356143cc848260208601614319565b91505092915050565b6000813590506143e481615987565b92915050565b6000815190506143f981615987565b92915050565b60006020828403121561441157600080fd5b600061441f84828501614357565b91505092915050565b6000806040838503121561443b57600080fd5b600061444985828601614357565b925050602061445a85828601614357565b9150509250929050565b60008060006060848603121561447957600080fd5b600061448786828701614357565b935050602061449886828701614357565b92505060406144a9868287016143d5565b9150509250925092565b600080604083850312156144c657600080fd5b60006144d485828601614357565b92505060206144e5858286016143d5565b9150509250929050565b60006020828403121561450157600080fd5b600082015167ffffffffffffffff81111561451b57600080fd5b6145278482850161436c565b91505092915050565b60006020828403121561454257600080fd5b600061455084828501614396565b91505092915050565b60006020828403121561456b57600080fd5b600082013567ffffffffffffffff81111561458557600080fd5b614591848285016143ab565b91505092915050565b6000602082840312156145ac57600080fd5b60006145ba848285016143d5565b91505092915050565b6000602082840312156145d557600080fd5b60006145e3848285016143ea565b91505092915050565b60006145f88383614634565b60208301905092915050565b60006146108383614a5b565b60808301905092915050565b60006146288383614ab0565b60608301905092915050565b61463d81615389565b82525050565b61464c81615389565b82525050565b600061465d8261519d565b61466781856151fb565b93506146728361516d565b8060005b838110156146a357815161468a88826145ec565b9750614695836151d4565b925050600181019050614676565b5085935050505092915050565b60006146bb826151a8565b6146c5818561520c565b93506146d08361517d565b8060005b838110156147015781516146e88882614604565b97506146f3836151e1565b9250506001810190506146d4565b5085935050505092915050565b6000614719826151b3565b614723818561521d565b935061472e8361518d565b8060005b8381101561475f578151614746888261461c565b9750614751836151ee565b925050600181019050614732565b5085935050505092915050565b6000614777826151be565b614781818561522e565b93506147918185602086016153f2565b80840191505092915050565b6147a6816153d1565b82525050565b60006147b7826151c9565b6147c18185615239565b93506147d18185602086016153f2565b6147da816155c1565b840191505092915050565b60006147f2601a83615239565b91506147fd826155df565b602082019050919050565b6000614815602383615239565b915061482082615608565b604082019050919050565b6000614838602683615239565b915061484382615657565b604082019050919050565b600061485b601383615239565b9150614866826156a6565b602082019050919050565b600061487e602683615239565b9150614889826156cf565b604082019050919050565b60006148a1600f83615239565b91506148ac8261571e565b602082019050919050565b60006148c4601183615239565b91506148cf82615747565b602082019050919050565b60006148e7600e83615239565b91506148f282615770565b602082019050919050565b600061490a601a83615239565b915061491582615799565b602082019050919050565b600061492d601283615239565b9150614938826157c2565b602082019050919050565b6000614950600e83615239565b915061495b826157eb565b602082019050919050565b6000614973601e83615239565b915061497e82615814565b602082019050919050565b6000614996602083615239565b91506149a18261583d565b602082019050919050565b60006149b9601083615239565b91506149c482615866565b602082019050919050565b60006149dc601d83615239565b91506149e78261588f565b602082019050919050565b60006149ff602a83615239565b9150614a0a826158b8565b604082019050919050565b6000614a22600e83615239565b9150614a2d82615907565b602082019050919050565b6000614a45601683615239565b9150614a5082615930565b602082019050919050565b608082016000820151614a716000850182614b99565b506020820151614a846020850182614b99565b506040820151614a976040850182614634565b506060820151614aaa6060850182614634565b50505050565b606082016000820151614ac66000850182614b99565b506020820151614ad96020850182614b99565b506040820151614aec6040850182614634565b50505050565b606082016000820151614b086000850182614b99565b506020820151614b1b6020850182614b99565b506040820151614b2e6040850182614634565b50505050565b606082016000808301549050614b4981615471565b614b566000860182614b99565b5060018301549050614b6781615471565b614b746020860182614b99565b5060028301549050614b8581615457565b614b926040860182614634565b5050505050565b614ba2816153c7565b82525050565b614bb1816153c7565b82525050565b6000614bc3828461476c565b915081905092915050565b6000602082019050614be36000830184614643565b92915050565b6000604082019050614bfe6000830185614643565b614c0b6020830184614643565b9392505050565b6000606082019050614c276000830186614643565b614c346020830185614643565b614c416040830184614ba8565b949350505050565b6000604082019050614c5e6000830185614643565b614c6b6020830184614ba8565b9392505050565b60006020820190508181036000830152614c8c8184614652565b905092915050565b60006020820190508181036000830152614cae81846146b0565b905092915050565b60006020820190508181036000830152614cd0818461470e565b905092915050565b60006020820190508181036000830152614cf281846147ac565b905092915050565b60006020820190508181036000830152614d13816147e5565b9050919050565b60006020820190508181036000830152614d3381614808565b9050919050565b60006020820190508181036000830152614d538161482b565b9050919050565b60006020820190508181036000830152614d738161484e565b9050919050565b60006020820190508181036000830152614d9381614871565b9050919050565b60006020820190508181036000830152614db381614894565b9050919050565b60006020820190508181036000830152614dd3816148b7565b9050919050565b60006020820190508181036000830152614df3816148da565b9050919050565b60006020820190508181036000830152614e13816148fd565b9050919050565b60006020820190508181036000830152614e3381614920565b9050919050565b60006020820190508181036000830152614e5381614943565b9050919050565b60006020820190508181036000830152614e7381614966565b9050919050565b60006020820190508181036000830152614e9381614989565b9050919050565b60006020820190508181036000830152614eb3816149ac565b9050919050565b60006020820190508181036000830152614ed3816149cf565b9050919050565b60006020820190508181036000830152614ef3816149f2565b9050919050565b60006020820190508181036000830152614f1381614a15565b9050919050565b60006020820190508181036000830152614f3381614a38565b9050919050565b6000606082019050614f4f6000830184614af2565b92915050565b6000606082019050614f6a6000830184614b34565b92915050565b6000602082019050614f856000830184614ba8565b92915050565b6000606082019050614fa06000830186614ba8565b614fad6020830185614643565b614fba6040830184614643565b949350505050565b600060a082019050614fd76000830188614ba8565b614fe4602083018761479d565b8181036040830152614ff68186614652565b90506150056060830185614643565b6150126080830184614ba8565b9695505050505050565b60006060820190506150316000830186614ba8565b61503e6020830185614ba8565b61504b6040830184614643565b949350505050565b60006080820190506150686000830187614ba8565b6150756020830186614ba8565b6150826040830185614643565b61508f6060830184614643565b95945050505050565b600060a0820190506150ad6000830188614ba8565b6150ba6020830187614ba8565b6150c76040830186614ba8565b6150d46060830185614ba8565b6150e16080830184614ba8565b9695505050505050565b60006150f5615106565b9050615101828261548b565b919050565b6000604051905090565b600067ffffffffffffffff82111561512b5761512a615592565b5b602082029050602081019050919050565b600067ffffffffffffffff82111561515757615156615592565b5b615160826155c1565b9050602081019050919050565b6000819050602082019050919050565b6000819050602082019050919050565b6000819050602082019050919050565b600081519050919050565b600081519050919050565b600081519050919050565b600081519050919050565b600081519050919050565b6000602082019050919050565b6000602082019050919050565b6000602082019050919050565b600082825260208201905092915050565b600082825260208201905092915050565b600082825260208201905092915050565b600081905092915050565b600082825260208201905092915050565b6000615255826153c7565b9150615260836153c7565b9250827fffffffffffffffffffffffffffffffffffffffffffffffffffffffffffffffff0382111561529557615294615505565b5b828201905092915050565b60006152ab826153c7565b91506152b6836153c7565b9250826152c6576152c5615534565b5b828204905092915050565b60006152dc826153c7565b91506152e7836153c7565b9250817fffffffffffffffffffffffffffffffffffffffffffffffffffffffffffffffff04831182151516156153205761531f615505565b5b828202905092915050565b6000615336826153c7565b9150615341836153c7565b92508282101561535457615353615505565b5b828203905092915050565b600073ffffffffffffffffffffffffffffffffffffffff82169050919050565b6000819050919050565b6000615394826153a7565b9050919050565b60008115159050919050565b600073ffffffffffffffffffffffffffffffffffffffff82169050919050565b6000819050919050565b60006153dc826153c7565b9050919050565b82818337600083830152505050565b60005b838110156154105780820151818401526020810190506153f5565b8381111561541f576000848401525b50505050565b6000600282049050600182168061543d57607f821691505b6020821081141561545157615450615563565b5b50919050565b600061546a615465836155d2565b61535f565b9050919050565b600061548461547f836155d2565b61537f565b9050919050565b615494826155c1565b810181811067ffffffffffffffff821117156154b3576154b2615592565b5b80604052505050565b60006154c7826153c7565b91507fffffffffffffffffffffffffffffffffffffffffffffffffffffffffffffffff8214156154fa576154f9615505565b5b600182019050919050565b7f4e487b7100000000000000000000000000000000000000000000000000000000600052601160045260246000fd5b7f4e487b7100000000000000000000000000000000000000000000000000000000600052601260045260246000fd5b7f4e487b7100000000000000000000000000000000000000000000000000000000600052602260045260246000fd5b7f4e487b7100000000000000000000000000000000000000000000000000000000600052604160045260246000fd5b6000601f19601f8301169050919050565b60008160001c9050919050565b7f746f6b656e732063616e6e6f74206265206964656e746963616c000000000000600082015250565b7f6e6f20737562736372697074696f6e7320656c696769626c652072696768742060008201527f6e6f770000000000000000000000000000000000000000000000000000000000602082015250565b7f4f776e61626c653a206e6577206f776e657220697320746865207a65726f206160008201527f6464726573730000000000000000000000000000000000000000000000000000602082015250565b7f6e6f7420656e6f7567687420746f6b656e496e00000000000000000000000000600082015250565b7f416464726573733a20696e73756666696369656e742062616c616e636520666f60008201527f722063616c6c0000000000000000000000000000000000000000000000000000602082015250565b7f6e6f20746f6b656e20746f206275790000000000000000000000000000000000600082015250565b7f63616e27742074726967676572206e6f77000000000000000000000000000000600082015250565b7f617070726f7665206661696c6564000000000000000000000000000000000000600082015250565b7f537562736372697074696f6e20616c7265616479206578697374000000000000600082015250565b7f7061697220616c72656164792065786973740000000000000000000000000000600082015250565b7f70616972206e6f7420666f756e64000000000000000000000000000000000000600082015250565b7f746f6b656e20616c6c6f77616e6365206e6f742073756666696369656e740000600082015250565b7f4f776e61626c653a2063616c6c6572206973206e6f7420746865206f776e6572600082015250565b7f696e73756666696369656e742066656500000000000000000000000000000000600082015250565b7f416464726573733a2063616c6c20746f206e6f6e2d636f6e7472616374000000600082015250565b7f5361666545524332303a204552433230206f7065726174696f6e20646964206e60008201527f6f74207375636365656400000000000000000000000000000000000000000000602082015250565b7f6665657320746f6f206869676874000000000000000000000000000000000000600082015250565b7f537562736372697074696f6e206e6f7420666f756e6400000000000000000000600082015250565b61596281615389565b811461596d57600080fd5b50565b6159798161539b565b811461598457600080fd5b50565b615990816153c7565b811461599b57600080fd5b5056fea2646970667358221220d6d9799108220ba56a070ebed8f4d0d6fa2c615e4bd9b59f644ee0304677372164736f6c63430008010033",
  "immutableReferences": {},
  "source": "// SPDX-License-Identifier: GPL-3.0-only\npragma solidity ^0.8.0;\n\nimport \"./ElvateSubscription.sol\";\nimport \"../node_modules/@pancakeswap/periphery/contracts/interfaces/IPancakeRouter02.sol\";\n\n/// @author aussedatlo\n/// @title manager of pair/subscription trigger\ncontract ElvateCore is ElvateSubscription {\n    address public routerContractAddress;\n    // TODO: optimize size\n    uint256 public precision = 10**15;\n    uint256 public frequency = 60 * 6; // * 24;\n\n    string public s = \"\";\n    address public last;\n\n    function test(string memory _test) external {\n        s = _test;\n        last = msg.sender;\n    }\n\n    event PairTriggered(\n        uint256 indexed pairId,\n        uint256 lastPaidAt,\n        uint256 totalSubscriptions,\n        uint256 totalAmountIn,\n        uint256 totalAmountOut,\n        uint256 fees\n    );\n\n    constructor(address _WBNBAddress, address _routerContractAddress)\n        ElvateSubscription(_WBNBAddress)\n    {\n        routerContractAddress = _routerContractAddress;\n    }\n\n    /// @dev trigger all possible subscriptions of one pair\n    /// @param _tokenIn address of tokenIn\n    /// @param _tokenOut address of tokenOut\n    function triggerSubscriptions(address _tokenIn, address _tokenOut)\n        external\n        onlyExistingPair(_tokenIn, _tokenOut)\n    {\n        uint256 pairId = pairByTokenInOut[_tokenIn][_tokenOut].id;\n        uint256[] memory swapResult;\n        address[] memory path = _getPath(_tokenIn, _tokenOut);\n        Subscription[] memory eligibleSubscriptions = getEligibleSubscriptions(\n            _tokenIn,\n            _tokenOut\n        );\n        uint256 totalAmountIn = _getAmmount(eligibleSubscriptions);\n\n        require(\n            SafeMath.add(allPairs[pairId].lastPaidAt, frequency) <\n                block.timestamp,\n            \"can't trigger now\"\n        );\n        require(\n            eligibleSubscriptions.length > 0,\n            \"no subscriptions eligible right now\"\n        );\n        require(totalAmountIn > 0, \"no token to buy\");\n        require(\n            IERC20(_tokenIn).balanceOf(address(this)) >= totalAmountIn,\n            \"not enought tokenIn\"\n        );\n\n        require(\n            IERC20(_tokenIn).approve(routerContractAddress, totalAmountIn),\n            \"approve failed\"\n        );\n        uint256 allowance = IERC20(_tokenIn).allowance(\n            address(this),\n            routerContractAddress\n        );\n        require(allowance >= totalAmountIn, \"token allowance not sufficient\");\n\n        swapResult = IPancakeRouter02(routerContractAddress)\n            .swapExactTokensForTokens(\n                totalAmountIn,\n                0, // TODO: deduct amountOutMin\n                path,\n                address(this),\n                block.timestamp + 10000\n            );\n\n        // update lastPaidAt\n        allPairs[pairId].lastPaidAt = block.timestamp;\n\n        uint256 totalAmountOut = _deductFees(\n            swapResult[swapResult.length - 1],\n            _tokenOut\n        );\n\n        // distribute token to users\n        _distributeSwap(\n            _tokenIn,\n            _tokenOut,\n            eligibleSubscriptions,\n            totalAmountIn,\n            totalAmountOut\n        );\n\n        emit PairTriggered(\n            pairId,\n            allPairs[pairId].lastPaidAt,\n            eligibleSubscriptions.length,\n            totalAmountIn,\n            swapResult[swapResult.length - 1],\n            totalAmountOut\n        );\n    }\n\n    /// @dev get all subscriptions available for one pair\n    /// @param _eligibleSubscriptions list of all eligible subscriptions\n    /// @return sum of all amountIn of all eligible subscription\n    function _getAmmount(Subscription[] memory _eligibleSubscriptions)\n        internal\n        pure\n        returns (uint256)\n    {\n        uint256 totalAmountIn = 0;\n\n        for (uint256 index; index < _eligibleSubscriptions.length; index++) {\n            totalAmountIn = SafeMath.add(\n                _eligibleSubscriptions[index].amountIn,\n                totalAmountIn\n            );\n        }\n\n        return totalAmountIn;\n    }\n\n    /// @dev substract tokenIn based on subscription\n    ///      and add tokenOut based on subscription weight\n    /// @param _tokenIn address of tokenIn\n    /// @param _tokenOut address of tokenOut\n    /// @param _eligibleSubscriptions list of all eligible subscriptions\n    /// @param _totalAmountIn sum of all amountIn of all eligible subscription\n    /// @param _totalAmountOut amount of tokenOut obtained via swap\n    function _distributeSwap(\n        address _tokenIn,\n        address _tokenOut,\n        Subscription[] memory _eligibleSubscriptions,\n        uint256 _totalAmountIn,\n        uint256 _totalAmountOut\n    ) internal {\n        for (\n            uint256 index = 0;\n            index < _eligibleSubscriptions.length;\n            index++\n        ) {\n            // substract tokenIn from user deposit based on subscription\n            tokens[_tokenIn][_eligibleSubscriptions[index].owner] = SafeMath\n                .sub(\n                    tokens[_tokenIn][_eligibleSubscriptions[index].owner],\n                    _eligibleSubscriptions[index].amountIn\n                );\n\n            // weight of subscription\n            uint256 weight = SafeMath.div(\n                // TODO: limits of mul with precision ?\n                SafeMath.mul(_eligibleSubscriptions[index].amountIn, precision),\n                _totalAmountIn,\n                \"error div\"\n            );\n\n            // add amountOut to user based on weight of subscription\n            uint256 amountOut = SafeMath.div(\n                SafeMath.mul(_totalAmountOut, weight),\n                precision\n            );\n            tokens[_tokenOut][_eligibleSubscriptions[index].owner] = SafeMath\n                .add(\n                    tokens[_tokenOut][_eligibleSubscriptions[index].owner],\n                    amountOut\n                );\n        }\n    }\n\n    /// @dev get path of token pair\n    /// @param _tokenIn address of tokenIn\n    /// @param _tokenOut address of tokenOut\n    function _getPath(address _tokenIn, address _tokenOut)\n        public\n        view\n        returns (address[] memory)\n    {\n        if (_tokenIn != WBNBAddress && _tokenOut != WBNBAddress) {\n            address[] memory pathWithWBNB = new address[](3);\n            pathWithWBNB[0] = _tokenIn;\n            pathWithWBNB[1] = WBNBAddress;\n            pathWithWBNB[2] = _tokenOut;\n            return pathWithWBNB;\n        }\n\n        address[] memory path = new address[](2);\n        path[0] = _tokenIn;\n        path[1] = _tokenOut;\n        return path;\n    }\n\n    /// @dev get all subscriptions available for one pair\n    /// @param _tokenIn address of tokenIn\n    /// @param _tokenOut address of tokenOut\n    function getEligibleSubscriptions(address _tokenIn, address _tokenOut)\n        public\n        view\n        returns (Subscription[] memory)\n    {\n        uint256 count = 0;\n        // temporary array memory of the size of all subscriptions\n        Subscription[] memory eligibleSubsTemporary = new Subscription[](\n            allSubscriptions.length\n        );\n        uint256 pairId = pairByTokenInOut[_tokenIn][_tokenOut].id;\n\n        // add each eligible subscription to eligibleSubsTemporary\n        // and count them\n        for (uint256 index = 0; index < allSubscriptions.length; index++) {\n            Subscription memory sub = allSubscriptions[index];\n            if (\n                sub.pairId == pairId &&\n                tokens[_tokenIn][sub.owner] >= sub.amountIn\n            ) {\n                eligibleSubsTemporary[count] = allSubscriptions[index];\n                count++;\n            }\n        }\n\n        // create final array with the correct size\n        // containing all eligible subscriptions\n        Subscription[] memory eligibleSubs = new Subscription[](count);\n        for (uint256 index = 0; index < count; index++) {\n            eligibleSubs[index] = eligibleSubsTemporary[index];\n        }\n\n        return eligibleSubs;\n    }\n}\n",
  "sourcePath": "/home/louis/Documents/web3/ddca.app/contracts/ElvateCore.sol",
  "compiler": {
    "name": "solc",
    "version": "0.8.1+commit.df193b15.Emscripten.clang"
  },
  "schemaVersion": "3.3.4",
  "updatedAt": "2022-05-07T16:27:13.776Z",
  "networkType": "ethereum",
  "devdoc": {
    "author": "aussedatlo",
    "kind": "dev",
    "methods": {
      "_getPath(address,address)": {
        "details": "get path of token pair",
        "params": {
          "_tokenIn": "address of tokenIn",
          "_tokenOut": "address of tokenOut"
        }
      },
      "createPair(address,address)": {
        "details": "create pair",
        "params": {
          "_tokenIn": "address of tokenIn",
          "_tokenOut": "address of tokenOut"
        }
      },
      "editSubscriptionByTokenInOut(address,address,uint256)": {
        "details": "edit subscription",
        "params": {
          "_amountIn": "amount to put on each buy",
          "_tokenIn": "address of tokenIn",
          "_tokenOut": "address of tokenOut"
        }
      },
      "getAllPairs()": {
        "details": "get all pairs",
        "returns": {
          "_0": "array of all pairs"
        }
      },
      "getAllSubscriptions()": {
        "details": "get all subscriptions",
        "returns": {
          "_0": "array of all subscriptions"
        }
      },
      "getEligibleSubscriptions(address,address)": {
        "details": "get all subscriptions available for one pair",
        "params": {
          "_tokenIn": "address of tokenIn",
          "_tokenOut": "address of tokenOut"
        }
      },
      "owner()": {
        "details": "Returns the address of the current owner."
      },
      "renounceOwnership()": {
        "details": "Leaves the contract without owner. It will not be possible to call `onlyOwner` functions anymore. Can only be called by the current owner. NOTE: Renouncing ownership will leave the contract without an owner, thereby removing any functionality that is only available to the owner."
      },
      "subscribeToPairByTokenInOut(address,address,uint256)": {
        "details": "subscribe to a pair",
        "params": {
          "_amountIn": "amount to put on each buy",
          "_tokenIn": "address of tokenIn",
          "_tokenOut": "address of tokenOut"
        }
      },
      "transferOwnership(address)": {
        "details": "Transfers ownership of the contract to a new account (`newOwner`). Can only be called by the current owner."
      },
      "triggerSubscriptions(address,address)": {
        "details": "trigger all possible subscriptions of one pair",
        "params": {
          "_tokenIn": "address of tokenIn",
          "_tokenOut": "address of tokenOut"
        }
      },
      "updatePairCreationFee(uint256)": {
        "details": "update pair creation fee"
      },
      "updateSwapFee(uint256)": {
        "details": "update swap fee"
      },
      "withdrawFees()": {
        "details": "retrieve all BNB fees"
      },
      "withdrawTokenFees(address)": {
        "details": "retrieve all specific token fees"
      }
    },
    "title": "manager of pair/subscription trigger",
    "version": 1
  },
  "userdoc": {
    "kind": "user",
    "methods": {
      "allPairs(uint256)": {
        "notice": "array of all pairs"
      },
      "allSubscriptions(uint256)": {
        "notice": "array of all subscriptions"
      },
      "editSubscriptionByTokenInOut(address,address,uint256)": {
        "notice": "available only if pair exist and         if subscription to this pair exist"
      },
      "pairByTokenInOut(address,address)": {
        "notice": "pair by tokenIn tokenOut"
      },
      "subscribeToPairByTokenInOut(address,address,uint256)": {
        "notice": "available only if pair exist and         if no subscription to this pair exist"
      },
      "subscriptionByUserPairId(address,uint256)": {
        "notice": "subscriptions id by owner, pair id"
      }
    },
    "version": 1
  }
}