{
  "_format": "hh-sol-artifact-1",
  "contractName": "ElvateCore",
  "sourceName": "contracts/ElvateCore.sol",
  "abi": [
    {
      "inputs": [
        {
          "internalType": "address",
          "name": "_routerContractAddress",
          "type": "address"
        },
        {
          "internalType": "address",
          "name": "_wrappedContractAddress",
          "type": "address"
        }
      ],
      "stateMutability": "nonpayable",
      "type": "constructor"
    },
    {
      "anonymous": false,
      "inputs": [
        {
          "indexed": true,
          "internalType": "address",
          "name": "previousOwner",
          "type": "address"
        },
        {
          "indexed": true,
          "internalType": "address",
          "name": "newOwner",
          "type": "address"
        }
      ],
      "name": "OwnershipTransferred",
      "type": "event"
    },
    {
      "anonymous": false,
      "inputs": [
        {
          "indexed": false,
          "internalType": "uint256",
          "name": "_id",
          "type": "uint256"
        },
        {
          "indexed": false,
          "internalType": "address",
          "name": "_tokenIn",
          "type": "address"
        },
        {
          "indexed": false,
          "internalType": "address",
          "name": "_tokenOut",
          "type": "address"
        }
      ],
      "name": "PairCreated",
      "type": "event"
    },
    {
      "anonymous": false,
      "inputs": [
        {
          "indexed": true,
          "internalType": "uint256",
          "name": "pairId",
          "type": "uint256"
        },
        {
          "indexed": false,
          "internalType": "uint256",
          "name": "lastPaidAt",
          "type": "uint256"
        },
        {
          "indexed": false,
          "internalType": "uint256",
          "name": "totalSubscriptions",
          "type": "uint256"
        },
        {
          "indexed": false,
          "internalType": "uint256",
          "name": "totalAmountIn",
          "type": "uint256"
        },
        {
          "indexed": false,
          "internalType": "uint256",
          "name": "totalAmountOut",
          "type": "uint256"
        },
        {
          "indexed": false,
          "internalType": "uint256",
          "name": "fees",
          "type": "uint256"
        }
      ],
      "name": "PairTriggered",
      "type": "event"
    },
    {
      "anonymous": false,
      "inputs": [
        {
          "indexed": false,
          "internalType": "uint256",
          "name": "_pairId",
          "type": "uint256"
        },
        {
          "indexed": false,
          "internalType": "address",
          "name": "_owner",
          "type": "address"
        },
        {
          "indexed": false,
          "internalType": "uint256",
          "name": "_amountIn",
          "type": "uint256"
        }
      ],
      "name": "SubEdited",
      "type": "event"
    },
    {
      "anonymous": false,
      "inputs": [
        {
          "indexed": true,
          "internalType": "address",
          "name": "_owner",
          "type": "address"
        },
        {
          "indexed": true,
          "internalType": "address",
          "name": "_token",
          "type": "address"
        },
        {
          "indexed": false,
          "internalType": "uint256",
          "name": "_amount",
          "type": "uint256"
        }
      ],
      "name": "TokenDeposited",
      "type": "event"
    },
    {
      "anonymous": false,
      "inputs": [
        {
          "indexed": true,
          "internalType": "address",
          "name": "_owner",
          "type": "address"
        },
        {
          "indexed": true,
          "internalType": "address",
          "name": "_token",
          "type": "address"
        },
        {
          "indexed": false,
          "internalType": "uint256",
          "name": "_amount",
          "type": "uint256"
        }
      ],
      "name": "TokenWithdrawal",
      "type": "event"
    },
    {
      "inputs": [
        {
          "internalType": "uint256",
          "name": "",
          "type": "uint256"
        }
      ],
      "name": "allPairs",
      "outputs": [
        {
          "internalType": "uint256",
          "name": "id",
          "type": "uint256"
        },
        {
          "internalType": "uint256",
          "name": "lastPaidAt",
          "type": "uint256"
        },
        {
          "internalType": "address",
          "name": "tokenIn",
          "type": "address"
        },
        {
          "internalType": "address",
          "name": "tokenOut",
          "type": "address"
        }
      ],
      "stateMutability": "view",
      "type": "function"
    },
    {
      "inputs": [
        {
          "internalType": "address",
          "name": "_tokenIn",
          "type": "address"
        },
        {
          "internalType": "address",
          "name": "_tokenOut",
          "type": "address"
        }
      ],
      "name": "createPair",
      "outputs": [],
      "stateMutability": "payable",
      "type": "function"
    },
    {
      "inputs": [],
      "name": "deposit",
      "outputs": [],
      "stateMutability": "payable",
      "type": "function"
    },
    {
      "inputs": [
        {
          "internalType": "address",
          "name": "",
          "type": "address"
        },
        {
          "internalType": "address",
          "name": "",
          "type": "address"
        }
      ],
      "name": "depositByOwnerByToken",
      "outputs": [
        {
          "internalType": "uint256",
          "name": "",
          "type": "uint256"
        }
      ],
      "stateMutability": "view",
      "type": "function"
    },
    {
      "inputs": [
        {
          "internalType": "address",
          "name": "_token",
          "type": "address"
        },
        {
          "internalType": "uint256",
          "name": "_amount",
          "type": "uint256"
        }
      ],
      "name": "depositToken",
      "outputs": [],
      "stateMutability": "nonpayable",
      "type": "function"
    },
    {
      "inputs": [],
      "name": "frequency",
      "outputs": [
        {
          "internalType": "uint16",
          "name": "",
          "type": "uint16"
        }
      ],
      "stateMutability": "view",
      "type": "function"
    },
    {
      "inputs": [],
      "name": "getAllPairs",
      "outputs": [
        {
          "components": [
            {
              "internalType": "uint256",
              "name": "id",
              "type": "uint256"
            },
            {
              "internalType": "uint256",
              "name": "lastPaidAt",
              "type": "uint256"
            },
            {
              "internalType": "address",
              "name": "tokenIn",
              "type": "address"
            },
            {
              "internalType": "address",
              "name": "tokenOut",
              "type": "address"
            },
            {
              "internalType": "address[]",
              "name": "subs",
              "type": "address[]"
            }
          ],
          "internalType": "struct ElvatePair.Pair[]",
          "name": "",
          "type": "tuple[]"
        }
      ],
      "stateMutability": "view",
      "type": "function"
    },
    {
      "inputs": [
        {
          "internalType": "address",
          "name": "_tokenIn",
          "type": "address"
        },
        {
          "internalType": "address",
          "name": "_tokenOut",
          "type": "address"
        }
      ],
      "name": "getEligibleSubscription",
      "outputs": [
        {
          "internalType": "address[]",
          "name": "",
          "type": "address[]"
        },
        {
          "internalType": "uint256",
          "name": "",
          "type": "uint256"
        },
        {
          "internalType": "uint256",
          "name": "",
          "type": "uint256"
        }
      ],
      "stateMutability": "view",
      "type": "function"
    },
    {
      "inputs": [
        {
          "internalType": "address",
          "name": "_tokenIn",
          "type": "address"
        },
        {
          "internalType": "address",
          "name": "_tokenOut",
          "type": "address"
        }
      ],
      "name": "getPairSubs",
      "outputs": [
        {
          "components": [
            {
              "internalType": "uint256",
              "name": "amountIn",
              "type": "uint256"
            },
            {
              "internalType": "address",
              "name": "owner",
              "type": "address"
            }
          ],
          "internalType": "struct ElvatePair.Sub[]",
          "name": "",
          "type": "tuple[]"
        }
      ],
      "stateMutability": "view",
      "type": "function"
    },
    {
      "inputs": [],
      "name": "owner",
      "outputs": [
        {
          "internalType": "address",
          "name": "",
          "type": "address"
        }
      ],
      "stateMutability": "view",
      "type": "function"
    },
    {
      "inputs": [],
      "name": "pairCreationFees",
      "outputs": [
        {
          "internalType": "uint128",
          "name": "",
          "type": "uint128"
        }
      ],
      "stateMutability": "view",
      "type": "function"
    },
    {
      "inputs": [
        {
          "internalType": "address",
          "name": "",
          "type": "address"
        },
        {
          "internalType": "address",
          "name": "",
          "type": "address"
        }
      ],
      "name": "pairIdByTokenInOut",
      "outputs": [
        {
          "internalType": "uint256",
          "name": "",
          "type": "uint256"
        }
      ],
      "stateMutability": "view",
      "type": "function"
    },
    {
      "inputs": [],
      "name": "poolFee",
      "outputs": [
        {
          "internalType": "uint24",
          "name": "",
          "type": "uint24"
        }
      ],
      "stateMutability": "view",
      "type": "function"
    },
    {
      "inputs": [],
      "name": "precision",
      "outputs": [
        {
          "internalType": "uint128",
          "name": "",
          "type": "uint128"
        }
      ],
      "stateMutability": "view",
      "type": "function"
    },
    {
      "inputs": [],
      "name": "renounceOwnership",
      "outputs": [],
      "stateMutability": "nonpayable",
      "type": "function"
    },
    {
      "inputs": [],
      "name": "routerContractAddress",
      "outputs": [
        {
          "internalType": "address",
          "name": "",
          "type": "address"
        }
      ],
      "stateMutability": "view",
      "type": "function"
    },
    {
      "inputs": [
        {
          "internalType": "address",
          "name": "",
          "type": "address"
        },
        {
          "internalType": "uint256",
          "name": "",
          "type": "uint256"
        }
      ],
      "name": "subAmountInByOwnerPairId",
      "outputs": [
        {
          "internalType": "uint256",
          "name": "",
          "type": "uint256"
        }
      ],
      "stateMutability": "view",
      "type": "function"
    },
    {
      "inputs": [
        {
          "internalType": "address",
          "name": "_tokenIn",
          "type": "address"
        },
        {
          "internalType": "address",
          "name": "_tokenOut",
          "type": "address"
        },
        {
          "internalType": "uint256",
          "name": "_amountIn",
          "type": "uint256"
        }
      ],
      "name": "subscribe",
      "outputs": [],
      "stateMutability": "nonpayable",
      "type": "function"
    },
    {
      "inputs": [],
      "name": "swapFees",
      "outputs": [
        {
          "internalType": "uint16",
          "name": "",
          "type": "uint16"
        }
      ],
      "stateMutability": "view",
      "type": "function"
    },
    {
      "inputs": [
        {
          "internalType": "address",
          "name": "newOwner",
          "type": "address"
        }
      ],
      "name": "transferOwnership",
      "outputs": [],
      "stateMutability": "nonpayable",
      "type": "function"
    },
    {
      "inputs": [
        {
          "internalType": "address",
          "name": "_tokenIn",
          "type": "address"
        },
        {
          "internalType": "address",
          "name": "_tokenOut",
          "type": "address"
        }
      ],
      "name": "triggerPair",
      "outputs": [],
      "stateMutability": "nonpayable",
      "type": "function"
    },
    {
      "inputs": [
        {
          "internalType": "address",
          "name": "_tokenIn",
          "type": "address"
        },
        {
          "internalType": "address",
          "name": "_tokenOut",
          "type": "address"
        }
      ],
      "name": "unsubscribe",
      "outputs": [],
      "stateMutability": "nonpayable",
      "type": "function"
    },
    {
      "inputs": [
        {
          "internalType": "uint16",
          "name": "_swapFees",
          "type": "uint16"
        },
        {
          "internalType": "uint128",
          "name": "_pairCreationFees",
          "type": "uint128"
        }
      ],
      "name": "updateFees",
      "outputs": [],
      "stateMutability": "nonpayable",
      "type": "function"
    },
    {
      "inputs": [],
      "name": "withdrawFees",
      "outputs": [],
      "stateMutability": "nonpayable",
      "type": "function"
    },
    {
      "inputs": [
        {
          "internalType": "address",
          "name": "_token",
          "type": "address"
        },
        {
          "internalType": "uint256",
          "name": "_amount",
          "type": "uint256"
        }
      ],
      "name": "withdrawToken",
      "outputs": [],
      "stateMutability": "nonpayable",
      "type": "function"
    },
    {
      "inputs": [
        {
          "internalType": "address",
          "name": "_token",
          "type": "address"
        }
      ],
      "name": "withdrawTokenFees",
      "outputs": [],
      "stateMutability": "nonpayable",
      "type": "function"
    },
    {
      "inputs": [],
      "name": "wrappedContractAddress",
      "outputs": [
        {
          "internalType": "address",
          "name": "",
          "type": "address"
        }
      ],
      "stateMutability": "view",
      "type": "function"
    }
  ],
  "bytecode": "0x60e06040526003805467016345785d8a00006001600160801b03199091161761ffff60801b1916602d60831b17905564071afd498d608f1b60c05260068054600561ffff199091161790553480156200005757600080fd5b50604051620030ac380380620030ac8339810160408190526200007a9162000123565b806200008f62000089620000b2565b620000b6565b6001600160601b0319606091821b811660805292901b90911660a052506200015a565b3390565b600080546001600160a01b038381166001600160a01b0319831681178455604051919092169283917f8be0079c531659141344cd1fd0a4f28419497f9722a3daafe3b4186f6b6457e09190a35050565b80516001600160a01b03811681146200011e57600080fd5b919050565b6000806040838503121562000136578182fd5b620001418362000106565b9150620001516020840162000106565b90509250929050565b60805160601c60a05160601c60c05160801c612ed3620001d96000396000818161120601528181611f67015261200f0152600081816106e3015281816107f101526119e30152600081816110d001528181611153015281816111aa01528181611af401528181611cc001528181611cfd0152611d3d0152612ed36000f3fe6080604052600436106101ac5760003560e01c8063b0559d4f116100ec578063f03bf0b11161008a578063f73bc05311610064578063f73bc0531461048c578063f800ece9146104a1578063f940389e146104c3578063fe5eded8146104d8576101ac565b8063f03bf0b11461041d578063f2fde38b1461044c578063f62722a01461046c576101ac565b8063d0e30db0116100c6578063d0e30db0146103cb578063d3b5dc3b146103d3578063e135532c146103e8578063ead50da314610408576101ac565b8063b0559d4f14610369578063b9ccf21d14610396578063c9c65396146103b8576101ac565b8063476343ee116101595780637288ffb3116101335780637288ffb3146102e75780638da5cb5b146103075780639e281a9814610329578063a678427c14610349576101ac565b8063476343ee1461029b5780636f7f3a01146102b0578063715018a6146102d2576101ac565b8063338b5dea1161018a578063338b5dea1461022e578063371131bc1461024e5780634327662a1461027b576101ac565b8063089fe6aa146101b15780630a2b7cfb146101dc5780631e3dd18b146101fe575b600080fd5b3480156101bd57600080fd5b506101c66104f8565b6040516101d39190612d2d565b60405180910390f35b3480156101e857600080fd5b506101fc6101f73660046124f8565b6104fe565b005b34801561020a57600080fd5b5061021e610219366004612541565b610587565b6040516101d39493929190612d84565b34801561023a57600080fd5b506101fc6102493660046124af565b6105cd565b34801561025a57600080fd5b5061026e610269366004612442565b610663565b6040516101d39190612d3d565b34801561028757600080fd5b506101fc610296366004612442565b610680565b3480156102a757600080fd5b506101fc61090f565b3480156102bc57600080fd5b506102c561099d565b6040516101d39190612d0a565b3480156102de57600080fd5b506101fc6109ac565b3480156102f357600080fd5b506101fc610302366004612474565b6109f7565b34801561031357600080fd5b5061031c610b7f565b6040516101d39190612687565b34801561033557600080fd5b506101fc6103443660046124af565b610b8e565b34801561035557600080fd5b5061026e6103643660046124af565b610c61565b34801561037557600080fd5b50610389610384366004612442565b610c7e565b6040516101d391906127fa565b3480156103a257600080fd5b506103ab610e77565b6040516101d39190612d1e565b6101fc6103c6366004612442565b610e81565b6101fc6110ce565b3480156103df57600080fd5b506102c5611204565b3480156103f457600080fd5b506101fc610403366004612442565b611228565b34801561041457600080fd5b506103ab6114a2565b34801561042957600080fd5b5061043d610438366004612442565b6114c0565b6040516101d3939291906126d8565b34801561045857600080fd5b506101fc610467366004612428565b6118a3565b34801561047857600080fd5b506101fc610487366004612428565b611911565b34801561049857600080fd5b5061031c6119e1565b3480156104ad57600080fd5b506104b6611a05565b6040516101d3919061272e565b3480156104cf57600080fd5b5061031c611af2565b3480156104e457600080fd5b5061026e6104f3366004612442565b611b16565b610bb881565b610506611b33565b6001600160a01b0316610517610b7f565b6001600160a01b0316146105465760405162461bcd60e51b815260040161053d90612ad7565b60405180910390fd5b6006805461ffff191661ffff9390931692909217909155600380546fffffffffffffffffffffffffffffffff19166001600160801b03909216919091179055565b6002818154811061059757600080fd5b60009182526020909120600590910201805460018201546002830154600390930154919350916001600160a01b03908116911684565b6105e26001600160a01b038316333084611b37565b3360009081526001602090815260408083206001600160a01b038616845290915281208054839290610615908490612dd2565b90915550506040516001600160a01b0383169033907ff1444b5cad7ce70cb018d1b8edc8618fe303f3c7f034d8d572a6e27facbf2bef90610657908590612d3d565b60405180910390a35050565b600460209081526000928352604080842090915290825290205481565b606060008060006106918686611bc2565b61069b86866114c0565b91955092509050806106bf5760405162461bcd60e51b815260040161053d90612c7a565b60405163095ea7b360e01b81526001600160a01b0387169063095ea7b39061070d907f00000000000000000000000000000000000000000000000000000000000000009086906004016126bf565b602060405180830381600087803b15801561072757600080fd5b505af115801561073b573d6000803e3d6000fd5b505050506040513d601f19601f8201168201806040525081019061075f91906124d8565b61077b5760405162461bcd60e51b815260040161053d90612a32565b6000821161079b5760405162461bcd60e51b815260040161053d90612a69565b60006040518060a001604052806107b28989611cbc565b81523060208201526040016107c84260c8612dd2565b81526020810185905260006040918201525163c04b8d5960e01b81529091506001600160a01b037f0000000000000000000000000000000000000000000000000000000000000000169063c04b8d5990610826908490600401612cb1565b602060405180830381600087803b15801561084057600080fd5b505af1158015610854573d6000803e3d6000fd5b505050506040513d601f19601f820116820180604052508101906108789190612559565b935060006108868588611db9565b9050610896888888868886611e4c565b6001600160a01b038089166000908152600460209081526040808320938b16835292905281902054600654915190917f8af97e576376ddfccb83227d1d4467a9951d82c571e9e469bb78ebeb30f79c2c916108fd91429188918a91889161ffff1690612dab565b60405180910390a25050505050505050565b610917611b33565b6001600160a01b0316610928610b7f565b6001600160a01b03161461094e5760405162461bcd60e51b815260040161053d90612ad7565b6000471161096e5760405162461bcd60e51b815260040161053d9061289c565b60405133904780156108fc02916000818181858888f1935050505015801561099a573d6000803e3d6000fd5b50565b6003546001600160801b031681565b6109b4611b33565b6001600160a01b03166109c5610b7f565b6001600160a01b0316146109eb5760405162461bcd60e51b815260040161053d90612ad7565b6109f56000612158565b565b6001600160a01b0380841660009081526004602090815260408083209386168352929052205483908390610a3d5760405162461bcd60e51b815260040161053d90612be6565b60008311610a5d5760405162461bcd60e51b815260040161053d90612b43565b6001600160a01b0380861660009081526004602090815260408083209388168352928152828220543383526005825283832081845290915291902054610b1e5733600090815260056020908152604080832084845290915290208490556002610ac7600183612e29565b81548110610ae557634e487b7160e01b600052603260045260246000fd5b60009182526020808320600460059093020191909101805460018101825590835291200180546001600160a01b03191633179055610b3c565b33600090815260056020908152604080832084845290915290208490555b7f88eb1a219baac1d4e630b3c86d796058e67e71e5a97e37b84f01017d17f33703813386604051610b6f93929190612d65565b60405180910390a1505050505050565b6000546001600160a01b031690565b3360009081526001602090815260408083206001600160a01b0386168452909152902054811115610bd15760405162461bcd60e51b815260040161053d90612aa0565b3360009081526001602090815260408083206001600160a01b038616845290915281208054839290610c04908490612e29565b90915550610c1e90506001600160a01b03831633836121a8565b816001600160a01b0316336001600160a01b03167f42856d0378dde02337bb59ae41747abc77ded8ebdbbc5cbdd1e53693b7554938836040516106579190612d3d565b600560209081526000928352604080842090915290825290205481565b6001600160a01b0380831660009081526004602090815260408083209385168352929052205460609083908390610cc75760405162461bcd60e51b815260040161053d90612be6565b6001600160a01b038086166000908152600460209081526040808320938816835292905290812054906002610cfd600184612e29565b81548110610d1b57634e487b7160e01b600052603260045260246000fd5b90600052602060002090600502016004018054905067ffffffffffffffff811115610d5657634e487b7160e01b600052604160045260246000fd5b604051908082528060200260200182016040528015610d8f57816020015b610d7c612380565b815260200190600190039081610d745790505b50905060005b8151811015610e6c576000828281518110610dc057634e487b7160e01b600052603260045260246000fd5b602002602001015190506002600185610dd99190612e29565b81548110610df757634e487b7160e01b600052603260045260246000fd5b90600052602060002090600502016004018281548110610e2757634e487b7160e01b600052603260045260246000fd5b60009182526020808320909101546001600160a01b03168382018190528252600581526040808320878452909152902054905280610e6481612e6c565b915050610d95565b509695505050505050565b60065461ffff1681565b6001600160a01b038083166000908152600460209081526040808320938516835292905220548290829015610ec85760405162461bcd60e51b815260040161053d90612865565b826001600160a01b0316846001600160a01b03161415610efa5760405162461bcd60e51b815260040161053d9061299e565b610f02610b7f565b6001600160a01b0316336001600160a01b031614610f45576003546001600160801b0316341015610f455760405162461bcd60e51b815260040161053d90612baf565b600254600090610f56906001612dd2565b905060026040518060a0016040528083815260200160018152602001876001600160a01b03168152602001866001600160a01b03168152602001600067ffffffffffffffff811115610fb857634e487b7160e01b600052604160045260246000fd5b604051908082528060200260200182016040528015610fe1578160200160208202803683370190505b50905281546001818101845560009384526020938490208351600590930201918255838301519082015560408201516002820180546001600160a01b039283166001600160a01b031991821617909155606084015160038401805491909316911617905560808201518051929391926110609260048501920190612397565b5050506001600160a01b0380861660009081526004602090815260408083209388168352929052819020829055517f02a47afa70a0c9a6546a7935738f3a99c674b215a93b1552adf49442a51e9e7e906110bf90839088908890612d46565b60405180910390a15050505050565b7f00000000000000000000000000000000000000000000000000000000000000006001600160a01b031663d0e30db0346040518263ffffffff1660e01b81526004016000604051808303818588803b15801561112957600080fd5b505af115801561113d573d6000803e3d6000fd5b50503360009081526001602090815260408083207f00000000000000000000000000000000000000000000000000000000000000006001600160a01b0316845290915281208054349550909350909150611198908490612dd2565b90915550506040516001600160a01b037f0000000000000000000000000000000000000000000000000000000000000000169033907ff1444b5cad7ce70cb018d1b8edc8618fe303f3c7f034d8d572a6e27facbf2bef906111fa903490612d3d565b60405180910390a3565b7f000000000000000000000000000000000000000000000000000000000000000081565b6001600160a01b038083166000908152600460209081526040808320938516835292905220548290829061126e5760405162461bcd60e51b815260040161053d90612be6565b6001600160a01b0380851660009081526004602090815260408083209387168352929052908120549060026112a4600184612e29565b815481106112c257634e487b7160e01b600052603260045260246000fd5b60009182526020808320338452600580835260408086208887529093529190932054910290910191506113075760405162461bcd60e51b815260040161053d90612967565b60005b600482015481101561146d57336001600160a01b031682600401828154811061134357634e487b7160e01b600052603260045260246000fd5b6000918252602090912001546001600160a01b0316141561145b5733600090815260056020908152604080832086845290915281205560048201805461138b90600190612e29565b815481106113a957634e487b7160e01b600052603260045260246000fd5b6000918252602090912001546004830180546001600160a01b0390921691839081106113e557634e487b7160e01b600052603260045260246000fd5b9060005260206000200160006101000a8154816001600160a01b0302191690836001600160a01b031602179055508160040180548061143457634e487b7160e01b600052603160045260246000fd5b600082815260209020810160001990810180546001600160a01b031916905501905561146d565b8061146581612e6c565b91505061130a565b507f88eb1a219baac1d4e630b3c86d796058e67e71e5a97e37b84f01017d17f3370382336000604051610b6f93929190612d65565b600354700100000000000000000000000000000000900461ffff1681565b6001600160a01b0380831660009081526004602090815260408083209385168352929052908120546060919081908590859061150e5760405162461bcd60e51b815260040161053d90612be6565b6001600160a01b038088166000908152600460209081526040808320938a16835292905290812054906002611544600184612e29565b8154811061156257634e487b7160e01b600052603260045260246000fd5b90600052602060002090600502016004018054905067ffffffffffffffff81111561159d57634e487b7160e01b600052604160045260246000fd5b6040519080825280602002602001820160405280156115c6578160200160208202803683370190505b509050600060026115d8600185612e29565b815481106115f657634e487b7160e01b600052603260045260246000fd5b60009182526020918290206040805160a08101825260059093029091018054835260018101548385015260028101546001600160a01b039081168484015260038201541660608401526004810180548351818702810187019094528084529394919360808601939283018282801561169757602002820191906000526020600020905b81546001600160a01b03168152600190910190602001808311611679575b505050505081525050905060008060005b83608001515181101561188f5760056000856080015183815181106116dd57634e487b7160e01b600052603260045260246000fd5b60200260200101516001600160a01b03166001600160a01b03168152602001908152602001600020600087815260200190815260200160002054600160008660800151848151811061173f57634e487b7160e01b600052603260045260246000fd5b60200260200101516001600160a01b03166001600160a01b03168152602001908152602001600020600086604001516001600160a01b03166001600160a01b03168152602001908152602001600020541061187d57836080015181815181106117b857634e487b7160e01b600052603260045260246000fd5b60200260200101518583815181106117e057634e487b7160e01b600052603260045260246000fd5b60200260200101906001600160a01b031690816001600160a01b031681525050600560008560800151838151811061182857634e487b7160e01b600052603260045260246000fd5b60200260200101516001600160a01b03166001600160a01b031681526020019081526020016000206000878152602001908152602001600020548361186d9190612dd2565b92508161187981612e6c565b9250505b8061188781612e6c565b9150506116a8565b509298509650909450505050509250925092565b6118ab611b33565b6001600160a01b03166118bc610b7f565b6001600160a01b0316146118e25760405162461bcd60e51b815260040161053d90612ad7565b6001600160a01b0381166119085760405162461bcd60e51b815260040161053d9061290a565b61099a81612158565b611919611b33565b6001600160a01b031661192a610b7f565b6001600160a01b0316146119505760405162461bcd60e51b815260040161053d90612ad7565b3060009081526001602090815260408083206001600160a01b0385168452909152902054806119915760405162461bcd60e51b815260040161053d9061289c565b6119a56001600160a01b03831633836121a8565b3060009081526001602090815260408083206001600160a01b0386168452909152812080548392906119d8908490612e29565b90915550505050565b7f000000000000000000000000000000000000000000000000000000000000000081565b60606002805480602002602001604051908101604052809291908181526020016000905b82821015611ae95760008481526020908190206040805160a081018252600586029092018054835260018101548385015260028101546001600160a01b0390811684840152600382015416606084015260048101805483518187028101870190945280845293949193608086019392830182828015611ad157602002820191906000526020600020905b81546001600160a01b03168152600190910190602001808311611ab3575b50505050508152505081526020019060010190611a29565b50505050905090565b7f000000000000000000000000000000000000000000000000000000000000000081565b600160209081526000928352604080842090915290825290205481565b3390565b611bbc846323b872dd60e01b858585604051602401611b589392919061269b565b60408051601f198184030181529190526020810180517bffffffffffffffffffffffffffffffffffffffffffffffffffffffff167fffffffff00000000000000000000000000000000000000000000000000000000909316929092179091526121cc565b50505050565b6001600160a01b0380831660009081526004602090815260408083209385168352929052205482908290611c085760405162461bcd60e51b815260040161053d90612be6565b6001600160a01b038085166000908152600460209081526040808320938716835292905290812054600290611c3f90600190612e29565b81548110611c5d57634e487b7160e01b600052603260045260246000fd5b9060005260206000209060050201905042600360109054906101000a900461ffff1661ffff168260010154611c929190612dd2565b10611caf5760405162461bcd60e51b815260040161053d90612b0c565b4260019091015550505050565b60607f00000000000000000000000000000000000000000000000000000000000000006001600160a01b0316836001600160a01b031614158015611d3257507f00000000000000000000000000000000000000000000000000000000000000006001600160a01b0316826001600160a01b031614155b15611d8a5782610bb87f0000000000000000000000000000000000000000000000000000000000000000610bb885604051602001611d74959493929190612601565b6040516020818303038152906040529050611db3565b82610bb883604051602001611da1939291906125ae565b60405160208183030381529060405290505b92915050565b600654600090819061271090611dd39061ffff1686612e0a565b611ddd9190612dea565b3060009081526001602090815260408083206001600160a01b0388168452909152812080549293508392909190611e15908490612dd2565b90915550611e2f90506001600160a01b03841633836121a8565b611e3a816002612e0a565b611e449085612e29565b949350505050565b6001600160a01b03808716600090815260046020908152604080832093891683529290529081205490805b858110156120eb5760056000888381518110611ea357634e487b7160e01b600052603260045260246000fd5b60200260200101516001600160a01b03166001600160a01b0316815260200190815260200160002060008481526020019081526020016000205460016000898481518110611f0157634e487b7160e01b600052603260045260246000fd5b60200260200101516001600160a01b03166001600160a01b0316815260200190815260200160002060008b6001600160a01b03166001600160a01b031681526020019081526020016000206000828254611f5b9190612e29565b925050819055506000857f00000000000000000000000000000000000000000000000000000000000000006001600160801b0316600560008b8681518110611fb357634e487b7160e01b600052603260045260246000fd5b60200260200101516001600160a01b03166001600160a01b03168152602001908152602001600020600087815260200190815260200160002054611ff79190612e0a565b6120019190612dea565b905060006001600160801b037f0000000000000000000000000000000000000000000000000000000000000000166120398388612e0a565b6120439190612dea565b905080600160008b868151811061206a57634e487b7160e01b600052603260045260246000fd5b60200260200101516001600160a01b03166001600160a01b0316815260200190815260200160002060008c6001600160a01b03166001600160a01b0316815260200190815260200160002060008282546120c49190612dd2565b909155506120d490508185612dd2565b9350505080806120e390612e6c565b915050611e77565b508083101561210c5760405162461bcd60e51b815260040161053d906128d3565b6121168184612e29565b3060009081526001602090815260408083206001600160a01b038c16845290915281208054909190612149908490612dd2565b90915550505050505050505050565b600080546001600160a01b038381166001600160a01b0319831681178455604051919092169283917f8be0079c531659141344cd1fd0a4f28419497f9722a3daafe3b4186f6b6457e09190a35050565b6121c78363a9059cbb60e01b8484604051602401611b589291906126bf565b505050565b6000612221826040518060400160405280602081526020017f5361666545524332303a206c6f772d6c6576656c2063616c6c206661696c6564815250856001600160a01b031661225b9092919063ffffffff16565b8051909150156121c7578080602001905181019061223f91906124d8565b6121c75760405162461bcd60e51b815260040161053d90612c1d565b606061226a8484600085612274565b90505b9392505050565b6060824710156122965760405162461bcd60e51b815260040161053d906129d5565b61229f85612334565b6122bb5760405162461bcd60e51b815260040161053d90612b78565b600080866001600160a01b031685876040516122d7919061266b565b60006040518083038185875af1925050503d8060008114612314576040519150601f19603f3d011682016040523d82523d6000602084013e612319565b606091505b5091509150612329828286612347565b979650505050505050565b6001600160a01b0381163b15155b919050565b6060831561235657508161226d565b8251156123665782518084602001fd5b8160405162461bcd60e51b815260040161053d9190612852565b604080518082019091526000808252602082015290565b8280548282559060005260206000209081019282156123ec579160200282015b828111156123ec57825182546001600160a01b0319166001600160a01b039091161782556020909201916001909101906123b7565b506123f89291506123fc565b5090565b5b808211156123f857600081556001016123fd565b80356001600160a01b038116811461234257600080fd5b600060208284031215612439578081fd5b61226d82612411565b60008060408385031215612454578081fd5b61245d83612411565b915061246b60208401612411565b90509250929050565b600080600060608486031215612488578081fd5b61249184612411565b925061249f60208501612411565b9150604084013590509250925092565b600080604083850312156124c1578182fd5b6124ca83612411565b946020939093013593505050565b6000602082840312156124e9578081fd5b8151801515811461226d578182fd5b6000806040838503121561250a578182fd5b823561ffff8116811461251b578283fd5b915060208301356001600160801b0381168114612536578182fd5b809150509250929050565b600060208284031215612552578081fd5b5035919050565b60006020828403121561256a578081fd5b5051919050565b6001600160a01b0316815260200190565b6000815180845261259a816020860160208601612e40565b601f01601f19169290920160200192915050565b606093841b6bffffffffffffffffffffffff19908116825260e89390931b7fffffff0000000000000000000000000000000000000000000000000000000000166014820152921b166017820152602b0190565b6bffffffffffffffffffffffff19606096871b811682527fffffff000000000000000000000000000000000000000000000000000000000060e896871b8116601484015294871b811660178301529290941b909216602b840152921b909116602e82015260420190565b6000825161267d818460208701612e40565b9190910192915050565b6001600160a01b0391909116815260200190565b6001600160a01b039384168152919092166020820152604081019190915260600190565b6001600160a01b03929092168252602082015260400190565b606080825284519082018190526000906020906080840190828801845b8281101561271a5781516001600160a01b0316845292840192908401906001016126f5565b505050908301949094525060400152919050565b60208082528251828201819052600091906040908185019080840286018301878501865b838110156127ec57888303603f190185528151805184528781015188850152868101516001600160a01b03908116888601526060808301519091169085015260809081015160a0918501829052805191850182905288019060c08501908a905b808210156127d7576127c5838551612571565b92508a840193506001820191506127b2565b50509588019593505090860190600101612752565b509098975050505050505050565b602080825282518282018190526000919060409081850190868401855b82811015612845578151805185528601516001600160a01b0316868501529284019290850190600101612817565b5091979650505050505050565b60006020825261226d6020830184612582565b60208082526012908201527f5061697220616c72656164792065786973740000000000000000000000000000604082015260600190565b60208082526013908201527f4e6f7468696e6720746f20776974686472617700000000000000000000000000604082015260600190565b60208082526014908201527f496e76616c696420646973747269627574696f6e000000000000000000000000604082015260600190565b60208082526026908201527f4f776e61626c653a206e6577206f776e657220697320746865207a65726f206160408201527f6464726573730000000000000000000000000000000000000000000000000000606082015260800190565b60208082526015908201527f4e6f20737562736372697074696f6e20666f756e640000000000000000000000604082015260600190565b6020808252601a908201527f546f6b656e732063616e6e6f74206265206964656e746963616c000000000000604082015260600190565b60208082526026908201527f416464726573733a20696e73756666696369656e742062616c616e636520666f60408201527f722063616c6c0000000000000000000000000000000000000000000000000000606082015260800190565b6020808252600e908201527f417070726f7665206661696c6564000000000000000000000000000000000000604082015260600190565b6020808252600e908201527f4e6f7468696e6720746f20627579000000000000000000000000000000000000604082015260600190565b60208082526013908201527f4e6f7420656e6f75676874206465706f73697400000000000000000000000000604082015260600190565b6020808252818101527f4f776e61626c653a2063616c6c6572206973206e6f7420746865206f776e6572604082015260600190565b6020808252601b908201527f556e61626c6520746f2074726967676572207269676874206e6f770000000000604082015260600190565b6020808252818101527f43616e277420737562736372696265207769746820616d6f756e74203c3d2030604082015260600190565b6020808252601d908201527f416464726573733a2063616c6c20746f206e6f6e2d636f6e7472616374000000604082015260600190565b60208082526011908201527f496e73756666696369656e742066656573000000000000000000000000000000604082015260600190565b6020808252600d908201527f4e6f207061697220666f756e6400000000000000000000000000000000000000604082015260600190565b6020808252602a908201527f5361666545524332303a204552433230206f7065726174696f6e20646964206e60408201527f6f74207375636365656400000000000000000000000000000000000000000000606082015260800190565b60208082526019908201527f4e6f20656c696769626c6520737562736372697074696f6e7300000000000000604082015260600190565b600060208252825160a06020840152612ccd60c0840182612582565b90506001600160a01b0360208501511660408401526040840151606084015260608401516080840152608084015160a08401528091505092915050565b6001600160801b0391909116815260200190565b61ffff91909116815260200190565b62ffffff91909116815260200190565b90815260200190565b9283526001600160a01b03918216602084015216604082015260600190565b9283526001600160a01b03919091166020830152604082015260600190565b93845260208401929092526001600160a01b03908116604084015216606082015260800190565b94855260208501939093526040840191909152606083015261ffff16608082015260a00190565b60008219821115612de557612de5612e87565b500190565b600082612e0557634e487b7160e01b81526012600452602481fd5b500490565b6000816000190483118215151615612e2457612e24612e87565b500290565b600082821015612e3b57612e3b612e87565b500390565b60005b83811015612e5b578181015183820152602001612e43565b83811115611bbc5750506000910152565b6000600019821415612e8057612e80612e87565b5060010190565b634e487b7160e01b600052601160045260246000fdfea2646970667358221220b6de6149cd154cae34d31e7844d4448f210508b97a5eda98bd9bc8be2aaed95864736f6c63430008010033",
  "linkReferences": {},
  "deployedLinkReferences": {}
}