{
  "_format": "hh-sol-artifact-1",
  "contractName": "ElvateCore",
  "sourceName": "contracts/ElvateCore.sol",
  "abi": [
    {
      "anonymous": false,
      "inputs": [
        {
          "indexed": true,
          "internalType": "address",
          "name": "previousOwner",
          "type": "address"
        },
        {
          "indexed": true,
          "internalType": "address",
          "name": "newOwner",
          "type": "address"
        }
      ],
      "name": "OwnershipTransferred",
      "type": "event"
    },
    {
      "anonymous": false,
      "inputs": [
        {
          "indexed": true,
          "internalType": "uint256",
          "name": "pairId",
          "type": "uint256"
        },
        {
          "indexed": false,
          "internalType": "uint256",
          "name": "lastPaidAt",
          "type": "uint256"
        },
        {
          "indexed": false,
          "internalType": "uint256",
          "name": "totalSubscriptions",
          "type": "uint256"
        },
        {
          "indexed": false,
          "internalType": "uint256",
          "name": "totalAmountIn",
          "type": "uint256"
        },
        {
          "indexed": false,
          "internalType": "uint256",
          "name": "totalAmountOut",
          "type": "uint256"
        },
        {
          "indexed": false,
          "internalType": "uint256",
          "name": "fees",
          "type": "uint256"
        }
      ],
      "name": "PairTriggered",
      "type": "event"
    },
    {
      "anonymous": false,
      "inputs": [
        {
          "indexed": true,
          "internalType": "address",
          "name": "_owner",
          "type": "address"
        },
        {
          "indexed": true,
          "internalType": "address",
          "name": "_token",
          "type": "address"
        },
        {
          "indexed": false,
          "internalType": "uint256",
          "name": "_amount",
          "type": "uint256"
        }
      ],
      "name": "TokenDeposited",
      "type": "event"
    },
    {
      "anonymous": false,
      "inputs": [
        {
          "indexed": true,
          "internalType": "address",
          "name": "_owner",
          "type": "address"
        },
        {
          "indexed": true,
          "internalType": "address",
          "name": "_token",
          "type": "address"
        },
        {
          "indexed": false,
          "internalType": "uint256",
          "name": "_amount",
          "type": "uint256"
        }
      ],
      "name": "TokenWithdrawal",
      "type": "event"
    },
    {
      "inputs": [],
      "name": "deposit",
      "outputs": [],
      "stateMutability": "payable",
      "type": "function"
    },
    {
      "inputs": [
        {
          "internalType": "address",
          "name": "",
          "type": "address"
        },
        {
          "internalType": "address",
          "name": "",
          "type": "address"
        }
      ],
      "name": "depositByOwnerByToken",
      "outputs": [
        {
          "internalType": "uint256",
          "name": "",
          "type": "uint256"
        }
      ],
      "stateMutability": "view",
      "type": "function"
    },
    {
      "inputs": [
        {
          "internalType": "address",
          "name": "",
          "type": "address"
        },
        {
          "internalType": "address",
          "name": "",
          "type": "address"
        }
      ],
      "name": "depositByUserByToken",
      "outputs": [
        {
          "internalType": "uint256",
          "name": "",
          "type": "uint256"
        }
      ],
      "stateMutability": "view",
      "type": "function"
    },
    {
      "inputs": [
        {
          "internalType": "address",
          "name": "_token",
          "type": "address"
        },
        {
          "internalType": "uint256",
          "name": "_amount",
          "type": "uint256"
        }
      ],
      "name": "depositToken",
      "outputs": [],
      "stateMutability": "nonpayable",
      "type": "function"
    },
    {
      "inputs": [],
      "name": "frequency",
      "outputs": [
        {
          "internalType": "uint256",
          "name": "",
          "type": "uint256"
        }
      ],
      "stateMutability": "view",
      "type": "function"
    },
    {
      "inputs": [
        {
          "internalType": "address",
          "name": "_owner",
          "type": "address"
        },
        {
          "internalType": "address",
          "name": "_token",
          "type": "address"
        }
      ],
      "name": "getDepositedToken",
      "outputs": [
        {
          "internalType": "uint256",
          "name": "",
          "type": "uint256"
        }
      ],
      "stateMutability": "view",
      "type": "function"
    },
    {
      "inputs": [
        {
          "internalType": "address",
          "name": "_tokenIn",
          "type": "address"
        },
        {
          "internalType": "address",
          "name": "_tokenOut",
          "type": "address"
        }
      ],
      "name": "getEligibleSubscription",
      "outputs": [
        {
          "internalType": "uint256[]",
          "name": "",
          "type": "uint256[]"
        },
        {
          "internalType": "uint256",
          "name": "",
          "type": "uint256"
        },
        {
          "internalType": "uint256",
          "name": "",
          "type": "uint256"
        }
      ],
      "stateMutability": "view",
      "type": "function"
    },
    {
      "inputs": [],
      "name": "owner",
      "outputs": [
        {
          "internalType": "address",
          "name": "",
          "type": "address"
        }
      ],
      "stateMutability": "view",
      "type": "function"
    },
    {
      "inputs": [],
      "name": "pairContractAddress",
      "outputs": [
        {
          "internalType": "address",
          "name": "",
          "type": "address"
        }
      ],
      "stateMutability": "view",
      "type": "function"
    },
    {
      "inputs": [],
      "name": "precision",
      "outputs": [
        {
          "internalType": "uint128",
          "name": "",
          "type": "uint128"
        }
      ],
      "stateMutability": "view",
      "type": "function"
    },
    {
      "inputs": [],
      "name": "renounceOwnership",
      "outputs": [],
      "stateMutability": "nonpayable",
      "type": "function"
    },
    {
      "inputs": [],
      "name": "routerContractAddress",
      "outputs": [
        {
          "internalType": "address",
          "name": "",
          "type": "address"
        }
      ],
      "stateMutability": "view",
      "type": "function"
    },
    {
      "inputs": [],
      "name": "subscriptionContractAddress",
      "outputs": [
        {
          "internalType": "address",
          "name": "",
          "type": "address"
        }
      ],
      "stateMutability": "view",
      "type": "function"
    },
    {
      "inputs": [],
      "name": "swapFee",
      "outputs": [
        {
          "internalType": "uint16",
          "name": "",
          "type": "uint16"
        }
      ],
      "stateMutability": "view",
      "type": "function"
    },
    {
      "inputs": [
        {
          "internalType": "address",
          "name": "newOwner",
          "type": "address"
        }
      ],
      "name": "transferOwnership",
      "outputs": [],
      "stateMutability": "nonpayable",
      "type": "function"
    },
    {
      "inputs": [
        {
          "internalType": "address",
          "name": "_tokenIn",
          "type": "address"
        },
        {
          "internalType": "address",
          "name": "_tokenOut",
          "type": "address"
        }
      ],
      "name": "trigger",
      "outputs": [],
      "stateMutability": "nonpayable",
      "type": "function"
    },
    {
      "inputs": [
        {
          "internalType": "address",
          "name": "_routerContractAddress",
          "type": "address"
        },
        {
          "internalType": "address",
          "name": "_pairContractAddress",
          "type": "address"
        },
        {
          "internalType": "address",
          "name": "_subscriptionContractAddress",
          "type": "address"
        },
        {
          "internalType": "address",
          "name": "_wrappedContractAddress",
          "type": "address"
        }
      ],
      "name": "updateContractAddresses",
      "outputs": [],
      "stateMutability": "nonpayable",
      "type": "function"
    },
    {
      "inputs": [
        {
          "internalType": "address",
          "name": "_token",
          "type": "address"
        },
        {
          "internalType": "uint256",
          "name": "_amount",
          "type": "uint256"
        }
      ],
      "name": "withdrawToken",
      "outputs": [],
      "stateMutability": "nonpayable",
      "type": "function"
    },
    {
      "inputs": [],
      "name": "wrappedContractAddress",
      "outputs": [
        {
          "internalType": "address",
          "name": "",
          "type": "address"
        }
      ],
      "stateMutability": "view",
      "type": "function"
    }
  ],
  "bytecode": "0x608060405266038d7ea4c68000600660006101000a8154816fffffffffffffffffffffffffffffffff02191690836fffffffffffffffffffffffffffffffff1602179055506101686007556005600860006101000a81548161ffff021916908361ffff1602179055503480156200007557600080fd5b50620000966200008a6200009c60201b60201c565b620000a460201b60201c565b62000168565b600033905090565b60008060009054906101000a900473ffffffffffffffffffffffffffffffffffffffff169050816000806101000a81548173ffffffffffffffffffffffffffffffffffffffff021916908373ffffffffffffffffffffffffffffffffffffffff1602179055508173ffffffffffffffffffffffffffffffffffffffff168173ffffffffffffffffffffffffffffffffffffffff167f8be0079c531659141344cd1fd0a4f28419497f9722a3daafe3b4186f6b6457e060405160405180910390a35050565b6138db80620001786000396000f3fe6080604052600436106101145760003560e01c8063b92814d8116100a0578063f03bf0b111610064578063f03bf0b11461035a578063f2fde38b14610399578063f73bc053146103c2578063f940389e146103ed578063fe5eded81461041857610114565b8063b92814d814610294578063c88f1a7a146102bd578063d0e30db0146102fa578063d3b5dc3b14610304578063ead50da31461032f57610114565b80636dfcf1b3116100e75780636dfcf1b3146101d5578063715018a6146102005780638a61809c146102175780638da5cb5b146102405780639e281a981461026b57610114565b80630d9e45881461011957806317801b3014610156578063338b5dea1461018157806354cf2aeb146101aa575b600080fd5b34801561012557600080fd5b50610140600480360381019061013b91906128da565b610455565b60405161014d919061313e565b60405180910390f35b34801561016257600080fd5b5061016b6104dc565b6040516101789190612e84565b60405180910390f35b34801561018d57600080fd5b506101a860048036038101906101a39190612979565b610502565b005b3480156101b657600080fd5b506101bf61062b565b6040516101cc9190613123565b60405180910390f35b3480156101e157600080fd5b506101ea61063f565b6040516101f79190612e84565b60405180910390f35b34801561020c57600080fd5b50610215610665565b005b34801561022357600080fd5b5061023e60048036038101906102399190612916565b6106ed565b005b34801561024c57600080fd5b50610255610873565b6040516102629190612e84565b60405180910390f35b34801561027757600080fd5b50610292600480360381019061028d9190612979565b61089c565b005b3480156102a057600080fd5b506102bb60048036038101906102b691906128da565b6109c3565b005b3480156102c957600080fd5b506102e460048036038101906102df91906128da565b610ee3565b6040516102f1919061313e565b60405180910390f35b610302610f08565b005b34801561031057600080fd5b506103196110c9565b6040516103269190613108565b60405180910390f35b34801561033b57600080fd5b506103446110eb565b604051610351919061313e565b60405180910390f35b34801561036657600080fd5b50610381600480360381019061037c91906128da565b6110f1565b60405161039093929190612f28565b60405180910390f35b3480156103a557600080fd5b506103c060048036038101906103bb91906128b1565b611586565b005b3480156103ce57600080fd5b506103d761167e565b6040516103e49190612e84565b60405180910390f35b3480156103f957600080fd5b506104026116a4565b60405161040f9190612e84565b60405180910390f35b34801561042457600080fd5b5061043f600480360381019061043a91906128da565b6116ca565b60405161044c919061313e565b60405180910390f35b6000600260008473ffffffffffffffffffffffffffffffffffffffff1673ffffffffffffffffffffffffffffffffffffffff16815260200190815260200160002060008373ffffffffffffffffffffffffffffffffffffffff1673ffffffffffffffffffffffffffffffffffffffff16815260200190815260200160002054905092915050565b600460009054906101000a900473ffffffffffffffffffffffffffffffffffffffff1681565b61052f3330838573ffffffffffffffffffffffffffffffffffffffff166116ef909392919063ffffffff16565b80600260003373ffffffffffffffffffffffffffffffffffffffff1673ffffffffffffffffffffffffffffffffffffffff16815260200190815260200160002060008473ffffffffffffffffffffffffffffffffffffffff1673ffffffffffffffffffffffffffffffffffffffff16815260200190815260200160002060008282546105bb9190613330565b925050819055508173ffffffffffffffffffffffffffffffffffffffff163373ffffffffffffffffffffffffffffffffffffffff167ff1444b5cad7ce70cb018d1b8edc8618fe303f3c7f034d8d572a6e27facbf2bef8360405161061f919061313e565b60405180910390a35050565b600860009054906101000a900461ffff1681565b600560009054906101000a900473ffffffffffffffffffffffffffffffffffffffff1681565b61066d611778565b73ffffffffffffffffffffffffffffffffffffffff1661068b610873565b73ffffffffffffffffffffffffffffffffffffffff16146106e1576040517f08c379a00000000000000000000000000000000000000000000000000000000081526004016106d890613068565b60405180910390fd5b6106eb6000611780565b565b6106f5611778565b73ffffffffffffffffffffffffffffffffffffffff16610713610873565b73ffffffffffffffffffffffffffffffffffffffff1614610769576040517f08c379a000000000000000000000000000000000000000000000000000000000815260040161076090613068565b60405180910390fd5b83600360006101000a81548173ffffffffffffffffffffffffffffffffffffffff021916908373ffffffffffffffffffffffffffffffffffffffff16021790555082600460006101000a81548173ffffffffffffffffffffffffffffffffffffffff021916908373ffffffffffffffffffffffffffffffffffffffff16021790555081600560006101000a81548173ffffffffffffffffffffffffffffffffffffffff021916908373ffffffffffffffffffffffffffffffffffffffff16021790555080600160006101000a81548173ffffffffffffffffffffffffffffffffffffffff021916908373ffffffffffffffffffffffffffffffffffffffff16021790555050505050565b60008060009054906101000a900473ffffffffffffffffffffffffffffffffffffffff16905090565b6108c733828473ffffffffffffffffffffffffffffffffffffffff166118449092919063ffffffff16565b80600260003373ffffffffffffffffffffffffffffffffffffffff1673ffffffffffffffffffffffffffffffffffffffff16815260200190815260200160002060008473ffffffffffffffffffffffffffffffffffffffff1673ffffffffffffffffffffffffffffffffffffffff16815260200190815260200160002060008282546109539190613411565b925050819055508173ffffffffffffffffffffffffffffffffffffffff163373ffffffffffffffffffffffffffffffffffffffff167f42856d0378dde02337bb59ae41747abc77ded8ebdbbc5cbdd1e53693b7554938836040516109b7919061313e565b60405180910390a35050565b606060008060006109d486866118ca565b90506060600460009054906101000a900473ffffffffffffffffffffffffffffffffffffffff1673ffffffffffffffffffffffffffffffffffffffff1663b92814d888886040518363ffffffff1660e01b8152600401610a35929190612e9f565b600060405180830381600087803b158015610a4f57600080fd5b505af1158015610a63573d6000803e3d6000fd5b50505050610a7187876110f1565b80955081965082975050505060008311610ac0576040517f08c379a0000000000000000000000000000000000000000000000000000000008152600401610ab7906130e8565b60405180910390fd5b8673ffffffffffffffffffffffffffffffffffffffff1663095ea7b3600360009054906101000a900473ffffffffffffffffffffffffffffffffffffffff16866040518363ffffffff1660e01b8152600401610b1d929190612eff565b602060405180830381600087803b158015610b3757600080fd5b505af1158015610b4b573d6000803e3d6000fd5b505050506040513d601f19601f82011682018060405250810190610b6f9190612a78565b610bae576040517f08c379a0000000000000000000000000000000000000000000000000000000008152600401610ba590613008565b60405180910390fd5b60008773ffffffffffffffffffffffffffffffffffffffff1663dd62ed3e30600360009054906101000a900473ffffffffffffffffffffffffffffffffffffffff166040518363ffffffff1660e01b8152600401610c0d929190612e9f565b60206040518083038186803b158015610c2557600080fd5b505afa158015610c39573d6000803e3d6000fd5b505050506040513d601f19601f82011682018060405250810190610c5d9190612aa1565b905084811015610ca2576040517f08c379a0000000000000000000000000000000000000000000000000000000008152600401610c9990612fa8565b60405180910390fd5b6000600360009054906101000a900473ffffffffffffffffffffffffffffffffffffffff1673ffffffffffffffffffffffffffffffffffffffff1663d06ca61f87866040518363ffffffff1660e01b8152600401610d01929190613159565b60006040518083038186803b158015610d1957600080fd5b505afa158015610d2d573d6000803e3d6000fd5b505050506040513d6000823e3d601f19601f82011682018060405250810190610d569190612a37565b9050600360009054906101000a900473ffffffffffffffffffffffffffffffffffffffff1673ffffffffffffffffffffffffffffffffffffffff166338ed1739878360018551610da69190613411565b81518110610ddd577f4e487b7100000000000000000000000000000000000000000000000000000000600052603260045260246000fd5b6020026020010151873061271042610df59190613330565b6040518663ffffffff1660e01b8152600401610e15959493929190613189565b600060405180830381600087803b158015610e2f57600080fd5b505af1158015610e43573d6000803e3d6000fd5b505050506040513d6000823e3d601f19601f82011682018060405250810190610e6c9190612a37565b92506000610ec78460018651610e829190613411565b81518110610eb9577f4e487b7100000000000000000000000000000000000000000000000000000000600052603260045260246000fd5b60200260200101518a611ce4565b9050610ed78a8a8a898b86611df5565b50505050505050505050565b6009602052816000526040600020602052806000526040600020600091509150505481565b600160009054906101000a900473ffffffffffffffffffffffffffffffffffffffff1673ffffffffffffffffffffffffffffffffffffffff1663d0e30db0346040518263ffffffff1660e01b81526004016000604051808303818588803b158015610f7257600080fd5b505af1158015610f86573d6000803e3d6000fd5b505050505034600260003373ffffffffffffffffffffffffffffffffffffffff1673ffffffffffffffffffffffffffffffffffffffff1681526020019081526020016000206000600160009054906101000a900473ffffffffffffffffffffffffffffffffffffffff1673ffffffffffffffffffffffffffffffffffffffff1673ffffffffffffffffffffffffffffffffffffffff16815260200190815260200160002060008282546110399190613330565b92505081905550600160009054906101000a900473ffffffffffffffffffffffffffffffffffffffff1673ffffffffffffffffffffffffffffffffffffffff163373ffffffffffffffffffffffffffffffffffffffff167ff1444b5cad7ce70cb018d1b8edc8618fe303f3c7f034d8d572a6e27facbf2bef346040516110bf919061313e565b60405180910390a3565b600660009054906101000a90046fffffffffffffffffffffffffffffffff1681565b60075481565b60606000806000806000600460009054906101000a900473ffffffffffffffffffffffffffffffffffffffff1673ffffffffffffffffffffffffffffffffffffffff1663371131bc89896040518363ffffffff1660e01b8152600401611158929190612e9f565b60206040518083038186803b15801561117057600080fd5b505afa158015611184573d6000803e3d6000fd5b505050506040513d601f19601f820116820180604052508101906111a89190612aa1565b90506000600460009054906101000a900473ffffffffffffffffffffffffffffffffffffffff1673ffffffffffffffffffffffffffffffffffffffff1663f800ece96040518163ffffffff1660e01b815260040160006040518083038186803b15801561121457600080fd5b505afa158015611228573d6000803e3d6000fd5b505050506040513d6000823e3d601f19601f8201168201806040525081019061125191906129b5565b90506000600560009054906101000a900473ffffffffffffffffffffffffffffffffffffffff1673ffffffffffffffffffffffffffffffffffffffff166356eb00a16040518163ffffffff1660e01b815260040160006040518083038186803b1580156112bd57600080fd5b505afa1580156112d1573d6000803e3d6000fd5b505050506040513d6000823e3d601f19601f820116820180604052508101906112fa91906129f6565b90506000815167ffffffffffffffff81111561133f577f4e487b7100000000000000000000000000000000000000000000000000000000600052604160045260246000fd5b60405190808252806020026020018201604052801561136d5781602001602082028036833780820191505090505b50905060005b825181101561156f57848382815181106113b6577f4e487b7100000000000000000000000000000000000000000000000000000000600052603260045260246000fd5b6020026020010151602001511480156114b05750828181518110611403577f4e487b7100000000000000000000000000000000000000000000000000000000600052603260045260246000fd5b6020026020010151600001516114ad84838151811061144b577f4e487b7100000000000000000000000000000000000000000000000000000000600052603260045260246000fd5b602002602001015160400151866001896114659190613411565b8151811061149c577f4e487b7100000000000000000000000000000000000000000000000000000000600052603260045260246000fd5b602002602001015160400151610455565b10155b1561155c57808288815181106114ef577f4e487b7100000000000000000000000000000000000000000000000000000000600052603260045260246000fd5b602002602001018181525050828181518110611534577f4e487b7100000000000000000000000000000000000000000000000000000000600052603260045260246000fd5b6020026020010151600001518661154b9190613330565b955086806115589061351b565b9750505b80806115679061351b565b915050611373565b508085879850985098505050505050509250925092565b61158e611778565b73ffffffffffffffffffffffffffffffffffffffff166115ac610873565b73ffffffffffffffffffffffffffffffffffffffff1614611602576040517f08c379a00000000000000000000000000000000000000000000000000000000081526004016115f990613068565b60405180910390fd5b600073ffffffffffffffffffffffffffffffffffffffff168173ffffffffffffffffffffffffffffffffffffffff161415611672576040517f08c379a000000000000000000000000000000000000000000000000000000000815260040161166990612f88565b60405180910390fd5b61167b81611780565b50565b600360009054906101000a900473ffffffffffffffffffffffffffffffffffffffff1681565b600160009054906101000a900473ffffffffffffffffffffffffffffffffffffffff1681565b6002602052816000526040600020602052806000526040600020600091509150505481565b611772846323b872dd60e01b85858560405160240161171093929190612ec8565b604051602081830303815290604052907bffffffffffffffffffffffffffffffffffffffffffffffffffffffff19166020820180517bffffffffffffffffffffffffffffffffffffffffffffffffffffffff8381831617835250505050612335565b50505050565b600033905090565b60008060009054906101000a900473ffffffffffffffffffffffffffffffffffffffff169050816000806101000a81548173ffffffffffffffffffffffffffffffffffffffff021916908373ffffffffffffffffffffffffffffffffffffffff1602179055508173ffffffffffffffffffffffffffffffffffffffff168173ffffffffffffffffffffffffffffffffffffffff167f8be0079c531659141344cd1fd0a4f28419497f9722a3daafe3b4186f6b6457e060405160405180910390a35050565b6118c58363a9059cbb60e01b8484604051602401611863929190612eff565b604051602081830303815290604052907bffffffffffffffffffffffffffffffffffffffffffffffffffffffff19166020820180517bffffffffffffffffffffffffffffffffffffffffffffffffffffffff8381831617835250505050612335565b505050565b6060600160009054906101000a900473ffffffffffffffffffffffffffffffffffffffff1673ffffffffffffffffffffffffffffffffffffffff168373ffffffffffffffffffffffffffffffffffffffff16141580156119785750600160009054906101000a900473ffffffffffffffffffffffffffffffffffffffff1673ffffffffffffffffffffffffffffffffffffffff168273ffffffffffffffffffffffffffffffffffffffff1614155b15611b7b576000600367ffffffffffffffff8111156119c0577f4e487b7100000000000000000000000000000000000000000000000000000000600052604160045260246000fd5b6040519080825280602002602001820160405280156119ee5781602001602082028036833780820191505090505b5090508381600081518110611a2c577f4e487b7100000000000000000000000000000000000000000000000000000000600052603260045260246000fd5b602002602001019073ffffffffffffffffffffffffffffffffffffffff16908173ffffffffffffffffffffffffffffffffffffffff1681525050600160009054906101000a900473ffffffffffffffffffffffffffffffffffffffff1681600181518110611ac3577f4e487b7100000000000000000000000000000000000000000000000000000000600052603260045260246000fd5b602002602001019073ffffffffffffffffffffffffffffffffffffffff16908173ffffffffffffffffffffffffffffffffffffffff16815250508281600281518110611b38577f4e487b7100000000000000000000000000000000000000000000000000000000600052603260045260246000fd5b602002602001019073ffffffffffffffffffffffffffffffffffffffff16908173ffffffffffffffffffffffffffffffffffffffff168152505080915050611cde565b6000600267ffffffffffffffff811115611bbe577f4e487b7100000000000000000000000000000000000000000000000000000000600052604160045260246000fd5b604051908082528060200260200182016040528015611bec5781602001602082028036833780820191505090505b5090508381600081518110611c2a577f4e487b7100000000000000000000000000000000000000000000000000000000600052603260045260246000fd5b602002602001019073ffffffffffffffffffffffffffffffffffffffff16908173ffffffffffffffffffffffffffffffffffffffff16815250508281600181518110611c9f577f4e487b7100000000000000000000000000000000000000000000000000000000600052603260045260246000fd5b602002602001019073ffffffffffffffffffffffffffffffffffffffff16908173ffffffffffffffffffffffffffffffffffffffff1681525050809150505b92915050565b600080612710600860009054906101000a900461ffff1661ffff1685611d0a91906133b7565b611d149190613386565b905080600260003073ffffffffffffffffffffffffffffffffffffffff1673ffffffffffffffffffffffffffffffffffffffff16815260200190815260200160002060008573ffffffffffffffffffffffffffffffffffffffff1673ffffffffffffffffffffffffffffffffffffffff1681526020019081526020016000206000828254611da29190613330565b92505081905550611dd433828573ffffffffffffffffffffffffffffffffffffffff166118449092919063ffffffff16565b600281611de191906133b7565b84611dec9190613411565b91505092915050565b6000805b8481101561224a57600080600560009054906101000a900473ffffffffffffffffffffffffffffffffffffffff1673ffffffffffffffffffffffffffffffffffffffff16634f95bcb6898581518110611e7b577f4e487b7100000000000000000000000000000000000000000000000000000000600052603260045260246000fd5b60200260200101516040518263ffffffff1660e01b8152600401611e9f919061313e565b60606040518083038186803b158015611eb757600080fd5b505afa158015611ecb573d6000803e3d6000fd5b505050506040513d601f19601f82011682018060405250810190611eef9190612aca565b925050915081600260008373ffffffffffffffffffffffffffffffffffffffff1673ffffffffffffffffffffffffffffffffffffffff16815260200190815260200160002060008c73ffffffffffffffffffffffffffffffffffffffff1673ffffffffffffffffffffffffffffffffffffffff168152602001908152602001600020541015611fb3576040517f08c379a0000000000000000000000000000000000000000000000000000000008152600401611faa90613048565b60405180910390fd5b81600260008373ffffffffffffffffffffffffffffffffffffffff1673ffffffffffffffffffffffffffffffffffffffff16815260200190815260200160002060008c73ffffffffffffffffffffffffffffffffffffffff1673ffffffffffffffffffffffffffffffffffffffff168152602001908152602001600020600082825461203f9190613411565b9250508190555060008611612089576040517f08c379a000000000000000000000000000000000000000000000000000000000815260040161208090613088565b60405180910390fd5b600086600660009054906101000a90046fffffffffffffffffffffffffffffffff166fffffffffffffffffffffffffffffffff16846120c891906133b7565b6120d29190613386565b90506000600660009054906101000a90046fffffffffffffffffffffffffffffffff166fffffffffffffffffffffffffffffffff1611612147576040517f08c379a000000000000000000000000000000000000000000000000000000000815260040161213e90612fc8565b60405180910390fd5b6000600660009054906101000a90046fffffffffffffffffffffffffffffffff166fffffffffffffffffffffffffffffffff16828861218691906133b7565b6121909190613386565b905080600260008573ffffffffffffffffffffffffffffffffffffffff1673ffffffffffffffffffffffffffffffffffffffff16815260200190815260200160002060008d73ffffffffffffffffffffffffffffffffffffffff1673ffffffffffffffffffffffffffffffffffffffff168152602001908152602001600020600082825461221e9190613330565b9250508190555080866122319190613330565b95505050505080806122429061351b565b915050611df9565b508082101561228e576040517f08c379a000000000000000000000000000000000000000000000000000000000815260040161228590613028565b60405180910390fd5b808261229a9190613411565b600260003073ffffffffffffffffffffffffffffffffffffffff1673ffffffffffffffffffffffffffffffffffffffff16815260200190815260200160002060008873ffffffffffffffffffffffffffffffffffffffff1673ffffffffffffffffffffffffffffffffffffffff16815260200190815260200160002060008282546123259190613330565b9250508190555050505050505050565b6000612397826040518060400160405280602081526020017f5361666545524332303a206c6f772d6c6576656c2063616c6c206661696c65648152508573ffffffffffffffffffffffffffffffffffffffff166123fc9092919063ffffffff16565b90506000815111156123f757808060200190518101906123b79190612a78565b6123f6576040517f08c379a00000000000000000000000000000000000000000000000000000000081526004016123ed906130c8565b60405180910390fd5b5b505050565b606061240b8484600085612414565b90509392505050565b606082471015612459576040517f08c379a000000000000000000000000000000000000000000000000000000000815260040161245090612fe8565b60405180910390fd5b61246285612528565b6124a1576040517f08c379a0000000000000000000000000000000000000000000000000000000008152600401612498906130a8565b60405180910390fd5b6000808673ffffffffffffffffffffffffffffffffffffffff1685876040516124ca9190612e6d565b60006040518083038185875af1925050503d8060008114612507576040519150601f19603f3d011682016040523d82523d6000602084013e61250c565b606091505b509150915061251c82828661254b565b92505050949350505050565b6000808273ffffffffffffffffffffffffffffffffffffffff163b119050919050565b6060831561255b578290506125ab565b60008351111561256e5782518084602001fd5b816040517f08c379a00000000000000000000000000000000000000000000000000000000081526004016125a29190612f66565b60405180910390fd5b9392505050565b60006125c56125c084613208565b6131e3565b905080838252602082019050828560808602820111156125e457600080fd5b60005b8581101561261457816125fa88826127b3565b8452602084019350608083019250506001810190506125e7565b5050509392505050565b600061263161262c84613234565b6131e3565b9050808382526020820190508285606086028201111561265057600080fd5b60005b8581101561268057816126668882612827565b845260208401935060608301925050600181019050612653565b5050509392505050565b600061269d61269884613260565b6131e3565b905080838252602082019050828560208602820111156126bc57600080fd5b60005b858110156126ec57816126d2888261289c565b8452602084019350602083019250506001810190506126bf565b5050509392505050565b60008135905061270581613860565b92915050565b60008151905061271a81613860565b92915050565b600082601f83011261273157600080fd5b81516127418482602086016125b2565b91505092915050565b600082601f83011261275b57600080fd5b815161276b84826020860161261e565b91505092915050565b600082601f83011261278557600080fd5b815161279584826020860161268a565b91505092915050565b6000815190506127ad81613877565b92915050565b6000608082840312156127c557600080fd5b6127cf60806131e3565b905060006127df8482850161289c565b60008301525060206127f38482850161289c565b60208301525060406128078482850161270b565b604083015250606061281b8482850161270b565b60608301525092915050565b60006060828403121561283957600080fd5b61284360606131e3565b905060006128538482850161289c565b60008301525060206128678482850161289c565b602083015250604061287b8482850161270b565b60408301525092915050565b6000813590506128968161388e565b92915050565b6000815190506128ab8161388e565b92915050565b6000602082840312156128c357600080fd5b60006128d1848285016126f6565b91505092915050565b600080604083850312156128ed57600080fd5b60006128fb858286016126f6565b925050602061290c858286016126f6565b9150509250929050565b6000806000806080858703121561292c57600080fd5b600061293a878288016126f6565b945050602061294b878288016126f6565b935050604061295c878288016126f6565b925050606061296d878288016126f6565b91505092959194509250565b6000806040838503121561298c57600080fd5b600061299a858286016126f6565b92505060206129ab85828601612887565b9150509250929050565b6000602082840312156129c757600080fd5b600082015167ffffffffffffffff8111156129e157600080fd5b6129ed84828501612720565b91505092915050565b600060208284031215612a0857600080fd5b600082015167ffffffffffffffff811115612a2257600080fd5b612a2e8482850161274a565b91505092915050565b600060208284031215612a4957600080fd5b600082015167ffffffffffffffff811115612a6357600080fd5b612a6f84828501612774565b91505092915050565b600060208284031215612a8a57600080fd5b6000612a988482850161279e565b91505092915050565b600060208284031215612ab357600080fd5b6000612ac18482850161289c565b91505092915050565b600080600060608486031215612adf57600080fd5b6000612aed8682870161289c565b9350506020612afe8682870161289c565b9250506040612b0f8682870161270b565b9150509250925092565b6000612b258383612b49565b60208301905092915050565b6000612b3d8383612e4f565b60208301905092915050565b612b5281613445565b82525050565b612b6181613445565b82525050565b6000612b72826132ac565b612b7c81856132f2565b9350612b878361328c565b8060005b83811015612bb8578151612b9f8882612b19565b9750612baa836132d8565b925050600181019050612b8b565b5085935050505092915050565b6000612bd0826132b7565b612bda8185613303565b9350612be58361329c565b8060005b83811015612c16578151612bfd8882612b31565b9750612c08836132e5565b925050600181019050612be9565b5085935050505092915050565b6000612c2e826132c2565b612c388185613314565b9350612c488185602086016134b7565b80840191505092915050565b6000612c5f826132cd565b612c69818561331f565b9350612c798185602086016134b7565b612c82816135f1565b840191505092915050565b6000612c9a60268361331f565b9150612ca582613602565b604082019050919050565b6000612cbd601e8361331f565b9150612cc882613651565b602082019050919050565b6000612ce060068361331f565b9150612ceb8261367a565b602082019050919050565b6000612d0360268361331f565b9150612d0e826136a3565b604082019050919050565b6000612d26600e8361331f565b9150612d31826136f2565b602082019050919050565b6000612d4960068361331f565b9150612d548261371b565b602082019050919050565b6000612d6c60068361331f565b9150612d7782613744565b602082019050919050565b6000612d8f60208361331f565b9150612d9a8261376d565b602082019050919050565b6000612db260068361331f565b9150612dbd82613796565b602082019050919050565b6000612dd5601d8361331f565b9150612de0826137bf565b602082019050919050565b6000612df8602a8361331f565b9150612e03826137e8565b604082019050919050565b6000612e1b60198361331f565b9150612e2682613837565b602082019050919050565b612e3a81613463565b82525050565b612e498161347f565b82525050565b612e58816134ad565b82525050565b612e67816134ad565b82525050565b6000612e798284612c23565b915081905092915050565b6000602082019050612e996000830184612b58565b92915050565b6000604082019050612eb46000830185612b58565b612ec16020830184612b58565b9392505050565b6000606082019050612edd6000830186612b58565b612eea6020830185612b58565b612ef76040830184612e5e565b949350505050565b6000604082019050612f146000830185612b58565b612f216020830184612e5e565b9392505050565b60006060820190508181036000830152612f428186612bc5565b9050612f516020830185612e5e565b612f5e6040830184612e5e565b949350505050565b60006020820190508181036000830152612f808184612c54565b905092915050565b60006020820190508181036000830152612fa181612c8d565b9050919050565b60006020820190508181036000830152612fc181612cb0565b9050919050565b60006020820190508181036000830152612fe181612cd3565b9050919050565b6000602082019050818103600083015261300181612cf6565b9050919050565b6000602082019050818103600083015261302181612d19565b9050919050565b6000602082019050818103600083015261304181612d3c565b9050919050565b6000602082019050818103600083015261306181612d5f565b9050919050565b6000602082019050818103600083015261308181612d82565b9050919050565b600060208201905081810360008301526130a181612da5565b9050919050565b600060208201905081810360008301526130c181612dc8565b9050919050565b600060208201905081810360008301526130e181612deb565b9050919050565b6000602082019050818103600083015261310181612e0e565b9050919050565b600060208201905061311d6000830184612e31565b92915050565b60006020820190506131386000830184612e40565b92915050565b60006020820190506131536000830184612e5e565b92915050565b600060408201905061316e6000830185612e5e565b81810360208301526131808184612b67565b90509392505050565b600060a08201905061319e6000830188612e5e565b6131ab6020830187612e5e565b81810360408301526131bd8186612b67565b90506131cc6060830185612b58565b6131d96080830184612e5e565b9695505050505050565b60006131ed6131fe565b90506131f982826134ea565b919050565b6000604051905090565b600067ffffffffffffffff821115613223576132226135c2565b5b602082029050602081019050919050565b600067ffffffffffffffff82111561324f5761324e6135c2565b5b602082029050602081019050919050565b600067ffffffffffffffff82111561327b5761327a6135c2565b5b602082029050602081019050919050565b6000819050602082019050919050565b6000819050602082019050919050565b600081519050919050565b600081519050919050565b600081519050919050565b600081519050919050565b6000602082019050919050565b6000602082019050919050565b600082825260208201905092915050565b600082825260208201905092915050565b600081905092915050565b600082825260208201905092915050565b600061333b826134ad565b9150613346836134ad565b9250827fffffffffffffffffffffffffffffffffffffffffffffffffffffffffffffffff0382111561337b5761337a613564565b5b828201905092915050565b6000613391826134ad565b915061339c836134ad565b9250826133ac576133ab613593565b5b828204905092915050565b60006133c2826134ad565b91506133cd836134ad565b9250817fffffffffffffffffffffffffffffffffffffffffffffffffffffffffffffffff048311821515161561340657613405613564565b5b828202905092915050565b600061341c826134ad565b9150613427836134ad565b92508282101561343a57613439613564565b5b828203905092915050565b60006134508261348d565b9050919050565b60008115159050919050565b60006fffffffffffffffffffffffffffffffff82169050919050565b600061ffff82169050919050565b600073ffffffffffffffffffffffffffffffffffffffff82169050919050565b6000819050919050565b60005b838110156134d55780820151818401526020810190506134ba565b838111156134e4576000848401525b50505050565b6134f3826135f1565b810181811067ffffffffffffffff82111715613512576135116135c2565b5b80604052505050565b6000613526826134ad565b91507fffffffffffffffffffffffffffffffffffffffffffffffffffffffffffffffff82141561355957613558613564565b5b600182019050919050565b7f4e487b7100000000000000000000000000000000000000000000000000000000600052601160045260246000fd5b7f4e487b7100000000000000000000000000000000000000000000000000000000600052601260045260246000fd5b7f4e487b7100000000000000000000000000000000000000000000000000000000600052604160045260246000fd5b6000601f19601f8301169050919050565b7f4f776e61626c653a206e6577206f776e657220697320746865207a65726f206160008201527f6464726573730000000000000000000000000000000000000000000000000000602082015250565b7f546f6b656e20616c6c6f77616e6365206e6f742073756666696369656e740000600082015250565b7f4572726f72330000000000000000000000000000000000000000000000000000600082015250565b7f416464726573733a20696e73756666696369656e742062616c616e636520666f60008201527f722063616c6c0000000000000000000000000000000000000000000000000000602082015250565b7f617070726f7665206661696c6564000000000000000000000000000000000000600082015250565b7f4572726f72340000000000000000000000000000000000000000000000000000600082015250565b7f4572726f72310000000000000000000000000000000000000000000000000000600082015250565b7f4f776e61626c653a2063616c6c6572206973206e6f7420746865206f776e6572600082015250565b7f4572726f72320000000000000000000000000000000000000000000000000000600082015250565b7f416464726573733a2063616c6c20746f206e6f6e2d636f6e7472616374000000600082015250565b7f5361666545524332303a204552433230206f7065726174696f6e20646964206e60008201527f6f74207375636365656400000000000000000000000000000000000000000000602082015250565b7f4e6f20656c696769626c6520737562736372697074696f6e7300000000000000600082015250565b61386981613445565b811461387457600080fd5b50565b61388081613457565b811461388b57600080fd5b50565b613897816134ad565b81146138a257600080fd5b5056fea26469706673582212200ad17eca96344cdf0635aa4519b61eba35e3d7260dca54e9dbbcf878c825c49b64736f6c63430008010033",
  "linkReferences": {},
  "deployedLinkReferences": {}
}